:020000040000FA
:100000000C9458000C9480000C9480000C94800098
:100010000C9480000C9480000C9480000C94800060
:100020000C9480000C9480000C9480000C94800050
:100030000C9480000C9480000C9480000C94800040
:100040000C94D1030C9480000C9480000C948000DC
:100050000C9480000C9480000C9480000C94800020
:100060000C941B040C948000000000002500280064
:100070002B00040404040404040402020202020229
:10008000030303030303010204081020408001025C
:1000900004081020010204081020000000080002DB
:1000A00001000003040700000000000000003A0502
:1000B00011241FBECFEFD8E0DEBFCDBF11E0A0E01E
:1000C000B1E0EAE7FDE002C005900D92A433B1076C
:1000D000D9F722E0A4E3B1E001C01D92A131B2073B
:1000E000E1F710E0C8E5D0E004C02197FE010E94CE
:1000F000B506C735D107C9F70E9460050C94BB0649
:100100000C94000008950895AF92BF92CF92DF92B1
:10011000EF92FF920F931F93CF93DF936C017B01BC
:100120008B01040F151FEB015E01AE18BF08C0174D
:10013000D10759F06991D601ED91FC910190F081C0
:10014000E02DC6010995892B79F7C501DF91CF9183
:100150001F910F91FF90EF90DF90CF90BF90AF90E5
:10016000089590E0FC01E656FF4F2491FC01EA5708
:10017000FF4F3491FC01EE58FF4FE491EE23C9F09C
:10018000222339F0233001F1A8F4213019F1223073
:1001900029F1F0E0EE0FFF1FE859FF4FA591B49150
:1001A0008FB7F894EC91611126C030953E233C93B3
:1001B0008FBF08952730A9F02830C9F0243049F7BF
:1001C000809180008F7D03C0809180008F77809325
:1001D0008000DFCF84B58F7784BDDBCF84B58F7D82
:1001E000FBCF8091B0008F778093B000D2CF809109
:1001F000B0008F7DF9CF3E2BDACF3FB7F8948091D6
:10020000EB019091EC01A091ED01B091EE0126B5CA
:10021000A89B05C02F3F19F00196A11DB11D3FBF3E
:10022000BA2FA92F982F8827BC01CD01620F711D0D
:10023000811D911D42E0660F771F881F991F4A9507
:10024000D1F708958F929F92AF92BF92CF92DF9293
:10025000EF92FF924B015C010E94FD006B017C015B
:100260000E94FD006C197D098E099F09683E73404C
:1002700081059105A8F321E0821A9108A108B1082F
:1002800088EEC80E83E0D81EE11CF11C8114910495
:10029000A104B10429F7FF90EF90DF90CF90BF90B9
:1002A000AF909F908F90089520919C01260F332747
:1002B000331F21323105ECF42091C001FC0190E0A4
:1002C00080E0243069F082E00895A0919C012191A2
:1002D000AC0144585E4FA40FB52FB11D2C9301966D
:1002E000861798F380919C01680F60939C0180E0D1
:1002F000089581E008951092C00181E08093C201C9
:100300001092C10161E082E10E94B10061E083E1ED
:100310000E94B100E9EBF0E080818E7F80838081D4
:100320008D7F808388E48093B80085E48093BC004F
:100330000895CF93DF9391E090937B018823B9F0E8
:10034000C091B800D091BA008091BC008A7B8093A4
:10035000BC0060E082E10E94B10060E083E10E94A5
:10036000B1000E947B01D093BA00C093B800DF9126
:10037000CF9108950895E091F6018091F501E81775
:1003800030F4F0E0EA5AFE4F808190E008958FEF5C
:100390009FEF08959091F6018091F5012FEF3FEFC7
:1003A000981748F4E92FF0E0EA5AFE4F208130E038
:1003B0009F5F9093F601C90108958091F501909196
:1003C000F601891B990B0895CF92DF92EF92FF926D
:1003D0000F931F93CF93DF937C01CB018A01209170
:1003E0005501222389F0EB016B01C40ED51ECC15FB
:1003F000DD0569F06991D701ED91FC910190F081E3
:10040000E02DC7010995F3CF642F0E945401C80164
:10041000DF91CF911F910F91FF90EF90DF90CF90E0
:100420000895CF93DF931F92CDB7DEB769832091F4
:1004300055012223F9F02091F301203258F021E0F8
:1004400030E0FC013383228390E080E00F90DF9165
:10045000CF9108958091F401E82FF0E0EB5CFE4F1E
:10046000998190838F5F8093F4018093F30181E001
:1004700090E0ECCF61E0CE0101960E945401F7CFED
:10048000CF92DF92EF92FF920F931F93CF93DF9360
:10049000FC01C48181E080935501C0933401109226
:1004A000F4011092F30187EF91E00E941102D091C4
:1004B000F301D13208F092C00E94FD006B017C0173
:1004C0008091C001811165C082E08093C00181E00C
:1004D0008093C2018FEF8093BF011092E401D0930B
:1004E000E301E5E3F1E0A3ECB1E080E0D81385C0DF
:1004F0001092E5018091E501CC0FC82BC093E50176
:100500008091C101813009F07CC01092C1010E942C
:10051000FD006B017C018091E5018093BB0080911F
:10052000770190917801A0917901B0917A01892B9E
:100530008A2B8B2B99F00E94FD000091770110917E
:1005400078012091790130917A016C197D098E0929
:100550009F090617170728073907E0F18091BC00AB
:1005600083FDD9CF85EC8093BC000E94FD006B0118
:100570007C018091C001823009F445C08091BF01A7
:100580008F3F61F18091BF01803241F18091BF01C5
:1005900025C08091770190917801A0917901B09167
:1005A0007A01892B8A2B8B2B09F48ACF0E94FD00BC
:1005B00000917701109178012091790130917A01B1
:1005C0006C197D098E099F09061717072807390737
:1005D00008F076CF809176010E9499011092F40183
:1005E0001092F30110925501DF91CF911F910F915D
:1005F000FF90EF90DF90CF90089591919D938F5F42
:1006000075CF85EEB0CF8091770190917801A09160
:100610007901B0917A01892B8A2B8B2B09F4A9CF10
:100620000E94FD00009177011091780120917901DD
:1006300030917A016C197D098E099F0906171707F9
:100640002807390708F095CFC5CF089590E080E0DE
:10065000089585ED8093BC00809177019091780199
:10066000A0917901B0917A010796A11DB11D23E0F7
:10067000B695A795979587952A95D1F72091BC00B7
:1006800024FD03C01092C00108954091770150915C
:1006900078016091790170917A01452B462B472BA7
:1006A00069F30097A105B10541F025E32A95F1F71B
:1006B00000000197A109B109E1CF809176010C9466
:1006C00099010F931F93CF93DF93EC01042F6B8756
:1006D00011E019878885880F9F819460892B2A856E
:1006E00098E0299F90011124822B607F682BCE0116
:1006F0000E94400219866885660F8A8528E0829FDD
:10070000C0011124682B8F81682B8B85807F682B1B
:10071000CE010E944002011131C08FE890E00197A4
:10072000F1F719878F8184606885660F682B8A8549
:1007300028E0829FC0011124682B8B8520E1829FD5
:10074000C0011124682BCE010E94400219866885E1
:10075000660F8A8528E0829FC0011124682B8F8153
:10076000682B8B8520E1829FC0011124682BCE016C
:10077000DF91CF911F910F910C944002DF91CF91A7
:100780001F910F91089521E0FC012783108640E01E
:100790000E9461038FE990E00197F1F781E090E01A
:1007A00008951F920F920FB60F9211242F933F932B
:1007B0008F939F93AF93BF938091E7019091E8014E
:1007C000A091E901B091EA013091E60123E0230F05
:1007D0002D3758F50196A11DB11D2093E601809398
:1007E000E7019093E801A093E901B093EA018091B9
:1007F000EB019091EC01A091ED01B091EE01019619
:10080000A11DB11D8093EB019093EC01A093ED012C
:10081000B093EE01BF91AF919F918F913F912F9136
:100820000F900FBE0F901F90189526E8230F029689
:10083000A11DB11DD2CF1F920F920FB60F9211249E
:100840002F933F934F935F936F937F938F939F93D8
:10085000AF93BF93EF93FF938091B900887F803669
:1008600009F44AC0F0F5883209F4A7C018F58031C0
:1008700009F49BC0B8F4882309F4F9C0883009F45E
:1008800094C0FF91EF91BF91AF919F918F917F9114
:100890006F915F914F913F912F910F900FBE0F90ED
:1008A0001F901895883109F488C0803251F78093E1
:1008B000BF0114C0803409F49DC040F48033B9F303
:1008C0008833F9F68093BF0185ECB0C0803509F418
:1008D00085C0883509F496C0883499F60E942903AA
:1008E000D0CF883909F48CC038F5883729F050F416
:1008F000883611F0803729F683E08093C00110928A
:10090000BE0157C0883809F47BC0803919F080389F
:1009100009F0B7CF8091BE01803208F071C0E0913C
:10092000BE0181E08E0F8093BE018091BB00F0E09C
:10093000E256FE4F80833DC0803B39F0E0F4803AC0
:1009400009F479C0883A09F09CCF84E08093C00113
:1009500010929D0110929C01E091F101F091F20141
:10096000099580919C0181110FC081E080939C01C9
:1009700010927C0109C0803C09F4A6CF883C09F4A0
:10098000A3CF883B09F07DCFE0919D0181E08E0FE0
:1009900080939D01F0E0E458FE4F80818093BB007E
:1009A00090919D0180919C0129C08091E5018093E7
:1009B000BB0085EC8093BC0064CF9091E4018091F2
:1009C000E301981758F5E091E40181E08E0F8093E0
:1009D000E401F0E0ED53FE4F8081E9CFE091E401C6
:1009E00081E08E0F8093E4018091BB00F0E0ED5335
:1009F000FE4F80839091E4018091E3019817C8F243
:100A000085E8D8CFE091E40181E08E0F8093E40186
:100A10008091BB00F0E0ED53FE4F80838091C201D6
:100A200081115CCF81E08093C10184EA8093BC0096
:100A30001092C00126CF85EC8093BC001092C001BB
:100A40008091BE01803230F4E091BE01F0E0E256C8
:100A5000FE4F10826091BE0170E0E091EF01F091D5
:100A6000F0018EE991E009951092BE010ACF109233
:100A7000BF0134CFE7EFF1E01382128288EE93E0FA
:100A8000A0E0B0E084839583A683B78388E091E0FB
:100A900091838083E3E0F2E0138212828AE191E0A5
:100AA0009183808387E284838FE0858381E08683DE
:100AB000178210861186128613861486158608956D
:100AC000789484B5826084BD84B5816084BD85B529
:100AD000826085BD85B5816085BD80916E00816035
:100AE00080936E00109281008091810082608093DB
:100AF00081008091810081608093810080918000DD
:100B00008160809380008091B10084608093B10007
:100B10008091B00081608093B00080917A00846001
:100B200080937A0080917A00826080937A0080912D
:100B30007A00816080937A0080917A008068809347
:100B40007A001092C1001092F6011092F5011092F5
:100B5000F4011092F3010E947B0182E890E09093EF
:100B6000F2018093F10183E890E09093F00180938B
:100B7000EF0160E083E092E00E94400262E370E0F7
:100B800080E090E00E94220110920A0210920B0273
:100B900041E060E383E092E00E9461038BE991E42D
:100BA0000197F1F741E060E383E092E00E94610386
:100BB00083E592E00197F1F741E060E383E092E0A2
:100BC0000E946103CFE8D0E0CE010197F1F741E048
:100BD00060E283E092E00E946103CE010197F1F7A9
:100BE00040E068E283E092E00E946103CE01019759
:100BF000F1F710920A0210920B0260910F02862FF9
:100C0000846080930F026C6040E083E092E00E9479
:100C10006103CE010197F1F710920A0210920B02C4
:100C200040E061E083E092E00E9461038BEF98E195
:100C30000197F1F710920A0210920B0260911002D4
:100C4000862F826080931002666040E083E092E02D
:100C50000E9461032197F1F781E080930D0268E023
:100C600083E092E00E944002CFE8D0E0BB24B3943E
:100C70000BEF18E190E0E92E90E0F92E4AE050E009
:100C800062E271E083E092E00E94840010920A0226
:100C900010920B0260910802653008F065E081E077
:100CA00090E020910902211102C090E080E0805084
:100CB0009F4FFC018081680F606840E083E092E014
:100CC0000E946103CE010197F1F746E050E06DE22A
:100CD00071E083E092E00E94840064EF71E080E0C4
:100CE00090E00E94220185E0C82ED12CB0920D0226
:100CF00068E083E092E00E94400262E370E080E0FE
:100D000090E00E94220110920D0260E083E092E0E8
:100D10000E94400262E370E080E090E00E942201C5
:100D2000F1E0CF1AD10811F7B0920D0268E083E02C
:100D300092E00E94400210920A0210920B0240E0E0
:100D400061E083E092E00E946103C8010197F1F73E
:100D500064EF71E080E090E00E942201E114F10470
:100D600009F48CCF0E94000089CFEE0FFF1F059081
:100D7000F491E02D0994F894FFCF00401454000042
:100D800000001102E4012603BA01DD01CA01BB0122
:100D900000000000C3038400260325032020202038
:0E0DA0002048656C6C6F00576F726C64210008
:107E0000112484B714BE81FFF0D085E080938100F7
:107E100082E08093C00088E18093C10086E0809377
:107E2000C20080E18093C4008EE0C9D0259A86E02C
:107E300020E33CEF91E0309385002093840096BBD3
:107E4000B09BFECF1D9AA8958150A9F7CC24DD24C4
:107E500088248394B5E0AB2EA1E19A2EF3E0BF2EE7
:107E6000A2D0813461F49FD0082FAFD0023811F036
:107E7000013811F484E001C083E08DD089C08234E0
:107E800011F484E103C0853419F485E0A6D080C0E4
:107E9000853579F488D0E82EFF2485D0082F10E0AE
:107EA000102F00270E291F29000F111F8ED06801E7
:107EB0006FC0863521F484E090D080E0DECF843638
:107EC00009F040C070D06FD0082F6DD080E0C81688
:107ED00080E7D80618F4F601B7BEE895C0E0D1E017
:107EE00062D089930C17E1F7F0E0CF16F0E7DF06D8
:107EF00018F0F601B7BEE89568D007B600FCFDCFD4
:107F0000A601A0E0B1E02C9130E011968C91119780
:107F100090E0982F8827822B932B1296FA010C0160
:107F200087BEE89511244E5F5F4FF1E0A038BF0790
:107F300051F7F601A7BEE89507B600FCFDCF97BE46
:107F4000E89526C08437B1F42ED02DD0F82E2BD052
:107F50003CD0F601EF2C8F010F5F1F4F84911BD097
:107F6000EA94F801C1F70894C11CD11CFA94CF0C13
:107F7000D11C0EC0853739F428D08EE10CD085E9AC
:107F80000AD08FE07ACF813511F488E018D01DD067
:107F900080E101D065CF982F8091C00085FFFCCF94
:107FA0009093C60008958091C00087FFFCCF809118
:107FB000C00084FD01C0A8958091C6000895E0E648
:107FC000F0E098E1908380830895EDDF803219F02E
:107FD00088E0F5DFFFCF84E1DECF1F93182FE3DFCA
:107FE0001150E9F7F2DF1F91089580E0E8DFEE27F6
:047FF000FF270994CA
:027FFE00040479
:00000001FF
