:100000000C9453000C947B000C947B000C947B00AC
:100010000C947B000C947B000C947B000C947B0074
:100020000C947B000C947B000C947B000C947B0064
:100030000C947B000C947B000C947B000C947B0054
:100040000C9458020C947B000C9426020C94000231
:100050000C947B000C947B000C947B000C947B0034
:100060000C947B000C947B0000000000250028000D
:100070002B0000000000240027002A0004040404D0
:100080000404040402020202020203030303030342
:10009000010204081020408001020408102001021F
:1000A00004081020DC0311241FBECFEFD8E0DEBF10
:1000B000CDBF11E0A0E0B1E0E0EDF8E002C00590B6
:1000C0000D92AA34B107D9F721E0AAE4B1E001C04A
:1000D0001D92A43FB207E1F710E0C3E5D0E004C0F1
:1000E0002197FE010E946004C235D107C9F70E9422
:1000F000A2020C9466040C940000AF92BF92CF92BF
:10010000DF92EF92FF920F931F93CF93DF936C01D7
:100110007B018B01040F151FEB015E01AE18BF08B8
:10012000C017D10759F06991D601ED91FC9101906A
:10013000F081E02DC6010995892B79F7C501DF9182
:10014000CF911F910F91FF90EF90DF90CF90BF90D4
:10015000AF900895FC01538D448D252F30E0842FFE
:1001600090E0821B930B541710F0CF9608950197DF
:100170000895FC01918D828D981761F0A28DAE0FCC
:10018000BF2FB11D5D968C91928D9F5F9F73928F53
:1001900090E008958FEF9FEF0895FC01918D828D7F
:1001A000981731F0828DE80FF11D858D90E008954C
:1001B0008FEF9FEF0895FC01918D228D892F90E0A4
:1001C000805C9F4F821B91098F739927089587E563
:1001D00091E00E94DB0021E0892B09F420E0822FCE
:1001E000089580E090E0892B29F00E94E7008111BA
:1001F0000C9400000895FC01A48DA80FB92FB11D27
:10020000A35ABF4F2C91848D90E001968F7399274C
:10021000848FA689B7892C93A089B1898C9183702A
:1002200080648C93938D848D981306C00288F38923
:10023000E02D80818F7D80830895EF92FF920F9350
:100240001F93CF93DF93EC0181E0888F9B8D8C8D82
:1002500098131AC0E889F989808185FF15C09FB776
:10026000F894EE89FF896083E889F9898081837039
:10027000806480839FBF81E090E0DF91CF911F91E8
:100280000F91FF90EF900895F62E0B8D10E00F5F09
:100290001F4F0F731127E02E8C8D8E110CC00FB6DF
:1002A00007FCFACFE889F989808185FFF5CFCE0177
:1002B0000E94FB00F1CFEB8DEC0FFD2FF11DE35AF7
:1002C000FF4FF0829FB7F8940B8FEA89FB898081FA
:1002D0008062CFCFCF93DF93EC01888D8823B9F074
:1002E000AA89BB89E889F9898C9185FD03C0808141
:1002F00086FD0DC00FB607FCF7CF8C9185FFF2CFBE
:10030000808185FFEDCFCE010E94FB00E9CFDF9118
:10031000CF9108953FB7F89480914F01909150018B
:10032000A0915101B091520126B5A89B05C02F3F65
:1003300019F00196A11DB11D3FBFBA2FA92F982F0B
:100340008827BC01CD01620F711D811D911D42E006
:10035000660F771F881F991F4A95D1F70895FC01F2
:1003600001900020E9F73197AF01481B590BBC0100
:1003700087E591E00C947D008F929F92AF92BF929F
:100380000F931F93CF93DF93CDB7DEB7A1970FB62F
:10039000F894DEBF0FBECDBF19A2423008F44AE088
:1003A0008E010F5D1F4F842E912CB12CA12CA50125
:1003B00094010E942804E62FB901CA01EA30F4F43E
:1003C000E05DD801EE938D01232B242B252B79F7AB
:1003D00090E080E0109719F0CD010E94AF01A19646
:1003E0000FB6F894DEBF0FBECDBFDF91CF911F9146
:1003F0000F91BF90AF909F908F900895E95CE1CFEF
:100400001F920F920FB60F9211242F933F934F9389
:100410005F936F937F938F939F93AF93BF93EF936C
:10042000FF9387E591E00E94FB00FF91EF91BF9160
:10043000AF919F918F917F916F915F914F913F917C
:100440002F910F900FBE0F901F9018951F920F9233
:100450000FB60F9211242F938F939F93EF93FF93D7
:10046000E0916701F09168018081E0916D01F09168
:100470006E0182FD1BC09081809170018F5F8F7330
:1004800020917101821741F0E0917001F0E0E95A8A
:10049000FE4F958F80937001FF91EF919F918F9107
:1004A0002F910F900FBE0F901F9018958081F4CF61
:1004B0001F920F920FB60F9211242F933F938F9399
:1004C0009F93AF93BF9380914B0190914C01A0916A
:1004D0004D01B0914E0130914A0123E0230F2D3799
:1004E00058F50196A11DB11D20934A0180934B013F
:1004F00090934C01A0934D01B0934E0180914F0118
:1005000090915001A0915101B09152010196A11D0D
:10051000B11D80934F0190935001A0935101B0936E
:100520005201BF91AF919F918F913F912F910F9069
:100530000FBE0F901F90189526E8230F0296A11D5D
:10054000B11DD2CF789484B5826084BD84B58160BA
:1005500084BD85B5826085BD85B5816085BD80918E
:100560006E00816080936E00109281008091810006
:1005700082608093810080918100816080938100FE
:10058000809180008160809380008091B1008460C0
:100590008093B1008091B00081608093B000809121
:1005A0007A00846080937A0080917A0082608093E0
:1005B0007A0080917A00816080937A0080917A003D
:1005C000806880937A001092C100E0916701F091F9
:1005D000680182E08083E0916301F0916401108200
:1005E000E0916501F09166018FEC808310926F01BC
:1005F000E0916B01F0916C0186E08083E0916901EC
:10060000F0916A01808180618083E0916901F091BD
:100610006A01808188608083E0916901F0916A01BC
:10062000808180688083E0916901F0916A01808116
:100630008F7D8083EEE9F0E02491EAE8F0E0849198
:100640008823C1F090E0880F991FFC01EE58FF4FFE
:10065000C591D491FC01E859FF4FA591B4919FB782
:10066000F8948881E22FE0958E2388838C91E8238B
:10067000EC939FBF10E488248A9493E0992EA12CD8
:10068000B12CC0E0D0E010937C0080917A008064AF
:1006900080937A0080917A0086FDFCCF809178006B
:1006A000A0917900BA2FA82FB0935601A0935501BD
:1006B00024E630E00E945904A50194010E94090437
:1006C000309354012093530182E191E00E94AF01E5
:1006D000C0905501D09056010D2C000CEE08FF087B
:1006E0004AE0C701B601F7FE0DC06DE287E591E073
:1006F0000E941D0166277727CB016C197D098E09A1
:100700009F094AE00E94BC018AE291E00E94AF0189
:1007100080E391E00E94AF01C0905301D09054015A
:100720000D2C000CEE08FF084AE0C701B601F7FEE9
:100730000DC06DE287E591E00E941D0166277727D5
:10074000CB016C197D098E099F094AE00E94BC010A
:1007500086E491E00E94AF010E948A012B013C01D6
:1007600084EFC82EDD24D394E12CF12C0E948A0161
:100770006419750986099709683E734081059105DA
:10078000A8F321E0C21AD108E108F10888EE480E6A
:1007900083E0581E611C711CC114D104E104F104F2
:1007A00029F7209709F46FCF0E94E700882309F406
:1007B0006ACF0E94000067CFE7E5F1E01382128262
:1007C00088EE93E0A0E0B0E084839583A683B783AE
:1007D00084E091E09183808385EC90E09587848725
:1007E00084EC90E09787868780EC90E0918B808BFB
:1007F00081EC90E0938B828B82EC90E0958B848BE4
:1008000086EC90E0978B868B118E128E138E148E51
:100810000895052E97FB1EF400940E94200457FDB6
:1008200007D00E94280407FC03D04EF40C94200447
:1008300050954095309521953F4F4F4F5F4F08950C
:1008400090958095709561957F4F8F4F9F4F08953C
:10085000A1E21A2EAA1BBB1BFD010DC0AA1FBB1FC4
:10086000EE1FFF1FA217B307E407F50720F0A21B36
:10087000B30BE40BF50B661F771F881F991F1A94A3
:1008800069F760957095809590959B01AC01BD01CD
:10089000CF010895A29FB001B39FC001A39F700D27
:1008A000811D1124911DB29F700D811D1124911D78
:1008B00008950E944A04B7FF0895821B930B089580
:1008C000EE0FFF1F0590F491E02D0994F894FFCFEF
:1008D000000000001D017D00AA006A01DB00B900D4
:1008E000CD00456C2076616C6F7220616E616C6F1B
:1008F0006769636F2065733A2000202D2D2D20003D
:10090000456C2076616C6F72206D61706561646FFB
:0A0910002065733A20000D0A000074
:00000001FF
