:100000000C945C000C946E000C946E000C946E00CA
:100010000C946E000C946E000C946E000C946E00A8
:100020000C946E000C946E000C946E000C946E0098
:100030000C946E000C946E000C946E000C946E0088
:100040000C94F4010C946E000C946E000C946E00F1
:100050000C946E000C946E000C946E000C946E0068
:100060000C946E000C946E00000000080002010069
:100070000003040700000000000000000000000072
:10008000250028002B0000000000240027002A0083
:10009000040404040404040402020202020203032E
:1000A0000303030301020408102040800102040836
:1000B000102001020408102011241FBECFEFD8E049
:1000C000DEBFCDBF21E0A0E0B1E001C01D92AB30AA
:1000D000B207E1F70E943E020C9478030C940000F2
:1000E00090E0FC01E859FF4F2491FC01EC55FF4FD3
:1000F0003491FC01E057FF4FE491EE23C9F0222335
:1001000039F0233001F1A8F4213019F1223029F11E
:10011000F0E0EE0FFF1FE458FF4FA591B4918FB7A9
:10012000F894EC91611126C030953E233C938FBF2B
:1001300008952730A9F02830C9F0243049F780917C
:1001400080008F7D03C0809180008F778093800036
:10015000DFCF84B58F7784BDDBCF84B58F7DFBCFB8
:100160008091B0008F778093B000D2CF8091B000A3
:100170008F7DF9CF3E2BDACF3FB7F8948091050100
:1001800090910601A0910701B091080126B5A89BA6
:1001900005C02F3F19F00196A11DB11D3FBFBA2F19
:1001A000A92F982F8827BC01CD01620F711D811DD9
:1001B000911D42E0660F771F881F991F4A95D1F75E
:1001C00008958F929F92AF92BF92CF92DF92EF925B
:1001D000FF926B017C010E94BC004B015C01C114C9
:1001E000D104E104F104B9F00E94BC006819790956
:1001F0008A099B09683E73408105910580F321E0DF
:10020000C21AD108E108F10888EE880E83E0981E32
:10021000A11CB11CE4CFFF90EF90DF90CF90BF9076
:10022000AF909F908F90089561E088E00E947000E9
:1002300061E087E00E94700061E086E00E9470004B
:1002400061E085E00E94700061E084E00E9470003F
:1002500061E083E00E94700061E082E00C94700035
:1002600061E088E00E94700061E087E00E94700019
:1002700061E086E00E94700060E085E00E9470000E
:1002800060E084E00E94700060E083E00E94700003
:1002900060E082E00C94700061E088E00E947000F1
:1002A00060E087E00E94700061E086E00E947000DC
:1002B00061E085E00E94700061E084E00E947000CF
:1002C00061E083E00E94700061E082E00C947000C5
:1002D00061E088E00E94700060E087E00E947000AA
:1002E00061E086E00E94700061E085E00E9470009D
:1002F00060E084E00E94700061E083E00E94700092
:1003000061E082E00C94700060E088E00E94700080
:1003100061E087E00E94700061E086E00E9470006A
:1003200060E085E00E94700060E084E00E94700060
:1003300061E083E00E94700061E082E00C94700054
:1003400061E088E00E94700061E087E00E94700038
:1003500061E086E00E94700061E085E00E9470002C
:1003600060E084E00E94700060E083E00E94700022
:1003700061E082E00C94700061E088E00E9470000F
:1003800061E087E00E94700060E086E00E947000FB
:1003900061E085E00E94700061E084E00E947000EE
:1003A00060E083E00E94700061E082E00C947000E5
:1003B00060E088E00E94700061E087E00E947000C9
:1003C00061E086E00E94700060E085E00E947000BD
:1003D00060E084E00E94700060E083E00E947000B2
:1003E00060E082E00C9470001F920F920FB60F92A3
:1003F00011242F933F938F939F93AF93BF9380913B
:10040000010190910201A0910301B091040130918A
:10041000000123E0230F2D3758F50196A11DB11DD2
:10042000209300018093010190930201A0930301A6
:10043000B09304018091050190910601A0910701FC
:10044000B09108010196A11DB11D80930501909303
:100450000601A0930701B0930801BF91AF919F914E
:100460008F913F912F910F900FBE0F901F90189575
:1004700026E8230F0296A11DB11DD2CF789484B532
:10048000826084BD84B5816084BD85B5826085BD90
:1004900085B5816085BD80916E00816080936E001E
:1004A0001092810080918100826080938100809110
:1004B00081008160809381008091800081608093C1
:1004C00080008091B10084608093B1008091B00081
:1004D00081608093B00080917A00846080937A007C
:1004E00080917A00826080937A0080917A008160A6
:1004F00080937A0080917A00806880937A001092CD
:10050000C10022E030E0F901EC55FF4F4491F901C0
:10051000E057FF4F8491882399F090E0880F991F4E
:10052000FC01EA57FF4FA591B491FC01E458FF4F3D
:10053000859194918FB7F894EC91E42BEC938FBF55
:100540002F5F3F4F29303105F1F6C8EED3E000E0D0
:1005500010E0D0930A01C093090161E088E00E9495
:10056000700061E087E00E94700061E086E00E9418
:10057000700061E085E00E94700061E084E00E940C
:10058000700061E083E00E94700060E082E00E9401
:10059000700068EE73E080E090E00E94E1000E944D
:1005A000D80168EE73E080E090E00E94E1000E94D4
:1005B000BC0168EE73E080E090E00E94E1000E94E0
:1005C000A00168EE73E080E090E00E94E1000E94EC
:1005D000840168EE73E080E090E00E94E1000E94F8
:1005E000680168EE73E080E090E00E94E1000E9404
:1005F0004C0168EE73E080E090E00E94E1000E9410
:10060000300168EE73E080E090E00E94E1000E941B
:10061000140168EE73E080E090E00E94E10061E088
:1006200088E00E94700061E087E00E94700061E055
:1006300086E00E94700061E085E00E94700060E04A
:1006400084E00E94700061E083E00E94700061E03D
:1006500082E00E94700068EE73E080E090E00E940B
:10066000E1000E94140168EE73E080E090E00E94D7
:10067000E1000E94300168EE73E080E090E00E94AB
:10068000E1000E944C0168EE73E080E090E00E947F
:10069000E1000E94680168EE73E080E090E00E9453
:1006A000E1000E94840168EE73E080E090E00E9427
:1006B000E1000E94A00168EE73E080E090E00E94FB
:1006C000E1000E94BC0168EE73E080E090E00E94CF
:1006D000E1000E94D80168EE73E080E090E00E94A3
:1006E000E1000115110509F434CF0E94000031CF5B
:0406F000F894FFCFAC
:00000001FF
