:020000040000FA
:100000000C9442050C946A050C946A050C946A05DC
:100010000C946A050C946A050C946A050C946A05A4
:100020000C946A050C946A050C946A050C946A0594
:100030000C946A050C946A050C946A050C946A0584
:100040000C9442150C946A050C9410150C94EA1447
:100050000C946A050C946A050C946A050C946A0564
:100060000C948C150C946A0500000000003E5B4F58
:100070005B3E3E6B4F6B3E1C3E7C3E1C183C7E3C08
:10008000181C577D571C1C5E7F5E1C00183C180016
:10009000FFE7C3E7FF0018241800FFE7DBE7FF30A6
:1000A000483A060E2629792926407F050507407F14
:1000B00005253F5A3CE73C5A7F3E1C1C08081C1C87
:1000C0003E7F14227F22145F5F005F5F06097F017D
:1000D0007F006689956A606060606094A2FFA29468
:1000E00008047E040810207E201008082A1C080836
:1000F0001C2A08081E101010100C1E0C1E0C303884
:100100003E3830060E3E0E06000000000000005F84
:1001100000000007000700147F147F14242A7F2AA0
:100120001223130864623649562050000807030062
:10013000001C2241000041221C002A1C7F1C2A08AE
:10014000083E080800807030000808080808000011
:1001500060600020100804023E5149453E00427F85
:10016000400072494949462141494D331814127FD4
:100170001027454545393C4A494931412111090774
:100180003649494936464949291E000014000000F5
:1001900040340000000814224114141414140041C7
:1001A00022140802015909063E415D594E7C121184
:1001B000127C7F494949363E414141227F414141BC
:1001C0003E7F494949417F090909013E4141517337
:1001D0007F0808087F00417F41002040413F017FA8
:1001E000081422417F404040407F021C027F7F0470
:1001F00008107F3E4141413E7F090909063E4151B9
:10020000215E7F09192946264949493203017F01A8
:10021000033F4040403F1F2040201F3F4038403FA9
:10022000631408146303047804036159494D4300BF
:100230007F4141410204081020004141417F0402F6
:10024000010204404040404000030708002054548D
:1002500078407F284444383844444428384444286B
:100260007F385454541800087E090218A4A49C78BE
:100270007F0804047800447D40002040403D007F1A
:100280001028440000417F40007C047804787C08FA
:100290000404783844444438FC18242418182424CE
:1002A00018FC7C08040408485454542404043F44B3
:1002B000243C4040207C1C2040201C3C4030403CE2
:1002C00044281028444C9090907C4464544C440042
:1002D00008364100000077000000413608000201A6
:1002E0000204023C2623263C1EA1A161123A404092
:1002F000207A38545455592155557941225454780F
:1003000042215554784020545579400C1E527212A7
:100310003955555559395454545939555454580030
:1003200000457C410002457D420001457C407D1234
:1003300011127DF0282528F07C5455450020545496
:100340007C547C0A097F4932494949323A44444441
:100350003A324A4848303A4141217A3A424020787C
:10036000009DA0A07D3D4242423D3D4040403D3C7D
:1003700024FF2424487E4943662B2FFC2F2BFF09A2
:1003800029F620C0887E0903205454794100004496
:100390007D413048484A32384040227A007A0A0A81
:1003A000727D0D19317D2629292F282629292926F4
:1003B00030484D4020380808080808080808382F39
:1003C00010C8ACBA2F102834FA00007B00000814C3
:1003D0002A142222142A14085500550055AA55AA99
:1003E00055AAFF55FF55FF000000FF00101010FF39
:1003F00000141414FF001010FF00FF1010F010F094
:10040000141414FC001414F700FF0000FF00FF1484
:1004100014F404FC141417101F10101F101F1414D0
:10042000141F00101010F0000000001F101010101A
:100430001F10101010F010000000FF10101010100E
:1004400010101010FF10000000FF140000FF00FF4C
:1004500000001F10170000FC04F4141417101714E8
:1004600014F404F40000FF00F7141414141414140A
:10047000F700F7141414171410101F101F1414147D
:10048000F4141010F010F000001F101F0000001FE7
:1004900014000000FC140000F010F01010FF10FF1A
:1004A000141414FF141010101F00000000F010FFAF
:1004B000FFFFFFFFF0F0F0F0F0FFFFFF0000000093
:1004C00000FFFF0F0F0F0F0F3844443844FC4A4A17
:1004D0004A347E02020606027E027E0263554941CC
:1004E000633844443C04407E201E2006027E020203
:1004F00099A5E7A5991C2A492A1C4C7201724C3017
:100500004A4D4D303048784830BC625A463D3E49ED
:100510004949007E0101017E2A2A2A2A2A44445F91
:10052000444440514A444040444A51400000FF0185
:1005300003E080FF000008086B6B08361236243693
:10054000060F090F060000181800000010100030F8
:1005500040FF0101001F01011E00191D1712003C80
:100560003C3C3C0000000000000103070F1F3F7FE0
:100570000080C0E0F0F8FCFE00000008000201006E
:10058000000304070000000000000000000000005D
:10059000240027002A00DB40A4A62EAF2000A1C81B
:1005A000D300408DAED580A8010204081020408001
:1005B00001020408102001020408102000000000BD
:1005C000250028002B00040404040404040402028F
:1005D00002020202030303030303000060000000A1
:1005E0000000000000000000000000E0000000002B
:1005F00000000000000000000001E000000000001A
:10060000000000000000000001F0000000000000F9
:100610000000000000000003F000000000000000E7
:1006200000000000000007F00000000000000000D3
:10063000000000000007F8000000000000000000BB
:10064000000000000FF800000003C0007E00000161
:10065000E0007F0FF800000003C000FE000001E092
:1006600000FFEFF800000003C000FE000001E00002
:10067000FFFFF800000003C000F00000000F007F43
:10068000FE7FC0000003C000F00000000F003FFE2E
:100690007FF83FF1FBCFFCFEF3BC3DEFE01FFE7F98
:1006A000FF7FFBFFDFFEFEFFBC3DEFE01FC6FFFF4D
:1006B0007FFBFFDFFEFEFFBC3DEFE00FE3C7FE78F0
:1006C0007BC3DE1EF0FFBC3DEF0007FF87FC787B9D
:1006D000C3DE1EF0F83C3DEF0001FFFFF0007BC3DE
:1006E000C01EF0F03C3DEF0001F37FE03FFBC3CFC5
:1006F000FEF0F03C3DEF0003E33F807FFBC3DFFEF5
:10070000F0F03C3DEF0007E73C00787BC3DE1EF0D5
:10071000F03C3DEF0007FFBE00787BC3DE1EF0F02B
:100720003C3DEF0007FFFE00787BC3DE1EF0F03C8F
:100730003DEF000FFFFE007FFBFFDFFEF0F03FFD0F
:10074000EFE00FFFFF007FFBFFDFFEF0F03FFDEF6C
:10075000E00FF9FF003E79F9CF9EF0F01F3DE7E092
:100760001FF1FF0000000000000000000000001F5B
:1007700080FF007FFFFFFFFFFFFFFFFFFFE01C0088
:100780007F007FFFFFFFFEB46D888D18E000001F23
:10079000007FFFFFFFFE95AD7DB577E000000F0005
:1007A0007FFFFFFFFEA5AD9D8D19E0000006007FD5
:1007B000FFFFFFFEB5ADEDB57EE0000000000001DB
:1007C0008000000000000000000003800000000026
:1007D000000000000007C000000000000000000052
:1007E00007C00000000000000000000FC000000073
:1007F0000000000000001FE00000000000000000FA
:10080000001FE00000000000000000003FE00000CA
:10081000000000000000003FF000000000000000A9
:1008200000007FF0000000000000001FF87FF000D3
:100830000000000000003FFE7FF00000000000000C
:10084000003FFF7FF0000000000000001FFFFBE002
:10085000000000000000000FFFF9FFC000000000D2
:1008600000000FFFF9FFF800000000000007FFF193
:10087000FFFF00000000000003FC73FFFF8000008A
:1008800000000001FE3FFFFF80000000000000FFAD
:100890001E0FFF000000000000007FFE1FFC000094
:1008A00000000000003FFFFFF80000000000000013
:1008B0000FDFFFE0000000000000001F19FFC00074
:1008C0000000000000003F3CFF00000000000000AE
:1008D000007E7CF800000000000000007FFE7C002D
:1008E00000000000000000FFFFFC0000000000000E
:1008F0000000FFFFFE0000000000000000FFFFFE00
:100900000000000000000001FFEFFE0000000000FA
:10091000000001FFCFFE0000000000000003FF0701
:10092000FE0000000000000003FC07FE00000000C5
:1009300000000003F003FE00000000000000018042
:1009400000FE000000000000000000007E0000002B
:10095000000000000000003E000000000000000059
:1009600000000C000000000000078000FC000003F5
:10097000C0000000078001FC000003C00000000769
:100980008001FC000003C0000000078001E00000BF
:10099000001E000000078001E00000001E007FE351
:1009A000F79FF9FDE7787BDFC0FFF7FFBFFDFDFF95
:1009B000787BDFC0FFF7FFBFFDFDFF787BDFC0F076
:1009C000F787BC3DE1FF787BDE00F0F787BC3DE1B7
:1009D000F0787BDE0000F787803DE1E0787BDE0089
:1009E0007FF7879FFDE1E0787BDE00FFF787BFFDA3
:1009F000E1E0787BDE00F0F787BC3DE1E0787BDE6C
:100A000000F0F787BC3DE1E0787BDE00F0F787BCC3
:100A10003DE1E0787BDE00FFF7FFBFFDE1E07FFB1B
:100A2000DFC0FFF7FFBFFDE1E07FFBDFC07CF3F33A
:100A30009F3DE1E03E7BCFC00000000000000000D1
:100A4000000000FFFFFFFFFFFFFFFFFFFFC0FFFFF2
:100A5000FFFFFD68DB111A31C0FFFFFFFFFD2B5ABE
:100A6000FB6AEFC0FFFFFFFFFD4B5B3B1A33C0FF8C
:100A7000FFFFFFFD6B5BDB6AFDC02200FF21000072
:100A8000AB16DA1A11241FBECFEFD8E0DEBFCDBF00
:100A900011E0A0E0B1E0E8E0F9E302C005900D92BA
:100AA000A83AB107D9F723E0A8EAB1E001C01D9246
:100AB000AF35B207E1F715E0C1E4D5E004C02197F6
:100AC000FE010E94401BC034D107C9F70E942E17B7
:100AD0000C94771C0C940000089508950895AF922B
:100AE000BF92CF92DF92EF92FF920F931F93CF931B
:100AF000DF936C017B018B01040F151FEB015E017D
:100B0000AE18BF08C017D10759F06991D601ED9111
:100B1000FC910190F081E02DC6010995892B79F7B0
:100B2000C501DF91CF911F910F91FF90EF90DF9062
:100B3000CF90BF90AF900895FC01538D448D252F29
:100B400030E0842F90E0821B930B541710F0CF9667
:100B5000089501970895FC01918D828D981761F099
:100B6000A28DAE0FBF2FB11D5D968C91928D9F5FB0
:100B70009F73928F90E008958FEF9FEF0895FC018F
:100B8000918D828D981731F0828DE80FF11D858D42
:100B900090E008958FEF9FEF0895FC01918D228DD5
:100BA000892F90E0805C9F4F821B91098F7399275A
:100BB000089582E792E00E94CD0521E0892B09F497
:100BC00020E0822F089580E090E0892B29F00E9498
:100BD000D90581110C9400000895FC01A48DA80F83
:100BE000B92FB11DA35ABF4F2C91848D90E001966F
:100BF0008F739927848FA689B7892C93A089B1898F
:100C00008C91837080648C93938D848D981306C02F
:100C10000288F389E02D80818F7D80830895EF9293
:100C2000FF920F931F93CF93DF93EC0181E0888FA6
:100C30009B8D8C8D98131AC0E889F989808185FF76
:100C400015C09FB7F894EE89FF896083E889F98918
:100C500080818370806480839FBF81E090E0DF911A
:100C6000CF911F910F91FF90EF900895F62E0B8D6D
:100C700010E00F5F1F4F0F731127E02E8C8D8E1128
:100C80000CC00FB607FCFACFE889F989808185FF8F
:100C9000F5CFCE010E94ED05F1CFEB8DEC0FFD2FCE
:100CA000F11DE35AFF4FF0829FB7F8940B8FEA894A
:100CB000FB8980818062CFCFCF93DF93EC01888D59
:100CC0008823B9F0AA89BB89E889F9898C9185FDC7
:100CD00003C0808186FD0DC00FB607FCF7CF8C9155
:100CE00085FFF2CF808185FFEDCFCE010E94ED051B
:100CF000E9CFDF91CF91089590E0FC01E858FA4FD9
:100D00002491FC01E855FA4F3491FC01EA53FA4F63
:100D1000E491EE23C9F0222339F0233001F1A8F445
:100D2000213019F1223029F1F0E0EE0FFF1FE454D9
:100D3000FA4FA591B4918FB7F894EC91611126C048
:100D400030953E233C938FBF08952730A9F028307B
:100D5000C9F0243049F7809180008F7D03C08091D5
:100D600080008F7780938000DFCF84B58F7784BD3C
:100D7000DBCF84B58F7DFBCF8091B0008F778093E0
:100D8000B000D2CF8091B0008F7DF9CF3E2BDACF6B
:100D9000CF93DF9390E0FC01E855FA4F24918A53FA
:100DA0009A4FFC0184918823D1F090E0880F991F1D
:100DB000FC01E457FA4FA591B491FC01E454FA4FB9
:100DC000C591D49161110EC09FB7F8948C91E22F18
:100DD000E0958E238C932881E223E8839FBFDF91E7
:100DE000CF9108958FB7F894EC91E22BEC938FBFDD
:100DF000F6CF3FB7F89480915D0290915E02A0918A
:100E00005F02B091600226B5A89B05C02F3F19F084
:100E10000196A11DB11D3FBFBA2FA92F982F88277A
:100E2000BC01CD01620F711D811D911D42E0660F55
:100E3000771F881F991F4A95D1F708958F929F9227
:100E4000AF92BF92CF92DF92EF92FF924B015C0183
:100E50000E94F9066B017C010E94F9066C197D095C
:100E60008E099F09683E734081059105A8F321E032
:100E7000821A9108A108B10888EEC80E83E0D81E36
:100E8000E11CF11C81149104A104B10429F7FF9025
:100E9000EF90DF90CF90BF90AF909F908F9008958C
:100EA000EF92FF920F931F93CF93DF93EC01EC80AF
:100EB000FD806E157F050CF070C057FF04C0240F35
:100EC000351F50E040E08E819F81FA01E20FF31F51
:100ED0008E179F071CF49C01241B350B121613065A
:100EE0000CF05BC0922F842F8695869586958E9DFB
:100EF000D0018F9DB00D11246A0F7B1FAF8DB8A15B
:100F0000A60FB71F477049F188E0841B482F682F50
:100F100070E0FB01E059FA4FE491281708F063C034
:100F2000621B71092FEF30E002C0359527956A9555
:100F3000E2F7E2230130110539F0B0F1023011057A
:100F400061F58C91E82702C08C91E82BEC93941703
:100F500020F12C813D81A20FB31FE92FE41BE83063
:100F600078F00230110521F58E2F9C9190959C937D
:100F70002C813D81A20FB31F88508830B0F7E770F5
:100F8000EE2359F0F0E0E859FA4FE49101301105F1
:100F9000F9F010F10230110519F1DF91CF911F9195
:100FA0000F91FF90EF900895E0958C91E823CECFBC
:100FB00081E00115110509F480E081959E2F8C9345
:100FC0002C813D81A20FB31F98509830C0F7D7CF26
:100FD0008C91E82BEC93E1CFE0958C91E823FACF4C
:100FE0008C91E827F7CF0130110509F4ADCFE0F27D
:100FF0000230110509F4A5CFAE0DBF1DAECF0F9382
:101000001F93CF93DF9377FF04C0260F371F70E045
:1010100060E0DC011496CD91DC91FB01E20FF31F3F
:10102000CE17DF071CF49E01261B370B1216130682
:101030004CF5FA0157FD3796A3E0F595E795AA958B
:10104000E1F7EC9FD001ED9FB00DFC9FB00D112496
:101050006A0F7B1FDC015F96ED91FC91E60FF71F95
:101060004770552781E090E001C0880F4A95EAF764
:10107000482F0130110559F0A8F02E0F3F1F023004
:101080001105E1F0DF91CF911F910F9108952E0F7F
:101090003F1FE217F307B1F38191DF011197842B12
:1010A0008C93F7CF80952E0F3F1FE217F30751F374
:1010B0009191DF01119798239C93F7CFE217F307E3
:1010C00009F38191DF01119784278C93F7CF0F9358
:1010D0001F93FA01DC0156964C9156974230E9F085
:1010E0004330A1F1413061F514964D915C91DA01E4
:1010F000AE1BBF0BFD01E21BF30B77FD0BC0DC0148
:1011000016964D915C916417750724F4AB01BF01ED
:101110000E94FF071F910F91089514964D915C91C5
:10112000DA01A61BB70BBD0161507109DC011696EF
:101130004D915C91DA01AE1BBF0BFD01E21BF30B7D
:1011400077FDE8CFAF010E945007E4CF16964D918E
:101150005C91DA01A61BB70BBD0161507109CDCFBF
:101160000F931F93FA01DC0156964C91569742302B
:10117000A9F0433091F1413019F514964D915C91ED
:10118000DA01AE1BBF0BFD013197F7FD04C0AB01C7
:10119000BF010E9450071F910F91089514964D9121
:1011A0005C91DA01A61BB70BBD01DC0116964D91CF
:1011B0005C91DA01AE1BBF0BFD013197621B730B13
:1011C000F7FDE9CFDC0116964D915C91E417F50728
:1011D00014F7AF010E94FF07DECF16964D915C9188
:1011E000DA01A61BB70BBD01621B730BCECFFC014E
:1011F00077FD64C080859185681779070CF05EC023
:1012000057FD5CC082859385481759070CF056C07E
:1012100086898230B1F0833029F1813041F48481B4
:101220009581841B950BAB01BC0161507109213084
:10123000310509F108F443C02230310509F463C0D7
:10124000089584819581DC01A61BB70BBD01615017
:10125000710986819781DC01A41BB50BAD0141505A
:101260005109E5CF86819781861B970BBA01AC01A6
:1012700041505109DCCFCA0157FD0796A3E095956F
:101280008795AA95E1F7A481B5818A9F90018B9FEC
:10129000300D9A9F300D1124620F731F078CF0A13F
:1012A000E02DE60FF71F4770552721E030E001C021
:1012B000220F4A95EAF78081822B80830895CA0124
:1012C00057FD079633E0959587953A95E1F7A48108
:1012D000B5818A9F90018B9F300D9A9F300D11240C
:1012E000620F731F078CF0A1E02DE60FF71F477008
:1012F000552781E090E001C0880F4A95EAF7809574
:1013000090818923DACFCA0157FD079623E095958E
:1013100087952A95E1F7A481B5818A9F90018B9FDB
:10132000300D9A9F300D1124620F731F078CF0A1AE
:10133000E02DE60FF71F4770552721E030E001C090
:10134000220F4A95EAF780818227B7CF08958EBD94
:1013500000000DB407FEFDCF8EB508958CBD9DBD78
:1013600008950895FC016370668B848195812681C0
:101370003781613039F0633029F091878087338776
:1013800022870895318720879387828708952F9237
:101390003F924F925F926F927F928F929F92AF9205
:1013A000BF92CF92DF92EF92FF920F931F93CF9352
:1013B000DF93CDB7DEB76A970FB6F894DEBF0FBEE6
:1013C000CDBF9A8F898F7A8369834A01D22E18877D
:1013D0000F833701BC2CDC0159962D913C915A9713
:1013E0002115310509F015C118968D919C91199719
:1013F000681779070CF0D7C11A968D919C91481700
:1014000059070CF0D0C14C2C512CB6E0CB9E600D8E
:10141000711D11247C876B87161617060CF0C3C14B
:10142000EA2DF0E0FA87E98793E0EE0FFF1F9A9527
:10143000E1F7F88BEF87CF01840F951F1816190677
:101440000CF0B1C1A98DBA8D58968C91811104C050
:10145000BFEABD1508F4D394A98DBA8DED91FC9126
:1014600011970284F385E02DCD010995B5E0DB9E4F
:10147000C0011124E981FA81FC83EB83312C212CFA
:101480009C0128593F4F388F2F8B4A2D50E05E8B9F
:101490004D8BEF89F88DE20DF31D44919E828D8274
:1014A000D12CC12C69817A81620D731D7A8B698B75
:1014B000842F90E09C8B8B8BE98DFA8DA081B1817C
:1014C00040FF82C0F1E0BF126FC0AF126DC01C962A
:1014D000ED91FC912F813885A4014C0D5D1D69892A
:1014E0007A89898D9A8D0995EB89FC89F595E7951F
:1014F0004E2F5FEFC51AD50A6D817E818D899E8939
:10150000680F791F7E836D8398E0C916D10481F638
:10151000AFEF2A1A3A0AEB81FC81E40DF51DFC833A
:10152000EB83F5E02F16310409F0B3CF2F81388516
:1015300026153705B9F0A98DBA8DED91FC91B1E072
:10154000BB1257C0AB1255C069817A816B5F7F4F68
:101550000088F189E02D830128E030E0A401898D25
:101560009A8D0995A98DBA8DED91FC9111970688F8
:10157000F789E02DCD016A960FB6F894DEBF0FBE55
:10158000CDBFDF91CF911F910F91FF90EF90DF9032
:10159000CF90BF90AF909F908F907F906F905F9013
:1015A0004F903F902F9009941E96ED91FC91EF8003
:1015B000F88409851A8592014D815E816B817C8159
:1015C000898D9A8D099590CF2F81388526153705FD
:1015D00009F48ACF31E0B31207C0A31205C01C96EC
:1015E000ED91FC91930178CF1E96ED91FC917301E2
:1015F000E0CF6B857C85641975090684F785E02D3D
:1016000073010F8518899201A401898D9A8D09951E
:10161000A9CFF90134969491329745915491D91AF2
:10162000B7E0DB9E400D511D1124F9012591349145
:101630003C8B2B8BFA0125903490FA0132967490F2
:1016400031963491398B329664903196449041E0D2
:101650004C1518F04A1508F07FC0662D062C000CBA
:10166000770B7C836B83842D042C000C990B9E8359
:101670008D83A98DBA8DED91FC9111970284F3852C
:10168000E02DCD010995512CD12CC12CEA2DF0E093
:10169000FA87E9872B2D30E03C872B87A401440D86
:1016A000511D47FC5A95588F4F8B69817A81660D81
:1016B000711D67FC7A957E876D877989C71608F05A
:1016C00051CF2C2D30E04D815E81420F531FA985F3
:1016D000BA854A9FC0014B9F900D5A9F900D1124CF
:1016E000FC01E80DF91DF88BEF87852D612C4F89E2
:1016F000588D420F531F5E8B4D8B671408F050C0FE
:1017000044244394480E877041F4C1010196EB894B
:10171000FC89E20DF31DD4901C01D7FE19C0A98DE0
:10172000BA8DED91FC91662D70E0B1E0BB1219C04D
:10173000AB1217C02D853E85620F731F0484F5859B
:10174000E02D2F8138854D895E89898D9A8D099587
:10175000DD0C6394842DD1CF1E821D821C821B82DE
:1017600088CF4B815C81640F751FAB85BC856A9FF8
:10177000C0016B9F900D7A9F900D112469817A8131
:10178000680F791F0684F785E02DEF80F8840985BE
:101790001A859D014F855889898D9A8D0995D8CFD5
:1017A000570CC3948ACF6A960FB6F894DEBF0FBE6B
:1017B000CDBFDF91CF911F910F91FF90EF90DF9000
:1017C000CF90BF90AF909F908F907F906F905F90E1
:1017D0004F903F902F9008958F929F92AF92CF920B
:1017E000EF92FF920F931F93CF93DF93EC01262F7D
:1017F000898D9A8D009709F051C06A30D1F41D8609
:101800001C868D8948E0849F900111248E859F85D8
:10181000820F931F9F878E8781E090E0DF91CF91A9
:101820001F910F91FF90EF90CF90AF909F908F906E
:1018300008956D3089F3CC88AD888F898823C1F0F5
:101840008C859D8536E0C39E800D911D11244885B1
:1018500059854817590764F44E855F851D861C8697
:1018600038E0A39EC0011124840F951F9F878E87A7
:10187000EA88FB88088919894E855F856C857D8596
:10188000CE010E94C7092C898C859D8546E0249F46
:10189000800D911D11249D878C87BECF6A3069F41D
:1018A0001D861C86FC013896E4912D898E859F85C6
:1018B000E29F800D911D1124ADCF6D3009F4ACCFA6
:1018C000FC0134963491631708F4A6CF3296E49164
:1018D000E61708F4A1CFFC01329685909490462F2C
:1018E000431B342F47E0349F800C911C1124F401DA
:1018F000329634913196E4913323A9F1EE2399F194
:10190000CC88F4013596E491AD884F89442301F1E8
:101910000E2E000CFF0BE30FF11DCE9EA001CF9EFB
:10192000500D11246C857D85460F571F688579857C
:10193000641775076CF44E855F851D861C86FC0157
:101940003896E491AE9E400D511D11245F874E875D
:10195000EA88FB88088919894E855F856C857D85B5
:10196000CE010E94C709F4013496E4912C898C853C
:101970009D85E29F800D911D11248DCF6F927F92E6
:101980008F929F92AF92BF92CF92DF92EF92FF928F
:101990000F931F93CF93DF93EC016B015A01390131
:1019A0004801E881F9810284F385E02D0995E881F9
:1019B000F9810288F389E02D87019301A501B60121
:1019C000CE010995A501480D591D41505109E881E5
:1019D000F9810288F389E02D9301B601CE010995C2
:1019E000E881F9810088F189E02D9401A501B60113
:1019F000CE010995C60CD71CB60161507109E8816A
:101A0000F9810088F189E02D9401A501CE010995A5
:101A1000E881F9810688F789E02DCE01DF91CF9129
:101A20001F910F91FF90EF90DF90CF90BF90AF90FC
:101A30009F908F907F906F9009946F927F928F927A
:101A40009F92AF92BF92CF92DF92EF92FF920F934D
:101A50001F93CF93DF935C01EB016A0149013801C9
:101A60008701DC01ED91FC916217730719F564168B
:101A700075062CF0962D872D3A01C92ED82E960189
:101A8000261937092F5F3F4F048CF58DE02DA301F8
:101A9000BE01C5010995DF91CF911F910F91FF9074
:101AA000EF90DF90CF90BF90AF909F908F907F90FE
:101AB0006F9008954615570591F42617370724F0BF
:101AC000892D4B01C22FD82F9E01281939092F5F6C
:101AD0003F4F068CF78DE02DA601B401DACF0284CA
:101AE000F385E02D0995D501ED91FC910488F589E8
:101AF000E02D83019401A601BE01C5010995D50120
:101B0000ED91FC910688F789E02DC501DF91CF9119
:101B10001F910F91FF90EF90DF90CF90BF90AF900B
:101B20009F908F907F906F900994EF92FF920F9308
:101B30001F93DC011A960D911C911B9718962D91FD
:101B40003C911997ED91FC9100A0F1A1E02D7B0152
:101B500050E040E070E060E009951F910F91FF9028
:101B6000EF9008954F925F926F927F928F929F9223
:101B7000AF92BF92CF92DF92EF92FF920F931F939B
:101B8000CF93DF936C012B015A0139014801DC012D
:101B9000ED91FC910284F385E02D0995E201640C3E
:101BA000751CD601ED91FC91C615D7055CF4008833
:101BB000F189E02D87019401A501BE01C6010995B7
:101BC0002196EFCF0688F789E02DC601DF91CF91EE
:101BD0001F910F91FF90EF90DF90CF90BF90AF904B
:101BE0009F908F907F906F905F904F9009948F920D
:101BF0009F92AF92BF92CF92DF92EF92FF920F939C
:101C00001F93CF93DF93EC015B014A016901E881E7
:101C1000F9810284F385E02D099595012C0D3D1D78
:101C200021503109E881F9810488F589E02D780196
:101C30008401A401B501CE010995E881F9810688E6
:101C4000F789E02DCE01DF91CF911F910F91FF9089
:101C5000EF90DF90CF90BF90AF909F908F900994BE
:101C60008F929F92AF92BF92CF92DF92EF92FF92AC
:101C70000F931F93CF93DF93EC015B014A0169013E
:101C80007801E881F9810284F385E02D0995C80C7B
:101C9000D91C860101501109E881F9810488F58970
:101CA000E02D9501A401B501CE010995E881F981E6
:101CB0000688F789E02DCE01DF91CF911F910F911A
:101CC000FF90EF90DF90CF90BF90AF909F908F905C
:101CD0000994EF92FF920F931F93DC01ED91FC9119
:101CE00000A0F1A1E02D09951F910F91FF90EF90B9
:101CF00008950F931F93DC01ED91FC91068CF78DF5
:101D0000E02D09951F910F9108950F931F93DC010A
:101D1000ED91FC91048CF58DE02D09951F910F91AB
:101D20000895DC01ED91FC910084F185E02D09948A
:101D30003F924F925F926F927F928F929F92AF925B
:101D4000BF92CF92DF92EF92FF920F931F93CF93A8
:101D5000DF935C017B014A016901390187E0680E6C
:101D6000711C93E0759467949A95E1F72B01400EEE
:101D7000511E10E000E0312CD0E0C0E0CE018770B1
:101D80009927330C892B59F4FE0183E0F595E795EB
:101D90008A95E1F7E00FF11FE80DF91D349037FE49
:101DA0000AC021E030E0A701B5016C0F7D1F8BE177
:101DB00093E00E94910E2196CC16DD06F9F68FEF86
:101DC000E81AF80A060D171DE414F504A9F6DF91C8
:101DD000CF911F910F91FF90EF90DF90CF90BF9028
:101DE000AF909F908F907F906F905F904F903F90BB
:101DF00008952F923F924F925F926F927F928F92AF
:101E00009F92AF92BF92CF92DF92EF92FF920F9389
:101E10001F93CF93DF9300D000D000D0CDB7DEB7B3
:101E20003C016A013E832D83FC82EB825801A41A97
:101E3000B50AB7FE03C0B194A194B1088D809E800D
:101E4000861A970A97FE03C09194819491088A1488
:101E50009B045CF0902F812F0D811E819D838E83CA
:101E60009C2D8D2D6B01692F782F0C151D055CF0B5
:101E70009D818E817E836D83692F782F902F812F96
:101E80008601C92ED82E1601201A310A2B012D8168
:101E90003E81421A530A57FE03C05194419451089F
:101EA000710137FE03C03FEFE31AF30AF594E7949C
:101EB0008D819E81861797075CF5A1E0B0E0BA831B
:101EC000A983C016D1064CF1D301ED91FC91048495
:101ED000F585E02D2B813C81A8016D817E818A14DE
:101EE0009B041CF04D815E81B801C3010995E41883
:101EF000F508F7FE0AC02D813E8189819A81280F5D
:101F0000391F3E832D83E20CF31C0F5F1F4FD9CF87
:101F10002FEF3FEF3A832983D4CF26960FB6F8945C
:101F2000DEBF0FBECDBFDF91CF911F910F91FF900C
:101F3000EF90DF90CF90BF90AF909F908F907F9069
:101F40006F905F904F903F902F900895089520914B
:101F50000E02260F3327331F21323105ECF4209176
:101F60003202FC0190E080E0243069F082E00895C4
:101F7000A0910E022191AC0142515E4FA40FB52FEA
:101F8000B11D2C930196861798F380910E02680F6D
:101F900060930E0280E0089581E00895109232026D
:101FA00081E0809334021092330261E082E10E946A
:101FB0007C0661E083E10E947C06E9EBF0E0808131
:101FC0008E7F808380818D7F808388E48093B800BA
:101FD00085E48093BC000895CF93DF9391E09093C4
:101FE000ED018823B9F0C091B800D091BA0080917A
:101FF000BC008A7B8093BC0060E082E10E947C068A
:1020000060E083E10E947C060E94CE0FD093BA006C
:10201000C093B800DF91CF910895E091670280915D
:102020006602E81730F4F0E0E853FE4F808190E05C
:1020300008958FEF9FEF0895909167028091660257
:102040002FEF3FEF981748F4E92FF0E0E853FE4FE9
:10205000208130E09F5F90936702C90108958091CD
:10206000660290916702891B990B0895CF92DF92C7
:10207000EF92FF920F931F93CF93DF937C01CB01DD
:102080008A0120917102222389F0EB016B01C40EB9
:10209000D51ECC15DD0569F06991D701ED91FC9154
:1020A0000190F081E02DC7010995F3CF642F0E94C4
:1020B000A70FC801DF91CF911F910F91FF90EF9073
:1020C000DF90CF900895CF93DF931F92CDB7DEB707
:1020D0006983209171022223F9F020916E0220324F
:1020E00058F021E030E0FC013383228390E080E06F
:1020F0000F90DF91CF91089580916F02E82FF0E06B
:10210000E855FE4F998190838F5F80936F02809393
:102110006E0281E090E0ECCF61E0CE0101960E947A
:10212000A70FF7CFCF92DF92EF92FF920F931F93FB
:10213000CF93DF93D0916E0281E0D13208F09CC042
:10214000C09170020E94F9066B017C0180913202FD
:1021500081116CC082E08093320281E0809334026E
:102160008FEF8093310210925602D0935502A8EA65
:10217000B1E0E5E3F2E080E0D8138DC010925702A1
:1021800080915702CC0FC82BC09357028091330225
:10219000813009F084C0109233020E94F9066B016D
:1021A0007C01809157028093BB008091E90190915E
:1021B000EA01A091EB01B091EC01892B8A2B8B2BCA
:1021C000A1F00E94F9060091E9011091EA01209125
:1021D000EB013091EC016C197D098E099F090617FE
:1021E00017072807390708F442C08091BC0083FD17
:1021F000D8CF85EC8093BC000E94F9066B017C016E
:1022000080913202823009F44CC0809131028F3FBC
:1022100009F469C080913102803209F466C080916E
:102220003102803309F463C084E026C08091E90163
:102230009091EA01A091EB01B091EC01892B8A2BDE
:102240008B2B09F483CF0E94F9060091E9011091CC
:10225000EA012091EB013091EC016C197D098E09A6
:102260009F09061717072807390708F06FCF8091D5
:10227000E8010E94EC0F85E010926F0210926E024E
:1022800010927102DF91CF911F910F91FF90EF900B
:10229000DF90CF9008959D9191938F5F6DCF85EEE4
:1022A000A9CF8091E9019091EA01A091EB01B09151
:1022B000EC01892B8A2B8B2B09F4A2CF0E94F90603
:1022C0000091E9011091EA012091EB013091EC01BC
:1022D0006C197D098E099F0906171707280739070A
:1022E00008F08ECFC4CF80E0C7CF82E0C5CF83E0B7
:1022F000C3CFEF92FF920F931F93CF93DF937C0195
:10230000C62F8091380390913903009709F459C082
:1023100020913C0331E030937102209370021092BF
:102320006F0210926E02DC01ED91FC910190F08140
:10233000E02D60E009958701EE24E394F12CD1E0D3
:10234000C1508091380390913903CF3F91F1B0E2B1
:10235000EB16F104D8F00E9492108091380390910E
:10236000390320913C03D0937102209370021092A4
:102370006F0210926E02DC01ED91FC910190F081F0
:10238000E02D60E00995EE24E394F12C8091380370
:1023900090913903F8016491DC01ED91FC91019079
:1023A000F081E02D0995BFEFEB1AFB0A0F5F1F4F7D
:1023B000C7CFDF91CF911F910F91FF90EF900C94B9
:1023C0009210E0914803F0914903908180914E036F
:1023D0008095892380838701C15008F438C0F801B3
:1023E00084912091360330913703232B29F00E94EA
:1023F000A7090F5F1F4FF0CF28E030E040E8E091E1
:102400004403F091450390914C03582F5423D9F085
:102410005081952B9083E0914603F0914703908182
:1024200050914D03952B9083E0914603F091470323
:10243000508190914D03909595239083469521501E
:102440003109E9F6D6CF508190959523E3CFDF91FE
:10245000CF911F910F91FF90EF9008951F93CF930D
:10246000DF93EC018D8D9E8D009721F1162F29A110
:1024700031E0309371022093700210926F0210923B
:102480006E02DC01ED91FC910190F081E02D60E0A5
:1024900009958D8D9E8DDC01ED91FC910190F0816F
:1024A000E02D612F09958D8D9E8DDF91CF911F912C
:1024B0000C949210ADA5BEA59C918BA98095892303
:1024C0008C938B8D9C8D892B31F0862FDF91CF9152
:1024D0001F910C94A70928E030E080E8A9A5BAA5CF
:1024E00099A9462F4823C1F04C91942B9C93ABA5FE
:1024F000BCA59C914AA9942B9C93ABA5BCA54C91DF
:102500009AA9909594239C9386952150310931F78F
:10251000DF91CF911F9108954C9190959423E6CF30
:10252000DF92EF92FF920F931F93CF93DF938091EF
:10253000380390913903892B09F498C020915003F6
:1025400030915103409152035091530360E074E283
:1025500084EF90E00E94081B205131094109510984
:1025600056954795379527952093B80065E08AE7FB
:102570009AE00E94791160911F0361508BE193E012
:102580000E942E122091210330912203C901079647
:1025900097FD079633E0959587953A95E1F7209159
:1025A0001F0330912003829F8001839F100D929F13
:1025B000100D1124C0913A03D0913B038091380350
:1025C000909139030C0F1D1F009709F48FC02091C3
:1025D0003C0331E0309371022093700210926F023D
:1025E00010926E02DC01ED91FC910190F081E02DE2
:1025F00060E40995EE24E394F12CDD24D3948091DA
:102600003803909139030C171D0709F446C0B0E256
:10261000EB16F104D8F00E9492108091380390914B
:10262000390320913C03D0927102209370021092E2
:102630006F0210926E02DC01ED91FC910190F0812D
:10264000E02D60E40995EE24E394F12C80913803A9
:10265000909139036991DC01ED91FC910190F08139
:10266000E02D0995BFEFEB1AFB0AC9CF8091360325
:1026700090913703892B31F08091590390915A033F
:102680000E94AE09E0914A03F0914B039081809142
:102690004F0380958923808369CF0E949210809197
:1026A000380390913903892B09F461C020915403B8
:1026B00030915503409156035091570360E074E206
:1026C00084EF90E00E94081B205131094109510913
:1026D00056954795379527952093B800DF91CF9170
:1026E0001F910F91FF90EF90DF900895E0914803C4
:1026F000F0914903808190914E03892B80830C17C0
:102700001D0769F289912091360330913703232BFD
:1027100019F00E94A709F3CF28E030E040E8E091EB
:102720004403F091450390914C03582F5423D9F062
:102730005081952B9083E0914603F091470390815F
:1027400050914D03952B9083E0914603F091470300
:10275000508190914D0390959523908346952150FB
:102760003109E9F6CCCF508190959523E3CFE091E4
:102770004A03F0914B03808190914F03892B808312
:10278000ADCF1F93CF93DF93EC01162F8D8D9E8DD0
:10279000892BB1F12DA93EA94FA958AD60E074E293
:1027A00084EF90E00E94081B205131094109510932
:1027B00056954795379527952093B80066EA1111ED
:1027C00067EACE010E942E128D8D9E8D892B41F1DC
:1027D00029AD3AAD4BAD5CAD60E074E284EF90E0C2
:1027E0000E94081B2051310941095109569547950E
:1027F000379527952093B800DF91CF911F910895C9
:102800008B8D9C8D892B21F08EAD9FAD0E94AE09E2
:10281000EFA5F8A990818CA9809589238083CECFDC
:10282000EFA5F8A980819CA9892B8083E5CF90E052
:1028300080E008952091210330912203C901079679
:1028400097FD079623E0959587952A95E1F72091C6
:102850001F0330912003829FA001839F500D929F00
:10286000500D112470E060E080913A0390913B0399
:102870000C94701C0E946B1CFB0101900020E9F776
:102880003197AF01461B570BDC01ED91FC910280A3
:10289000F381E02D09948F929F92AF92BF920F9394
:1028A0001F93CF93DF93CDB7DEB7A1970FB6F89400
:1028B000DEBF0FBECDBF19A2423008F44AE08E0140
:1028C0000F5D1F4F842E912CB12CA12CA5019401DA
:1028D0000E94081BE62FB901CA01EA3004F5E05D49
:1028E000D801EE938D01232B242B252B79F790E033
:1028F00080E0109729F0BD0182E792E00E943C142D
:10290000A1960FB6F894DEBF0FBECDBFDF91CF9179
:102910001F910F91BF90AF909F908F900895E95CA9
:10292000DFCFCF92DF92EF92FF92CF93DF936B01D5
:102930007C016DE282E792E00E940F06EC016627BF
:102940007727CB016C197D098E099F094AE00E9407
:102950004B148C0F9D1FDF91CF91FF90EF90DF9074
:10296000CF90089585ED8093BC008091E90190910E
:10297000EA01A091EB01B091EC010796A11DB11DF8
:1029800023E0B695A795979587952A95D1F720913D
:10299000BC0024FD03C01092320208954091E90169
:1029A0005091EA016091EB017091EC01452B462BAF
:1029B000472B69F30097A105B10541F025E32A955E
:1029C000F1F700000197A109B109E1CF8091E80179
:1029D0000C94EC0F1F920F920FB60F9211242F93AD
:1029E0003F934F935F936F937F938F939F93AF9397
:1029F000BF93EF93FF9382E792E00E94ED05FF9172
:102A0000EF91BF91AF919F918F917F916F915F9166
:102A10004F913F912F910F900FBE0F901F901895DF
:102A20001F920F920FB60F9211242F938F939F93A3
:102A3000EF93FF93E0918202F09183028081E09115
:102A40008802F091890282FD1BC0908180918B02E7
:102A50008F5F8F7320918C02821741F0E0918B027F
:102A6000F0E0EE58FD4F958F80938B02FF91EF9130
:102A70009F918F912F910F900FBE0F901F901895DF
:102A80008081F4CF1F920F920FB60F9211242F93D3
:102A90003F938F939F93AF93BF93809159029091EF
:102AA0005A02A0915B02B0915C023091580223E07F
:102AB000230F2D3758F50196A11DB11D2093580203
:102AC0008093590290935A02A0935B02B0935C02E8
:102AD00080915D0290915E02A0915F02B0916002D0
:102AE0000196A11DB11D80935D0290935E02A0939B
:102AF0005F02B0936002BF91AF919F918F913F9120
:102B00002F910F900FBE0F901F90189526E8230F5E
:102B10000296A11DB11DD2CF1F920F920FB60F9238
:102B200011242F933F934F935F936F937F938F93D2
:102B30009F93AF93BF93EF93FF938091B900887FEA
:102B4000803609F44AC0F0F5883209F4A7C018F5B8
:102B5000803109F49BC0B8F4882309F4F9C08830A7
:102B600009F494C0FF91EF91BF91AF919F918F9124
:102B70007F916F915F914F913F912F910F900FBE79
:102B80000F901F901895883109F488C0803251F752
:102B90008093310214C0803409F49DC040F4803326
:102BA000B9F38833F9F68093310285ECB0C08035F3
:102BB00009F485C0883509F496C0883499F60E94D6
:102BC000B214D0CF883909F48CC038F5883729F091
:102BD00050F4883611F0803729F683E08093320272
:102BE0001092300257C0883809F47BC0803919F040
:102BF000803809F0B7CF80913002803208F071C080
:102C0000E091300281E08E0F809330028091BB0012
:102C1000F0E0E05FFD4F80833DC0803B39F0E0F4A1
:102C2000803A09F479C0883A09F09CCF84E0809317
:102C3000320210920F0210920E02E0916402F091A3
:102C40006502099580910E0281110FC081E0809389
:102C50000E021092EE0109C0803C09F4A6CF883C18
:102C600009F4A3CF883B09F07DCFE0910F0281E00A
:102C70008E0F80930F02F0E0E251FE4F808180932F
:102C8000BB0090910F0280910E0229C080915702E3
:102C90008093BB0085EC8093BC0064CF909156027A
:102CA00080915502981758F5E091560281E08E0FF9
:102CB00080935602F0E0EB5CFD4F8081E9CFE0911C
:102CC000560281E08E0F809356028091BB00F0E0A7
:102CD000EB5CFD4F808390915602809155029817CE
:102CE000C8F285E8D8CFE091560281E08E0F80933C
:102CF00056028091BB00F0E0EB5CFD4F8083809139
:102D0000340281115CCF81E08093330284EA8093A6
:102D1000BC001092320226CF85EC8093BC0010924A
:102D2000320280913002803230F4E0913002F0E0E3
:102D3000E05FFD4F10826091300270E0E09162022E
:102D4000F091630280E192E00995109230020ACF7F
:102D50001092310234CFE2E7F2E01382128248EEA1
:102D600053E060E070E044835583668377838AE0B4
:102D700091E09183808385EC90E09587848784EC53
:102D800090E09787868780EC90E0918B808B81EC38
:102D900090E0938B828B82EC90E0958B848B86EC19
:102DA00090E0978B868B118E128E138E148EAFE06F
:102DB000B3E013961C921E92129714964D935D9356
:102DC0006D937C9317978CE191E011969C938E9371
:102DD000EBE1F3E01382128220E830E035832483B4
:102DE00080E490E09783868331872087938782876A
:102DF000168A158614861786168681E0858B848B45
:102E00002FEF3FEF338B228B318B208B878B108EF4
:102E1000128E118E8EE291E091838083148E138E38
:102E2000B68FA58F10A2178E8FEF84A385A386A3DC
:102E300087A380A780E89AE1A6E0B0E085AB96ABD7
:102E4000A7ABB0AF80EA96E8A1E0B0E081AF92AF67
:102E5000A3AFB4AF80E586AF17AE0895789484B57C
:102E6000826084BD84B5816084BD85B5826085BD86
:102E700085B5816085BD80916E00816080936E0014
:102E80001092810080918100826080938100809106
:102E900081008160809381008091800081608093B7
:102EA00080008091B10084608093B1008091B00077
:102EB00081608093B00080917A00846080937A0072
:102EC00080917A00826080937A0080917A0081609C
:102ED00080937A0080917A00806880937A001092C3
:102EE000C100E0918202F091830282E08083E09150
:102EF0007E02F0917F021082E0918002F0918102C7
:102F00008FEC808310928A02E0918602F091870212
:102F100086E08083E0918402F09185028081806167
:102F20008083E0918402F0918502808188608083B3
:102F3000E0918402F0918502808180688083E09135
:102F40008402F091850280818F7D808360E08EE035
:102F50000E94C80680913A0390913B03892B71F53A
:102F60002091210330912203C901079697FD07960E
:102F7000B3E095958795BA95E1F720911F033091BD
:102F80002003AC01429FC001439F900D529F900DC2
:102F900011240E94461B90933B0380933A03892B94
:102FA00069F466E571E082E792E00E943C1467E70D
:102FB00071E082E792E00E943C14FFCF0E941A1455
:102FC000209121033091220380911F0390912003CF
:102FD000B901213231050CF4DCC16054710977FF6D
:102FE00002C06F5F7F4F759567958255910997FD78
:102FF000019600E410E022E530E04AEB57E09595B9
:1030000087950E94980E82E080933D03809138035B
:1030100090913903892B09F4CFC18CE380933C0351
:10302000109267021092660210926F0210926E0266
:103030000E94CE0F8DE695E0909365028093640226
:103040008EE695E090936302809362028091430341
:1030500087FD1EC061E00E94C80661E080914303C5
:103060000E947C0661E070E080E090E00E941E0714
:1030700060E0809143030E947C066AE070E080E09B
:1030800090E00E941E0761E0809143030E947C064D
:103090008091380390913903892B09F44CC2209117
:1030A000500330915103409152035091530360E01B
:1030B00074E284EF90E00E94081B2051310941091D
:1030C000510956954795379527952093B80064E0A8
:1030D00084EA95E00E9479116091210361508BE1AF
:1030E00093E00E942E1264E080EA95E00E9479113C
:1030F00080913D0364E1813009F460E18BE193E06C
:103100000E942E1264E08CE995E00E9479118FE80C
:103110008093580380911F0390912003803891057C
:1031200009F022C2809121039091220380349105FD
:1031300009F02AC280913D03813009F413C28FEC5B
:1031400080935803C2E16AED8BE193E00E942E1256
:103150006C2F8BE193E00E942E1261E88BE193E0EB
:103160000E942E12609158038BE193E00E942E1270
:1031700069ED8BE193E00E942E1280913D0361EF97
:10318000813009F462E28BE193E00E942E1266E046
:1031900086E995E00E947911809138039091390376
:1031A000892B09F4F5C120915403309155034091C6
:1031B00056035091570360E074E284EF90E00E9460
:1031C000081B2051310941095109569547953795FA
:1031D00027952093B8000E941A1481E080932F0352
:1031E0008093300381E090E090932E0380932D0331
:1031F00090932C0380932B030E949012EE24E3946F
:10320000F12C0EE310E020E830E04EE350E070E0F7
:1032100060E08BE193E00E941D0D00E410E030E0DF
:1032200020E050E040E070E060E08BE193E00E943D
:103230001D0D8AE590E0909328038093270388E38F
:1032400090E090932A03809329036AE771E08BE171
:1032500093E00E943C1410922803109227031092CE
:103260002A031092290360E871E08BE193E00E9449
:103270003C140E949012D0E0C0E090E4992ECC243F
:10328000CA9423E0D22EE12CF12C35E0832E0EE3FC
:1032900010E090927C0080917A00806480937A00A4
:1032A00080917A0086FDFCCF80917800A090790013
:1032B000BA2CA82EB0926D02A0926C022EE330E0E0
:1032C000D5010E94391BA70196010E94E91A30938B
:1032D0006B0220936A028A9CC0018B9C900D112482
:1032E00097FF02C081509C4F892F880F880B9595BE
:1032F0009595909368028093690266E871E082E791
:1033000092E00E943C1460916C0270916D02072E55
:10331000000C880B990B97FF45C10E94911469E935
:1033200071E082E792E00E943C146EE971E082E76E
:1033300092E00E943C146091680270916902072E2D
:10334000000C880B990B97FF31C10E94911467E71D
:1033500071E082E792E00E943C1480916A029091B1
:103360006B02A801481B590B21E030E0BE018BE144
:1033700093E00E94F7080E9490126AE070E080E0FB
:1033800090E00E941E072196C038D10509F081CF38
:10339000FFCF6052710977FF02C06F5F7F4F759555
:1033A00067958357910997FD019600E210E023E7A6
:1033B00030E04AED55E023CE61E0809141030E9468
:1033C000C80661E0809142030E94C80680914103D3
:1033D000082E000C990BFC01EA53FA4FE491F0E03F
:1033E000EE0FFF1FE454FA4F2591349130934903B7
:1033F00020934803FC01E855FA4FE491E0934E0313
:1034000080914203082E000C990BFC01EA53FA4FFD
:10341000E491F0E0EE0FFF1FE454FA4FA591B49150
:10342000B0934B03A0934A03FC01E855FA4FE49193
:10343000E0934F038C91E82BEC93809136039091AD
:103440003703892B09F434C0CFB7F8948091610217
:10345000811127C0E0EDF5E08491E2EBF5E0949175
:10346000E82FF0E0EE0FFF1FE457FA4FA591B4915B
:10347000EC91E92321F461E08AE00E947C0661E09E
:103480008AE00E94C8068CB580618CBD8CB58064D2
:103490008CBD61E08DE00E94C80661E08BE00E9477
:1034A000C806809161028F5F80936102CFBFCECD4D
:1034B00061E080913F030E94C80661E08091400373
:1034C0000E94C80680913F03082E000C990BFC0156
:1034D000EA53FA4FE491F0E0EE0FFF1FE454FA4F85
:1034E000259134913093450320934403FC01E85522
:1034F000FA4FE491E0934C0380914003082E000CB6
:10350000990BFC01EA53FA4FE491F0E0EE0FFF1F34
:10351000E454FA4FA591B491B0934703A0934603A6
:10352000FC01E855FA4FE491E0934D038C91E0954E
:10353000E823EC938BCD8091360390913703892B50
:1035400031F08091590390915A030E94AE09E091A5
:103550004A03F0914B03908180914F03809589231A
:103560008083B5CD8FE9ECCD8036910569F48091EB
:10357000210390912203409739F480913D038130DB
:1035800029F08FEA80935803C2E0DDCD80E1FACFC5
:10359000E0914A03F0914B03808190914F03892B76
:1035A000808319CE4AE00E944B14B9CE4AE00E94B3
:1035B0004B14CDCE8EE291E090931C0380931B03BD
:1035C00080913A0390913B03009711F00C94E21B19
:1035D0000895052E97FB1EF400940E94001B57FDD2
:1035E00007D00E94081B07FC03D04EF40C94001B6C
:1035F00050954095309521953F4F4F4F5F4F08951F
:1036000090958095709561957F4F8F4F9F4F08954E
:10361000A1E21A2EAA1BBB1BFD010DC0AA1FBB1FD6
:10362000EE1FFF1FA217B307E407F50720F0A21B48
:10363000B30BE40BF50B661F771F881F991F1A94B5
:1036400069F760957095809590959B01AC01BD01DF
:10365000CF010895A29FB001B39FC001A39F700D39
:10366000811D1124911DB29F700D811D1124911D8A
:1036700008950E942A1BB7FF0895821B930B08959B
:10368000EE0FFF1F0590F491E02D09940F931F9307
:10369000CF93DF938230910510F482E090E0E091C7
:1036A0005D03F0915E0330E020E0B0E0A0E03097F1
:1036B00099F42115310509F44AC0281B390B24302F
:1036C0003105D8F58A819B816115710589F1FB016E
:1036D00093838283FE0111C0408151810281138155
:1036E00048175907E0F04817590799F4109761F007
:1036F00012960C93129713961C933296CF01DF917A
:10370000CF911F910F91089500935D0310935E0375
:10371000F4CF2115310551F04217530738F0A901B4
:10372000DB019A01BD01DF01F801C1CFEF01F9CF43
:1037300090935E0380935D03CDCFFE01E20FF31FF4
:10374000819391932250310939832883D7CF2091D7
:103750005B0330915C03232B41F4209102013091F3
:10376000030130935C0320935B03209100013091AF
:1037700001012115310541F42DB73EB740910401F7
:1037800050910501241B350BE0915B03F0915C0324
:10379000E217F307A0F42E1B3F0B2817390778F028
:1037A000AC014E5F5F4F2417350748F04E0F5F1F87
:1037B00050935C0340935B03819391939FCFF0E020
:1037C000E0E09CCFCF93DF930097E9F0FC013297C4
:1037D00013821282A0915D03B0915E03ED0130E08F
:1037E00020E01097A1F420813181820F931F209156
:1037F0005B0330915C032817390709F061C0F0932F
:103800005C03E0935B03DF91CF910895EA01CE174B
:10381000DF07E8F54A815B819E0141155105B1F74B
:10382000E901FB83EA8349915991C40FD51FEC1735
:10383000FD0761F4808191810296840F951FE90153
:1038400099838883828193819B838A83F0E0E0E07F
:1038500012968D919C9113970097B9F52D913C91FB
:103860001197CD010296820F931F20915B03309137
:103870005C032817390739F6309751F510925E032B
:1038800010925D03B0935C03A0935B03BCCFD38322
:10389000C28340815181840F951FC817D90761F4F5
:1038A0004E5F5F4F88819981480F591F5183408334
:1038B0008A819B81938382832115310509F0B0CFE2
:1038C000F0935E03E0935D039ECFFD01DC01C0CF6A
:1038D00013821282D7CF81E090E0F8940C94771C89
:1038E000DC0101C06D9341505040E0F7089515E0B0
:1038F000C1E4D5E004C0FE010E94401B2196C23401
:10390000D107C9F7F894FFCF00005F0380000000E3
:1039100000000F066F059C055C06CD05AB05BF05D5
:10392000000000006310361017146C052F101C10D7
:103930000D1000000000EC0B6F051714A60FF70820
:103940006C05910E690E850E790EF90E6C05B209A3
:10395000C1136708B008B20D950D1D0DBE0C4E6F5A
:1039600020736520656E6375656E747261206C618D
:103970002070616E74616C6C61204F4C4544000D89
:103980000A00456A65207800456A6520790056611D
:103990006C6F7220416E616CC3B36769636F3A20CC
:1039A00000202D2D2000566F6C74616A653A20004E
:107E0000112484B714BE81FFF0D085E080938100F7
:107E100082E08093C00088E18093C10086E0809377
:107E2000C20080E18093C4008EE0C9D0259A86E02C
:107E300020E33CEF91E0309385002093840096BBD3
:107E4000B09BFECF1D9AA8958150A9F7CC24DD24C4
:107E500088248394B5E0AB2EA1E19A2EF3E0BF2EE7
:107E6000A2D0813461F49FD0082FAFD0023811F036
:107E7000013811F484E001C083E08DD089C08234E0
:107E800011F484E103C0853419F485E0A6D080C0E4
:107E9000853579F488D0E82EFF2485D0082F10E0AE
:107EA000102F00270E291F29000F111F8ED06801E7
:107EB0006FC0863521F484E090D080E0DECF843638
:107EC00009F040C070D06FD0082F6DD080E0C81688
:107ED00080E7D80618F4F601B7BEE895C0E0D1E017
:107EE00062D089930C17E1F7F0E0CF16F0E7DF06D8
:107EF00018F0F601B7BEE89568D007B600FCFDCFD4
:107F0000A601A0E0B1E02C9130E011968C91119780
:107F100090E0982F8827822B932B1296FA010C0160
:107F200087BEE89511244E5F5F4FF1E0A038BF0790
:107F300051F7F601A7BEE89507B600FCFDCF97BE46
:107F4000E89526C08437B1F42ED02DD0F82E2BD052
:107F50003CD0F601EF2C8F010F5F1F4F84911BD097
:107F6000EA94F801C1F70894C11CD11CFA94CF0C13
:107F7000D11C0EC0853739F428D08EE10CD085E9AC
:107F80000AD08FE07ACF813511F488E018D01DD067
:107F900080E101D065CF982F8091C00085FFFCCF94
:107FA0009093C60008958091C00087FFFCCF809118
:107FB000C00084FD01C0A8958091C6000895E0E648
:107FC000F0E098E1908380830895EDDF803219F02E
:107FD00088E0F5DFFFCF84E1DECF1F93182FE3DFCA
:107FE0001150E9F7F2DF1F91089580E0E8DFEE27F6
:047FF000FF270994CA
:027FFE00040479
:00000001FF
