:100000000C9461000C9473000C9473000C947300B6
:100010000C9473000C9473000C9473000C94730094
:100020000C9473000C9473000C9473000C94730084
:100030000C9473000C9473000C9473000C94730074
:100040000C9455010C9473000C9473000C94730081
:100050000C9473000C9473000C9473000C94730054
:100060000C9473000C94730000000000240027001F
:100070002A0000000000250028002B0000000000DE
:1000800023002600290004040404040404040202DA
:100090000202020203030303030301020408102007
:1000A0004080010204081020010204081020000012
:1000B0000008000201000003040700000000000027
:1000C000000011241FBECFEFD8E0DEBFCDBF21E07E
:1000D000A0E0B1E001C01D92AB30B207E1F70E9491
:1000E0009F010C9455030C940000833081F028F498
:1000F000813099F08230A9F008958730A9F08830D6
:10010000C9F08430B1F4809180008F7D03C080916C
:1001100080008F7780938000089584B58F7784BDA9
:10012000089584B58F7DFBCF8091B0008F77809349
:10013000B00008958091B0008F7DF9CF1F93CF93C9
:10014000DF93282F30E0F901E255FF4F8491F90148
:10015000E656FF4FD491F901EA57FF4FC491CC23E3
:10016000A9F0162F81110E947500EC2FF0E0EE0F20
:10017000FF1FEE58FF4FA591B4918FB7F894EC9103
:10018000111108C0D095DE23DC938FBFDF91CF9192
:100190001F910895DE2BF8CFCF93DF9390E0FC0101
:1001A000E656FF4F24918A579F4FFC018491882384
:1001B000D1F090E0880F991FFC01E859FF4FA591FD
:1001C000B491FC01EE58FF4FC591D49161110EC05E
:1001D0009FB7F8948C91E22FE0958E238C93288121
:1001E000E223E8839FBFDF91CF9108958FB7F89402
:1001F000EC91E22BEC938FBFF6CF3FB7F894809150
:10020000050190910601A0910701B091080126B562
:10021000A89B05C02F3F19F00196A11DB11D3FBF3E
:10022000BA2FA92F982F8827BC01CD01620F711D0D
:10023000811D911D42E0660F771F881F991F4A9507
:10024000D1F708958F929F92AF92BF92CF92DF9293
:10025000EF92FF926B017C010E94FD004B015C015B
:10026000C114D104E104F104B9F00E94FD00681941
:1002700079098A099B09683E73408105910580F3DD
:1002800021E0C21AD108E108F10888EE880E83E067
:10029000981EA11CB11CE4CFFF90EF90DF90CF908F
:1002A000BF90AF909F908F9008951F920F920FB6BE
:1002B0000F9211242F933F938F939F93AF93BF93EC
:1002C0008091010190910201A0910301B09104017C
:1002D0003091000123E0230F2D3758F50196A11D21
:1002E000B11D209300018093010190930201A0931E
:1002F0000301B09304018091050190910601A09142
:100300000701B09108010196A11DB11D809305015F
:1003100090930601A0930701B0930801BF91AF919C
:100320009F918F913F912F910F900FBE0F901F9033
:10033000189526E8230F0296A11DB11DD2CF7894FF
:1003400084B5826084BD84B5816084BD85B58260DA
:1003500085BD85B5816085BD80916E00816080938B
:100360006E001092810080918100826080938100F4
:100370008091810081608093810080918000816004
:10038000809380008091B10084608093B10080915F
:10039000B00081608093B00080917A008460809387
:1003A0007A0080917A00826080937A0080917A004E
:1003B000816080937A0080917A00806880937A00CF
:1003C0001092C10061E08DE00E94CC0061E08CE001
:1003D0000E94CC0061E08BE00E94CC0061E08AE0EA
:1003E0000E94CC0061E089E00E94CC0061E088E0DE
:1003F0000E94CC0061E087E00E94CC0061E086E0D2
:100400000E94CC0061E085E00E94CC0061E084E0C5
:100410000E94CC0060E08EE00E94CC000CEB10E06B
:1004200098EAE92E90E0F92E24E9C22E20E0D22E9F
:1004300030E0A32E30E0B32EC2E3D0E0F801849187
:10044000F7019490F6018490811097C0D0930A012F
:10045000C093090161E084E00E949E0060E08DE0AD
:100460000E949E0062E370E080E090E00E94220122
:1004700061E085E00E949E0060E084E00E949E00B2
:1004800062E370E080E090E00E94220161E086E09B
:100490000E949E0060E085E00E949E0062E370E0A2
:1004A00080E090E00E94220161E087E00E949E00CF
:1004B00060E086E00E949E0062E370E080E090E0F1
:1004C0000E94220161E088E00E949E0060E087E0D7
:1004D0000E949E0062E370E080E090E00E942201B2
:1004E00061E089E00E949E0060E088E00E949E003A
:1004F00062E370E080E090E00E94220161E08AE027
:100500000E949E0060E089E00E949E0062E370E02D
:1005100080E090E00E94220161E08BE00E949E005A
:1005200060E08AE00E949E0062E370E080E090E07C
:100530000E94220161E08CE00E949E0060E08BE05E
:100540000E949E0062E370E080E090E00E94220141
:1005500061E08DE00E949E0060E08CE00E949E00C1
:1005600062E370E080E090E00E942201A114B104F7
:1005700009F464CF0E94000061CF81110E947500D0
:10058000E82DF0E0EE0FFF1FE458FF4FA591B49166
:100590008C91982209F45ACFD0930A01C093090193
:1005A00061E08DE00E949E0060E084E00E949E0079
:1005B00062E370E080E090E00E94220161E08CE064
:1005C0000E949E0060E08DE00E949E0062E370E069
:1005D00080E090E00E94220161E08BE00E949E009A
:1005E00060E08CE00E949E0062E370E080E090E0BA
:1005F0000E94220161E08AE00E949E0060E08BE0A0
:100600000E949E0062E370E080E090E00E94220180
:1006100061E089E00E949E0060E08AE00E949E0006
:1006200062E370E080E090E00E94220161E088E0F7
:100630000E949E0060E089E00E949E0062E370E0FC
:1006400080E090E00E94220161E087E00E949E002D
:1006500060E088E00E949E0062E370E080E090E04D
:100660000E94220161E086E00E949E0060E087E037
:100670000E949E0062E370E080E090E00E94220110
:1006800061E085E00E949E0060E086E00E949E009E
:1006900062E370E080E090E00E94220161E084E08B
:0E06A0000E949E0060E085E059CFF894FFCFE5
:00000001FF
