:100000000C945D000C9485000C9485000C94850084
:100010000C9485000C9485000C9485000C9485004C
:100020000C9485000C9485000C9485000C9485003C
:100030000C9485000C9485000C9485000C9485002C
:100040000C94A8030C9485000C9485000C948500F6
:100050000C9485000C9485000C9485000C9485000C
:100060000C9485000C94850000000008000201003B
:100070000003040700000000000000000000000072
:10008000250028002B0000000000240027002A0083
:10009000040404040404040402020202020203032E
:1000A0000303030301020408102040800102040836
:1000B0001020010204081020C20511241FBECFEF3A
:1000C000D8E0DEBFCDBF21E0AAE2B1E001C01D92C1
:1000D000A035B207E1F711E0A0E0B1E0E6EBF0E116
:1000E00002C005900D92AA32B107D9F710E0CDE514
:1000F000D0E004C02197FE010E946106CC35D107F3
:10010000C9F70E94F2030C9459080C94000090E087
:10011000FC01EC55FF4F249180579F4FFC018491C7
:10012000882399F090E0880F991FFC01EA57FF4F50
:10013000A591B491FC01E458FF4F859194918FB73C
:10014000F894EC91E22BEC938FBF08950895AF9251
:10015000BF92CF92DF92EF92FF920F931F93CF93B4
:10016000DF936C017B018B01040F151FEB015E0116
:10017000AE18BF08C017D10759F06991D601ED91AB
:10018000FC910190F081E02DC6010995892B79F74A
:10019000C501DF91CF911F910F91FF90EF90DF90FC
:1001A000CF90BF90AF90089590E0FC01E859FF4FC9
:1001B0002491FC01EC55FF4F3491FC01E057FF4FB7
:1001C000E491EE23C9F0222339F0233001F1A8F4A1
:1001D000213019F1223029F1F0E0EE0FFF1FE45831
:1001E000FF4FA591B4918FB7F894EC91611126C09F
:1001F00030953E233C938FBF08952730A9F02830D7
:10020000C9F0243049F7809180008F7D03C0809130
:1002100080008F7780938000DFCF84B58F7784BD97
:10022000DBCF84B58F7DFBCF8091B0008F7780933B
:10023000B000D2CF8091B0008F7DF9CF3E2BDACFC6
:100240003FB7F89480912F0190913001A091310136
:10025000B091320126B5A89B05C02F3F19F0019639
:10026000A11DB11D3FBFBA2FA92F982F8827BC0110
:10027000CD01620F711D811D911D42E0660F771F38
:10028000881F991F4A95D1F708958F929F92AF9238
:10029000BF92CF92DF92EF92FF920E9420014B011A
:1002A0005C018AEFC82ED12CE12CF12C0E94200198
:1002B000681979098A099B09683E7340810591058F
:1002C000A8F321E0C21AD108E108F10888EE880EEF
:1002D00083E0981EA11CB11CC114D104E104F104F7
:1002E00029F7FF90EF90DF90CF90BF90AF909F9055
:1002F0008F90089590E080E008958F929F92AF9242
:10030000BF920F931F93CF93DF93CDB7DEB7A19723
:100310000FB6F894DEBF0FBECDBF19A2423008F46D
:100320004AE08E010F5D1F4F842E912CB12CA12C21
:10033000A50194010E942B06E62FB901CA01EA30FB
:1003400044F5E05DD801EE938D01232B242B252B62
:1003500079F790E080E0109769F0FD0101900020AE
:10036000E9F73197AF014A1B5B0BBD0184E391E0D4
:100370000E94A700A1960FB6F894DEBF0FBECDBFB6
:10038000DF91CF911F910F91BF90AF909F908F9071
:100390000895E95CD7CFCF93DF93EC0160E08E81C5
:1003A0000E94D40061E08E810E94D40060E08E81C2
:1003B0000E94D4008BE891E00197F1F7DF91CF9193
:1003C0000895CF92DF92EF92FF920F931F93CF93F6
:1003D000DF936C017C0187E0E80EF11CD0E0C0E007
:1003E000062F10E0B8010C2E02C0759567950A948F
:1003F000E2F76170F70181917F010E94D40021969C
:10040000C430D10579F7C601DF91CF911F910F91CB
:10041000FF90EF90DF90CF900C94CB01CF92DF92C2
:10042000EF92FF920F931F93CF93DF93EC01F62E81
:10043000642F8C810E94D4008D818F3F19F060E081
:100440000E94D4000F2D10E08F8584FF25C06E011F
:1004500087E0C80ED11CF12CE12CB8010E2C02C093
:10046000759567950A94E2F76170F60181916F01C5
:100470000E94D400FFEFEF1AFF0A88E0E816F104AB
:1004800061F7CE01DF91CF911F910F91FF90EF9017
:10049000DF90CF900C94CB01B80184E075956795FF
:1004A0008A95E1F7CE010E94E1016F2DCE01DF9127
:1004B000CF911F910F91FF90EF90DF90CF900C9410
:1004C000E10140E0682F84E391E00C940E02CF93A9
:1004D000DF93823029F49091430198609093430117
:1004E000809347011092480180E48093490180E1A4
:1004F00080934A0180E580934B01809138010E94EE
:100500008700809139018F3F11F00E948700809110
:100510003A010E948700C4E3D1E09E012453314098
:100520008091430184FD0AC084E090E02196281761
:1005300039073CF48E810E948700EFCF88E090E07D
:10054000F5CF8BE39DE00197F1F760E080913801F2
:100550000E94D40060E080913A010E94D400809112
:1005600039018F3F19F060E00E94D400809143016F
:1005700084FD39C063E084E391E00E94E101CBE4B3
:10058000D6E4CE010197F1F763E084E391E00E94A5
:10059000E1012197F1F763E084E391E00E94E1013A
:1005A00083E592E00197F1F762E084E391E00E9435
:1005B000E1018091430180620E94610284E08093A6
:1005C00044018CE00E94610281E00E9461028BE3A1
:1005D0009FE10197F1F782E08093450186E0DF918A
:1005E000CF910C94610280620E9461028BE496E4D8
:1005F0000197F1F78091430180620E94610283E5D7
:1006000092E00197F1F78091430180620E946102BC
:10061000D0CF90914701891710F08FEF890FE82F05
:10062000F0E0EC5CFE4F848980680C94610241E04C
:100630000E940E0281E090E00895CF93DF93EC01D9
:1006400088819981009711F00E940307198218820E
:100650001D821C821B821A82DF91CF910895FC01BA
:1006600080819181009711F00C94030708950F93F6
:100670001F93CF93DF93EC0188819981009759F004
:100680002A813B812617370730F081E0DF91CF9137
:100690001F910F9108958B016F5F7F4F0E948C0710
:1006A000009759F0998388831B830A832C813D81AD
:1006B000232B59F7FC011082E8CF80E0E7CFEF92BF
:1006C000FF920F931F93CF93DF93EC017B018A017D
:1006D000BA010E94370381110BC0CE010E941D0395
:1006E000CE01DF91CF911F910F91FF90EF90089570
:1006F0001D830C83B701888199810E945208F0CF35
:10070000CF93DF93EC01FB018617970749F06081D7
:1007100071816115710541F0448155810E945F032B
:10072000CE01DF91CF9108950E941D03F9CFFC0106
:10073000118210821382128215821482FB010190B1
:100740000020E9F73197AF01461B570B0C945F036C
:100750001F920F920FB60F9211242F933F938F93F6
:100760009F93AF93BF9380912B0190912C01A09107
:100770002D01B0912E0130912A0123E0230F2D3756
:1007800058F50196A11DB11D20932A0180932B01DC
:1007900090932C01A0932D01B0932E0180912F01F5
:1007A00090913001A0913101B09132010196A11DCB
:1007B000B11D80932F0190933001A0933101B0932C
:1007C0003201BF91AF919F918F913F912F910F90E7
:1007D0000FBE0F901F90189526E8230F0296A11DBB
:1007E000B11DD2CFCF93DF93CDB7DEB7AC970FB6A5
:1007F000F894DEBF0FBECDBF789484B5826084BD0F
:1008000084B5816084BD85B5826085BD85B5816014
:1008100085BD80916E00816080936E001092810092
:10082000809181008260809381008091810081604D
:10083000809381008091800081608093800080910E
:10084000B10084608093B1008091B000816080939A
:10085000B00080917A00846080937A0080917A0061
:10086000826080937A0080917A00816080937A0020
:1008700080917A00806880937A001092C10082E0B3
:100880000E94670280E00E9409034AE050E062E1B2
:1008900071E084E391E00E94A70081E00E940903D7
:1008A00041E050E06BE171E084E391E00E94A70039
:1008B0000E9445011E018BE2280E311C6BE171E0A4
:1008C000CE0185960E9497036DE171E0CE014F96AF
:1008D0000E94970368E271E0CE0149960E94970357
:1008E000412C512C320143941E861D86188A1F8686
:1008F0001A8A198ABE01615E7F4FCE010D960E9451
:1009000080031C8A1B8A1E8A1D8A188E1F8ABE01BC
:100910006B5D7F4FCE0143960E94800368E271E0D9
:10092000CE0107960E949703EF88F88C81E0E81AC1
:10093000F10809891A8901501109B12CA12CF7FE7F
:100940000DC090E080E017FF1EC01A141B040CF0CD
:100950008DC090E080E030E020E029C08F89988D44
:10096000E816F90628F4EB89FC89309709F073C082
:1009700010923301E3E3F1E08081082E000C990B23
:10098000C09717FDE8CF29893A890217130728F481
:10099000ED85FE85309709F061C010923301E3E3E5
:1009A000F1E02081022E000C330B20533109820F1D
:1009B000931F8A0D9B1D6AE070E00E9417065B0181
:1009C0001A8219821C821B821E821D82805D8BA767
:1009D0001CA6F10101900020E9F73197AF014219FF
:1009E0005309B101CE0101960E945F038F80988464
:1009F00081149104B1F1CB84DC84C114D104B1F031
:100A00008D819E81C80ED91EB601CE0101960E942D
:100A10003703882331F129813A818D819E81B40188
:100A2000820F931F0E945208DE82CD82BE016F5F4B
:100A30007F4FCE0107960E948003CE0101960E944F
:100A40002F03F7FC03C081E0E81AF10817FD77CF08
:100A50000150110974CFEE0DFF1D8ECFE00FF11F75
:100A6000A0CFCE0101960E941D03E0CF898D9A8D03
:100A7000009709F476C06F8178856115710509F4D6
:100A80006EC04B8D5C8D2B853C854217530708F457
:100A900066C00E9452088B859C859E8F8D8F1C8618
:100AA0001B86CE0107960E942F03CE0143960E941B
:100AB0002F03CE010D960E942F03BE01615E7F4F72
:100AC000CE0185960E948003BE01675E7F4FCE01F6
:100AD0004F960E94800381E00E9461028BE39FE1B8
:100AE0000197F1F780E00E94090349E050E06FE1CF
:100AF00071E084E391E00E94A7004AE0C301B201E3
:100B00000E947D0181E00E9409034D8D5E8D698DFB
:100B10007A8D84E391E00E94A7000E9445018FEF47
:100B2000481A580A680A780A8EE448165104610483
:100B3000710409F0D9CECE0149960E942F03CE014F
:100B40004F960E942F03CE0185960E942F0380E0CE
:100B500090E0892B09F4B2CE0E940000AFCE0E9433
:100B600003078F8198859A8F898F89859A859C8FB5
:100B70008B8F8B859C859E8F8D8F18861F821A8602
:100B800019868DCFE4E3F1E0138212828AE091E0CE
:100B9000918380838CE084838FEF85838BE08683D1
:100BA00087E0878386E0808785E0818784E082878D
:100BB0001386148615861686178681E00C946702C4
:100BC0002F923F924F925F926F927F928F929F925D
:100BD000AF92BF92CF92DF92EF92FF920F931F934B
:100BE000CF93DF93CDB7DEB7CA1BDB0B0FB6F894FC
:100BF000DEBF0FBECDBF09942A88398848885F843C
:100C00006E847D848C849B84AA84B984C884DF80AC
:100C1000EE80FD800C811B81AA81B981CE0FD11D90
:100C20000FB6F894DEBF0FBECDBFED01089597FB60
:100C3000072E16F4009407D077FD09D00E944D06C8
:100C400007FC05D03EF4909581959F4F08957095CF
:100C500061957F4F0895A1E21A2EAA1BBB1BFD01CF
:100C60000DC0AA1FBB1FEE1FFF1FA217B307E4078B
:100C7000F50720F0A21BB30BE40BF50B661F771FE3
:100C8000881F991F1A9469F76095709580959095C3
:100C90009B01AC01BD01CF010895AA1BBB1B51E113
:100CA00007C0AA1FBB1FA617B70710F0A61BB70BDC
:100CB000881F991F5A95A9F780959095BC01CD0181
:100CC0000895EE0FFF1F0590F491E02D09940F9306
:100CD0001F93CF93DF938230910510F482E090E070
:100CE000E0914E01F0914F0130E020E0B0E0A0E053
:100CF000309799F42115310509F44AC0281B390BA6
:100D000024303105D8F58A819B816115710589F1FF
:100D1000FB0193838283FE0111C0408151810281D6
:100D2000138148175907E0F04817590799F41097AD
:100D300061F012960C93129713961C933296CF0182
:100D4000DF91CF911F910F91089500934E01109361
:100D50004F01F4CF2115310551F04217530738F0F8
:100D6000A901DB019A01BD01DF01F801C1CFEF014B
:100D7000F9CF90934F0180934E01CDCFFE01E20F4A
:100D8000F31F819391932250310939832883D7CF60
:100D900020914C0130914D01232B41F4209102010F
:100DA0003091030130934D0120934C0120910001BB
:100DB000309101012115310541F42DB73EB7409125
:100DC000040150910501241B350BE0914C01F09179
:100DD0004D01E217F307A0F42E1B3F0B281739072C
:100DE00078F0AC014E5F5F4F2417350748F04E0F87
:100DF0005F1F50934D0140934C01819391939FCF7E
:100E0000F0E0E0E09CCFCF93DF930097E9F0FC01A6
:100E1000329713821282A0914E01B0914F01ED01E1
:100E200030E020E01097A1F420813181820F931FE0
:100E300020914C0130914D012817390709F061C00C
:100E4000F0934D01E0934C01DF91CF910895EA01B9
:100E5000CE17DF07E8F54A815B819E0141155105F8
:100E6000B1F7E901FB83EA8349915991C40FD51F7A
:100E7000EC17FD0761F4808191810296840F951F24
:100E8000E90199838883828193819B838A83F0E03F
:100E9000E0E012968D919C9113970097B9F52D91F2
:100EA0003C911197CD010296820F931F20914C0126
:100EB00030914D012817390739F6309751F51092C6
:100EC0004F0110924E01B0934D01A0934C01BCCF45
:100ED000D383C28340815181840F951FC817D907DE
:100EE00061F44E5F5F4F88819981480F591F51838C
:100EF00040838A819B81938382832115310509F088
:100F0000B0CFF0934F01E0934E019ECFFD01DC0185
:100F1000C0CF13821282D7CFB0E0A0E0E2E9F7E0C1
:100F20000C94E2058C01009751F4CB010E946706F6
:100F30008C01C801CDB7DEB7E0E10C94FE05FC01E1
:100F4000E60FF71F9C0122503109E217F30708F45E
:100F50009DC0D901CD91DC911197C617D70798F0A4
:100F6000C530D10530F3CE0104978617970708F3F3
:100F7000C61BD70B2297C193D1936D937C93CF015E
:100F80000E940307D6CF5B01AC1ABD0A4C018C0E40
:100F90009D1EA0914E01B0914F01512C412CF12C7E
:100FA000E12C109731F580914C0190914D018815FD
:100FB000990509F05CC04616570608F058C08091A4
:100FC000000190910101009741F48DB79EB74091C7
:100FD000040150910501841B950BE817F90708F0EF
:100FE00055C0F0934D01E0934C01F901718360838A
:100FF000A0CF8D919C91119712966C901297139699
:101000007C901397A815B90559F56C0142E0C40E00
:10101000D11CCA14DB0420F1AC014A195B09DA01C6
:101020001296159780F06282738251834083D901B2
:101030006D937C93E114F10471F0D7011396FC9346
:10104000EE93129776CF22968C0F9D1FF901918314
:101050008083F301EFCFF0934F01E0934E0169CF0E
:101060004816590608F42C017D01D3019ACFCB0113
:101070000E9467067C01009749F0AE01B8010E940A
:101080004908C8010E940307870153CF10E000E020
:1010900050CFFB01DC0102C001900D924150504045
:1010A000D8F70895FB01DC0101900D920020E1F7D3
:0610B0000895F894FFCF43
:1010B600000050018000000000001703A7007A011D
:1010C600A6005465726D696E6F3A20300031005487
:0A10D60065726D696E6F3A2000002C
:00000001FF
