:100000000C94A7070C94CF070C94CF070C94CF0740
:100010000C94CF070C94CF070C94CF070C94CF0708
:100020000C94CF070C94CF070C94CF070C94CF07F8
:100030000C94CF070C94CF070C94CF070C94CF07E8
:100040000C94DF190C94CF070C94AD190C948719FC
:100050000C94CF070C94CF070C94CF070C94CF07C8
:100060000C94291A0C94CF0700000000003E5B4F4F
:100070005B3E3E6B4F6B3E1C3E7C3E1C183C7E3C08
:10008000181C577D571C1C5E7F5E1C00183C180016
:10009000FFE7C3E7FF0018241800FFE7DBE7FF30A6
:1000A000483A060E2629792926407F050507407F14
:1000B00005253F5A3CE73C5A7F3E1C1C08081C1C87
:1000C0003E7F14227F22145F5F005F5F06097F017D
:1000D0007F006689956A606060606094A2FFA29468
:1000E00008047E040810207E201008082A1C080836
:1000F0001C2A08081E101010100C1E0C1E0C303884
:100100003E3830060E3E0E06000000000000005F84
:1001100000000007000700147F147F14242A7F2AA0
:100120001223130864623649562050000807030062
:10013000001C2241000041221C002A1C7F1C2A08AE
:10014000083E080800807030000808080808000011
:1001500060600020100804023E5149453E00427F85
:10016000400072494949462141494D331814127FD4
:100170001027454545393C4A494931412111090774
:100180003649494936464949291E000014000000F5
:1001900040340000000814224114141414140041C7
:1001A00022140802015909063E415D594E7C121184
:1001B000127C7F494949363E414141227F414141BC
:1001C0003E7F494949417F090909013E4141517337
:1001D0007F0808087F00417F41002040413F017FA8
:1001E000081422417F404040407F021C027F7F0470
:1001F00008107F3E4141413E7F090909063E4151B9
:10020000215E7F09192946264949493203017F01A8
:10021000033F4040403F1F2040201F3F4038403FA9
:10022000631408146303047804036159494D4300BF
:100230007F4141410204081020004141417F0402F6
:10024000010204404040404000030708002054548D
:1002500078407F284444383844444428384444286B
:100260007F385454541800087E090218A4A49C78BE
:100270007F0804047800447D40002040403D007F1A
:100280001028440000417F40007C047804787C08FA
:100290000404783844444438FC18242418182424CE
:1002A00018FC7C08040408485454542404043F44B3
:1002B000243C4040207C1C2040201C3C4030403CE2
:1002C00044281028444C9090907C4464544C440042
:1002D00008364100000077000000413608000201A6
:1002E0000204023C2623263C1EA1A161123A404092
:1002F000207A38545455592155557941225454780F
:1003000042215554784020545579400C1E527212A7
:100310003955555559395454545939555454580030
:1003200000457C410002457D420001457C407D1234
:1003300011127DF0282528F07C5455450020545496
:100340007C547C0A097F4932494949323A44444441
:100350003A324A4848303A4141217A3A424020787C
:10036000009DA0A07D3D4242423D3D4040403D3C7D
:1003700024FF2424487E4943662B2FFC2F2BFF09A2
:1003800029F620C0887E0903205454794100004496
:100390007D413048484A32384040227A007A0A0A81
:1003A000727D0D19317D2629292F282629292926F4
:1003B00030484D4020380808080808080808382F39
:1003C00010C8ACBA2F102834FA00007B00000814C3
:1003D0002A142222142A14085500550055AA55AA99
:1003E00055AAFF55FF55FF000000FF00101010FF39
:1003F00000141414FF001010FF00FF1010F010F094
:10040000141414FC001414F700FF0000FF00FF1484
:1004100014F404FC141417101F10101F101F1414D0
:10042000141F00101010F0000000001F101010101A
:100430001F10101010F010000000FF10101010100E
:1004400010101010FF10000000FF140000FF00FF4C
:1004500000001F10170000FC04F4141417101714E8
:1004600014F404F40000FF00F7141414141414140A
:10047000F700F7141414171410101F101F1414147D
:10048000F4141010F010F000001F101F0000001FE7
:1004900014000000FC140000F010F01010FF10FF1A
:1004A000141414FF141010101F00000000F010FFAF
:1004B000FFFFFFFFF0F0F0F0F0FFFFFF0000000093
:1004C00000FFFF0F0F0F0F0F3844443844FC4A4A17
:1004D0004A347E02020606027E027E0263554941CC
:1004E000633844443C04407E201E2006027E020203
:1004F00099A5E7A5991C2A492A1C4C7201724C3017
:100500004A4D4D303048784830BC625A463D3E49ED
:100510004949007E0101017E2A2A2A2A2A44445F91
:10052000444440514A444040444A51400000FF0185
:1005300003E080FF000008086B6B08361236243693
:10054000060F090F060000181800000010100030F8
:1005500040FF0101001F01011E00191D1712003C80
:100560003C3C3C0000000000000103070F1F3F7FE0
:100570000080C0E0F0F8FCFE00000008000201006E
:10058000000304070000000000000000000000005D
:10059000240027002A00DB40A4A62EAF2000A1C81B
:1005A000D300408DAED580A80000000025002800B3
:1005B0002B000000600000000000000000000000B0
:1005C000000000E00000000000000000000000004B
:1005D0000001E0000000000000000000000000003A
:1005E00001F0000000000000000000000000000317
:1005F000F00000000000000000000000000007F014
:100600000000000000000000000000000007F800EB
:100610000000000000000000000000000FF80000D3
:100620000003C0007E000001E0007F0FF800000022
:1006300003C000FE000001E000FFEFF8000000032F
:10064000C000FE000001E000FFFFF800000003C052
:1006500000F00000000F007FFE7FC0000003C0001C
:10066000F00000000F003FFE7FF83FF1FBCFFCFEE3
:10067000F3BC3DEFE01FFE7FFF7FFBFFDFFEFEFFD1
:10068000BC3DEFE01FC6FFFF7FFBFFDFFEFEFFBCB0
:100690003DEFE00FE3C7FE787BC3DE1EF0FFBC3DFD
:1006A000EF0007FF87FC787BC3DE1EF0F83C3DEFD0
:1006B0000001FFFFF0007BC3C01EF0F03C3DEF00E7
:1006C00001F37FE03FFBC3CFFEF0F03C3DEF0003C2
:1006D000E33F807FFBC3DFFEF0F03C3DEF0007E728
:1006E0003C00787BC3DE1EF0F03C3DEF0007FFBE10
:1006F00000787BC3DE1EF0F03C3DEF0007FFFE00FC
:10070000787BC3DE1EF0F03C3DEF000FFFFE007F64
:10071000FBFFDFFEF0F03FFDEFE00FFFFF007FFB90
:10072000FFDFFEF0F03FFDEFE00FF9FF003E79F94B
:10073000CF9EF0F01F3DE7E01FF1FF00000000003A
:10074000000000000000001F80FF007FFFFFFFFF90
:10075000FFFFFFFFFFE01C007F007FFFFFFFFEB4F5
:100760006D888D18E000001F007FFFFFFFFE95AD34
:100770007DB577E000000F007FFFFFFFFEA5AD9D78
:100780008D19E0000006007FFFFFFFFEB5ADEDB55F
:100790007EE000000000000180000000000000007A
:1007A0000000038000000000000000000007C000FF
:1007B000000000000000000007C000000000000072
:1007C0000000000FC00000000000000000001FE05B
:1007D0000000000000000000001FE000000000001A
:1007E000000000003FE00000000000000000003FAB
:1007F000F00000000000000000007FF0000000009A
:100800000000001FF87FF0000000000000003FFE25
:100810007FF0000000000000003FFF7FF0000000BC
:10082000000000001FFFFBE0000000000000000FC0
:10083000FFF9FFC00000000000000FFFF9FFF80003
:10084000000000000007FFF1FFFF000000000000B3
:1008500003FC73FFFF80000000000001FE3FFFFF6C
:1008600080000000000000FF1E0FFF0000000000DD
:1008700000007FFE1FFC000000000000003FFFFFA3
:10088000F8000000000000000FDFFFE000000000A3
:100890000000001F19FFC0000000000000003F3CE6
:1008A000FF00000000000000007E7CF80000000057
:1008B000000000007FFE7C0000000000000000FF40
:1008C000FFFC0000000000000000FFFFFE00000031
:1008D0000000000000FFFFFE00000000000000011B
:1008E000FFEFFE0000000000000001FFCFFE00004F
:1008F000000000000003FF07FE00000000000000F1
:1009000003FC07FE0000000000000003F003FE00EF
:10091000000000000000018000FE00000000000058
:10092000000000007E000000000000000000003E0B
:10093000000000000000000000000C0000000000AB
:1009400000078000FC000003C0000000078001FCDD
:10095000000003C0000000078001FC000003C0008D
:100960000000078001E00000001E00000007800179
:10097000E00000001E007FE3F79FF9FDE7787BDFD2
:10098000C0FFF7FFBFFDFDFF787BDFC0FFF7FFBFB4
:10099000FDFDFF787BDFC0F0F787BC3DE1FF787B92
:1009A000DE00F0F787BC3DE1F0787BDE0000F787E2
:1009B000803DE1E0787BDE007FF7879FFDE1E07816
:1009C0007BDE00FFF787BFFDE1E0787BDE00F0F71C
:1009D00087BC3DE1E0787BDE00F0F787BC3DE1E0DD
:1009E000787BDE00F0F787BC3DE1E0787BDE00FF3E
:1009F000F7FFBFFDE1E07FFBDFC0FFF7FFBFFDE1D9
:100A0000E07FFBDFC07CF3F39F3DE1E03E7BCFC0A6
:100A10000000000000000000000000FFFFFFFFFFDB
:100A2000FFFFFFFFFFC0FFFFFFFFFD68DB111A3173
:100A3000C0FFFFFFFFFD2B5AFB6AEFC0FFFFFFFF68
:100A4000FD4B5B3B1A33C0FFFFFFFFFD6B5BDB6AB7
:100A5000FDC04E6F207365207075646F20696E69EC
:100A600063696172206C612070616E74616C6C618D
:100A7000204F4C45440020250048756D6564616435
:100A80003A00000000000000C0F0781E07071E7842
:100A9000F0C00000000000000000000000000000A6
:100AA0000000000000E0FC1F030000000000000048
:100AB000A0A31FFCE00000000000000000000000F8
:100AC0000000000000030F1E3830606060787C6C0E
:100AD000373B1C0F03C0F07C1E071E7CF0C00000DB
:100AE0000000000000000000000000000000000006
:100AF000000000001E7F61C0C0C0C0C0617F1E003A
:100B0000000020430054656D7065726174757261F8
:100B10003A00FFFFFFFFFFFFFFFFFFFFFFFFFFFFA9
:100B2000FFFFFFFFFFFFFFFFFFFFFFFFFFFFFFFFD5
:100B3000FFFFFFFFFFFFFFFFFFFFFFFFFFFFFFFFC5
:100B4000FFFFFFFFFFFFFFFFFFFFFFFFFFFFFFFFB5
:100B5000FFFFFFFFFFFFFFFFFFFFFFFFFFFFFF00A4
:100B600000000000FFFFFFFFFFFFFFFFFFFFFFFF91
:100B7000FFFFFFFFFFFFFFFFFFFFFFFFFFFFFF0084
:100B800000FF0000FFFFFFFFFFFFFFFFFFFFFFFF72
:100B9000FFFFFFFFFFFFFFFFFFFFFFFFFFFFFF0064
:100BA000FFFFFF00FF0000000000000000FFFFFF4C
:100BB000FFFFFFFFFFFFFFFFFFFFFFFFFFFFFF0044
:100BC000FFFFFF00FFFFFFFFFFFFFFFFFFFFFFFF34
:100BD000FFFFFFFFFFFFFFFFFFFFFFFFFFFFFF0024
:100BE000FFFFFF00FF0000000000000000FFFFFF0C
:100BF000FFFFFFFFFFFFFFFFFFFFFFFFFFFFFF0004
:100C0000FF000000FFFFFFFFFFFFFFFFFFFFFFFFF1
:100C1000FFFFFFFFFFFFFFFFFFFFFFFFFFFFFF00E3
:100C2000FFFFFF00FF0000000000000000FFFFFFCB
:100C3000FFFFFFFFFFFFFFFFFFFFFFFFFFFFFF00C3
:100C4000FF000000FFFFFFFFFFFFFFFFFFFFFFFFB1
:100C5000FFFFFFFFFFFFFFFFFFFFFFFFFFFFFF00A3
:100C6000FFFFFF00FF0000000000000000FFFFFF8B
:100C7000FFFFFFFFFFFFFF00FFFFFFFFFFFFFF0082
:100C8000FF000000FFFFFFFFFFFFFFFFFFFFFFFF71
:100C9000FFFFFFFFFFFF00FF00FF000000FFFF005E
:100CA000FFFFFF00FFFFFFFFFFFFFFFFFFFFFFFF53
:100CB000FFFFFFFFFFFFFF00FFFF00FFFFFFFF0041
:100CC000FFFFFF00FFFFFFFFFFFFFFFFFFFFFFFF33
:100CD000FFFFFFFFFFFFFFFFFFFF00FFFFFFFF0022
:100CE000FFFFFF00FFFFFFFFFFFFFFFFFFFFFFFF13
:100CF000FFFFFFFFFFFFFFFFFFFF00FFFFFFFF0002
:100D0000FFFFFF00FFFFFFFFFFFFFFFFFFFFFFFFF2
:100D1000FFFFFFFFFFFFFFFFFFFF000000FFFF00DF
:100D2000FFFFFF00FFFFFFFFFFFFFFFFFFFFFFFFD2
:100D3000FFFFFFFFFFFFFFFFFFFFFFFFFFFF00FFC2
:100D4000FFFFFFFF00FFFF00FFFFFFFFFFFFFFFFB1
:100D5000FFFFFFFFFFFFFFFFFFFFFFFFFF00FFFFA2
:100D6000FFFFFFFFFF00FFFF00FFFFFFFFFFFFFF91
:100D7000FFFFFFFFFFFFFFFFFFFFFFFF00FFFFFF82
:100D8000000000FFFFFF00FFFF00FFFFFFFFFFFF6E
:100D9000FFFFFFFFFFFFFFFFFFFFFF00FFFFFF0061
:100DA00000000000FFFFFF00FFFFFFFFFFFFFFFF4E
:100DB000FFFFFFFFFFFFFFFFFFFFFF00FFFF000040
:100DC0000000000000FFFF00FFFFFFFFFFFFFFFF2D
:100DD000FFFFFFFFFFFFFFFFFFFFFF00FFFF000020
:100DE0000000000000FFFF00FFFFFFFFFFFFFFFF0D
:100DF000FFFFFFFFFFFFFFFFFFFFFF00FFFF000000
:100E00000000000000FFFF00FFFFFFFFFFFFFFFFEC
:100E1000FFFFFFFFFFFFFFFFFFFFFF00FFFFFF00E0
:100E200000000000FFFFFF00FFFFFFFFFFFFFFFFCD
:100E3000FFFFFFFFFFFFFFFFFFFFFFFF00FFFFFFC1
:100E4000000000FFFFFF00FFFFFFFFFFFFFFFFFFAE
:100E5000FFFFFFFFFFFFFFFFFFFFFFFFFF00FFFFA1
:100E6000FFFFFFFFFF00FFFFFFFFFFFFFFFFFFFF91
:100E7000FFFFFFFFFFFFFFFFFFFFFFFFFFFF00FF81
:100E8000FFFFFFFF00FFFFFFFFFFFFFFFFFFFFFF71
:100E9000FFFFFFFFFFFFFFFFFFFFFFFFFFFFFF0061
:100EA00000000000FFFFFFFFFFFFFFFFFFFFFFFF4E
:100EB000FFFFFFFFFFFFFFFFFFFFFFFFFFFFFFFF42
:100EC000FFFFFFFFFFFFFFFFFFFFFFFFFFFFFFFF32
:100ED000FFFFFFFFFFFFFFFFFFFFFFFFFFFFFFFF22
:100EE000FFFFFFFFFFFFFFFFFFFFFFFFFFFFFFFF12
:100EF000FFFFFFFFFFFFFFFFFFFFFFFFFFFFFFFF02
:100F0000FFFFFFFFFFFFFFFFFFFFFFFFFFFFFFFFF1
:100F1000FFFF000000002300260029002200FF211F
:100F20000004040404040404040202020202020392
:100F3000030303030301020408102040800102049C
:100F400008102001020408102000481B072011246B
:100F50001FBECFEFD8E0DEBFCDBF11E0A0E0B1E013
:100F6000E0E7F7E402C005900D92A636B107D9F785
:100F700023E0A6E6B1E001C01D92AA32B207E1F774
:100F800017E0C6EAD7E004C02197FE010E94742250
:100F9000C53AD107C9F70E94EB1B0C94AB230C9404
:100FA00000000895CF92DF92EF92FF92CF93DF93EC
:100FB000B091CE02A0E08111AB2F8091CF0290E0E2
:100FC000880F991FAC014E5E504FC090D402D09054
:100FD000D502E090D602F090D70230E020E0FA018E
:100FE000C591D491E881B90190E080E0EB23EA1348
:100FF0000AC02F5F3F4F6C157D058E059F0578F366
:101000006FEF7FEFCB01DF91CF91FF90EF90DF90FB
:10101000CF900895FC01538D448D252F30E0842F0F
:1010200090E0821B930B541710F0CF960895019710
:101030000895FC01918D828D981761F0A28DAE0FFD
:10104000BF2FB11D5D968C91928D9F5F9F73928F84
:1010500090E008958FEF9FEF0895FC01918D828DB0
:10106000981731F0828DE80FF11D858D90E008957D
:101070008FEF9FEF0895FC01918D228D892F90E0D5
:10108000805C9F4F821B91098F7399270895FC0103
:10109000A48DA80FB92FB11DA35ABF4F2C91848DD9
:1010A00090E001968F739927848FA689B7892C9336
:1010B000A089B1898C91837080648C93938D848D89
:1010C000981306C00288F389E02D80818F7D80838C
:1010D0000895EF92FF920F931F93CF93DF93EC014C
:1010E00081E0888F9B8D8C8D98131AC0E889F989CF
:1010F000808185FF15C09FB7F894EE89FF896083D2
:10110000E889F98980818370806480839FBF81E052
:1011100090E0DF91CF911F910F91FF90EF90089594
:10112000F62E0B8D10E00F5F1F4F0F731127E02E6F
:101130008C8D8E110CC00FB607FCFACFE889F989A7
:10114000808185FFF5CFCE010E944708F1CFEB8D5E
:10115000EC0FFD2FF11DE35AFF4FF0829FB7F8947B
:101160000B8FEA89FB8980818062CFCFCF93DF9399
:10117000EC01888D8823B9F0AA89BB89E889F989AF
:101180008C9185FD03C0808186FD0DC00FB607FCE4
:10119000F7CF8C9185FFF2CF808185FFEDCFCE0117
:1011A0000E944708E9CFDF91CF9108958AE292E04B
:1011B0000E943B0821E0892B09F420E0822F08954A
:1011C00080E090E0892B29F00E94D60881110C94D0
:1011D0000000089508950895EF92FF920F931F93D2
:1011E000CF93DF938C017B01D0E0C0E0F701EC0FDF
:1011F000FD1F6491662361F0D801ED91FC9101908F
:10120000F081E02DC8010995892B11F02196EECFD0
:10121000CE01DF91CF911F910F91FF90EF90089534
:10122000AF92BF92CF92DF92EF92FF920F931F93F4
:10123000CF93DF936C017B018B01040F151FEB0132
:101240005E01AE18BF08C017D10759F06991D601E9
:10125000ED91FC910190F081E02DC6010995892B5B
:1012600079F7C501DF91CF911F910F91FF90EF901A
:10127000DF90CF90BF90AF90089590E0FC01E858C8
:10128000FA4F2491FC01EB5CF04F3491FC01EF5DCF
:10129000F04FE491EE23C9F0222339F0233001F11D
:1012A000A8F4213019F1223029F1F0E0EE0FFF1FF0
:1012B000E855FA4FA591B4918FB7F894EC9161116C
:1012C00026C030953E233C938FBF08952730A9F068
:1012D0002830C9F0243049F7809180008F7D03C009
:1012E000809180008F7780938000DFCF84B58F77E7
:1012F00084BDDBCF84B58F7DFBCF8091B0008F772D
:101300008093B000D2CF8091B0008F7DF9CF3E2B7B
:10131000DACFCF93DF9390E0FC01EB5CF04F2491A8
:101320008F5D904FFC0184918823D1F090E0880F6D
:10133000991FFC01E457FA4FA591B491FC01E855BF
:10134000FA4FC591D491623071F49FB7F8943C91F3
:10135000822F809583238C93E8812E2B28839FBF37
:10136000DF91CF9108958FB7F894EC912E2B2C93A9
:101370008FBFF6CF3FB7F894809117029091180273
:10138000A0911902B0911A0226B5A89B05C02F3F63
:1013900019F00196A11DB11D3FBFBA2FA92F982F9B
:1013A0008827BC01CD01620F711D811D911D42E096
:1013B000660F771F881F991F4A95D1F708958F925E
:1013C0009F92AF92BF92CF92DF92EF92FF924B012A
:1013D0005C010E94BA096B017C010E94BA096C1978
:1013E0007D098E099F09683E734081059105A8F328
:1013F00021E0821A9108A108B10888EEC80E83E0A6
:10140000D81EE11CF11C81149104A104B10429F738
:10141000FF90EF90DF90CF90BF90AF909F908F9014
:101420000895CF92DF92EF92FF920F931F93CF9385
:10143000DF93CDB7DEB7C054D1400FB6F894DEBF0E
:101440000FBECDBF2FB7F894809122029091230256
:10145000A0912402B09125022FBF4091D00250915B
:10146000D1026091D2027091D3028C019D01041BC4
:10147000150B260B370BB901A801403D57406105FC
:10148000710590F48091D802C05CDE4F0FB6F894DD
:10149000DEBF0FBECDBFDF91CF911F910F91FF90A7
:1014A000EF90DF90CF9008958093D0029093D10277
:1014B000A093D202B093D3021092CB021092CA0230
:1014C0001092C9021092C8021092C70262E0809185
:1014D000CC020E94890961E070E080E090E00E9407
:1014E000DF0961E08091CC020E94890960E080916F
:1014F000CC020E943D098091CD028551823020F5B9
:101500008BE291E10197F1F762E08091CC020E94B9
:1015100089098091D90290E08230910538F0880FD6
:10152000991F880F991F05970197F1F7F89480E0AC
:101530000E94D2076F3F7F4F8F4F9F4F61F41092F1
:10154000D802789480E0A0CF64E170E080E090E081
:101550000E94DF09D9CF81E00E94D2076F3F7F4F01
:101560008F4F9F4F61F38E010F5F1F4F6E018FEB07
:10157000C81A8EEFD80A780180E00E94D207F701DE
:10158000608371838283938381E00E94D207F70195
:101590006483758386839783F8E0EF0EF11CEC1467
:1015A000FD0451F7789430E020E0F801C080D1804C
:1015B000E280F3804481558166817781FFEFCF1609
:1015C000DF06EF06FF0631F04F3F8FEF5807680741
:1015D000780719F41092D802B5CFF90183E0F59598
:1015E000E7958A95E1F7E953FD4F8081880FC4168E
:1015F000D506E606F70610F180832F5F3F4F085FA0
:101600001F4F2832310589F64091CB022091C70245
:101610008091C802280F3327331F8091C902280FF9
:10162000311D8091CA02820F932F911D992748176F
:10163000190681F681E08093D80226CF8160DCCF45
:10164000EF92FF920F931F93CF93DF93EC01EC8007
:10165000FD806E157F050CF070C057FF04C0240F8D
:10166000351F50E040E08E819F81FA01E20FF31FA9
:101670008E179F071CF49C01241B350B12161306B2
:101680000CF05BC0922F842F8695869586958E9D53
:10169000D0018F9DB00D11246A0F7B1FAF8DB8A1B3
:1016A000A60FB71F477049F188E0841B482F682FA9
:1016B00070E0FB01E059FA4FE491281708F063C08D
:1016C000621B71092FEF30E002C0359527956A95AE
:1016D000E2F7E2230130110539F0B0F102301105D3
:1016E00061F58C91E82702C08C91E82BEC9394175C
:1016F00020F12C813D81A20FB31FE92FE41BE830BC
:1017000078F00230110521F58E2F9C9190959C93D5
:101710002C813D81A20FB31F88508830B0F7E7704D
:10172000EE2359F0F0E0E859FA4FE4910130110549
:10173000F9F010F10230110519F1DF91CF911F91ED
:101740000F91FF90EF900895E0958C91E823CECF14
:1017500081E00115110509F480E081959E2F8C939D
:101760002C813D81A20FB31F98509830C0F7D7CF7E
:101770008C91E82BEC93E1CFE0958C91E823FACFA4
:101780008C91E827F7CF0130110509F4ADCFE0F2D5
:101790000230110509F4A5CFAE0DBF1DAECF0F93DA
:1017A0001F93CF93DF9377FF04C0260F371F70E09E
:1017B00060E0DC011496CD91DC91FB01E20FF31F98
:1017C000CE17DF071CF49E01261B370B12161306DB
:1017D0004CF5FA0157FD3796A3E0F595E795AA95E4
:1017E000E1F7EC9FD001ED9FB00DFC9FB00D1124EF
:1017F0006A0F7B1FDC015F96ED91FC91E60FF71FEE
:101800004770552781E090E001C0880F4A95EAF7BC
:10181000482F0130110559F0A8F02E0F3F1F02305C
:101820001105E1F0DF91CF911F910F9108952E0FD7
:101830003F1FE217F307B1F38191DF011197842B6A
:101840008C93F7CF80952E0F3F1FE217F30751F3CC
:101850009191DF01119798239C93F7CFE217F3073B
:1018600009F38191DF01119784278C93F7CF0F93B0
:101870001F93FA01DC0156964C9156974230E9F0DD
:101880004330A1F1413061F514964D915C91DA013C
:10189000AE1BBF0BFD01E21BF30B77FD0BC0DC01A0
:1018A00016964D915C916417750724F4AB01BF0146
:1018B0000E94CF0B1F910F91089514964D915C914A
:1018C000DA01A61BB70BBD0161507109DC01169648
:1018D0004D915C91DA01AE1BBF0BFD01E21BF30BD6
:1018E00077FDE8CFAF010E94200BE4CF16964D9113
:1018F0005C91DA01A61BB70BBD0161507109CDCF18
:101900000F931F93FA01DC0156964C915697423083
:10191000A9F0433091F1413019F514964D915C9145
:10192000DA01AE1BBF0BFD013197F7FD04C0AB011F
:10193000BF010E94200B1F910F91089514964D91A5
:101940005C91DA01A61BB70BBD01DC0116964D9127
:101950005C91DA01AE1BBF0BFD013197621B730B6B
:10196000F7FDE9CFDC0116964D915C91E417F50780
:1019700014F7AF010E94CF0BDECF16964D915C910C
:10198000DA01A61BB70BBD01621B730BCECFFC01A6
:1019900077FD64C080859185681779070CF05EC07B
:1019A00057FD5CC082859385481759070CF056C0D7
:1019B00086898230B1F0833029F1813041F484810D
:1019C0009581841B950BAB01BC01615071092130DD
:1019D000310509F108F443C02230310509F463C030
:1019E000089584819581DC01A61BB70BBD01615070
:1019F000710986819781DC01A41BB50BAD014150B3
:101A00005109E5CF86819781861B970BBA01AC01FE
:101A100041505109DCCFCA0157FD0796A3E09595C7
:101A20008795AA95E1F7A481B5818A9F90018B9F44
:101A3000300D9A9F300D1124620F731F078CF0A197
:101A4000E02DE60FF71F4770552721E030E001C079
:101A5000220F4A95EAF78081822B80830895CA017C
:101A600057FD079633E0959587953A95E1F7A48160
:101A7000B5818A9F90018B9F300D9A9F300D112464
:101A8000620F731F078CF0A1E02DE60FF71F477060
:101A9000552781E090E001C0880F4A95EAF78095CC
:101AA00090818923DACFCA0157FD079623E09595E7
:101AB00087952A95E1F7A481B5818A9F90018B9F34
:101AC000300D9A9F300D1124620F731F078CF0A107
:101AD000E02DE60FF71F4770552721E030E001C0E9
:101AE000220F4A95EAF780818227B7CF08958EBDED
:101AF00000000DB407FEFDCF8EB508958CBD9DBDD1
:101B000008950895FC016370668B84819581268118
:101B10003781613039F0633029F0918780873387CE
:101B200022870895318720879387828708952F928F
:101B30003F924F925F926F927F928F929F92AF925D
:101B4000BF92CF92DF92EF92FF920F931F93CF93AA
:101B5000DF93CDB7DEB76A970FB6F894DEBF0FBE3E
:101B6000CDBF9A8F898F7A8369834A01D22E1887D5
:101B70000F833701BC2CDC0159962D913C915A976B
:101B80002115310509F015C118968D919C91199771
:101B9000681779070CF0D7C11A968D919C91481758
:101BA00059070CF0D0C14C2C512CB6E0CB9E600DE7
:101BB000711D11247C876B87161617060CF0C3C1A4
:101BC000EA2DF0E0FA87E98793E0EE0FFF1F9A9580
:101BD000E1F7F88BEF87CF01840F951F18161906D0
:101BE0000CF0B1C1A98DBA8D58968C91811104C0A9
:101BF000BFEABD1508F4D394A98DBA8DED91FC917F
:101C000011970284F385E02DCD010995B5E0DB9EA7
:101C1000C0011124E981FA81FC83EB83312C212C52
:101C20009C0128593F4F388F2F8B4A2D50E05E8BF7
:101C30004D8BEF89F88DE20DF31D44919E828D82CC
:101C4000D12CC12C69817A81620D731D7A8B698BCD
:101C5000842F90E09C8B8B8BE98DFA8DA081B181D4
:101C600040FF82C0F1E0BF126FC0AF126DC01C9682
:101C7000ED91FC912F813885A4014C0D5D1D698982
:101C80007A89898D9A8D0995EB89FC89F595E79577
:101C90004E2F5FEFC51AD50A6D817E818D899E8991
:101CA000680F791F7E836D8398E0C916D10481F691
:101CB000AFEF2A1A3A0AEB81FC81E40DF51DFC8393
:101CC000EB83F5E02F16310409F0B3CF2F8138856F
:101CD00026153705B9F0A98DBA8DED91FC91B1E0CB
:101CE000BB1257C0AB1255C069817A816B5F7F4FC1
:101CF0000088F189E02D830128E030E0A401898D7E
:101D00009A8D0995A98DBA8DED91FC911197068850
:101D1000F789E02DCD016A960FB6F894DEBF0FBEAD
:101D2000CDBFDF91CF911F910F91FF90EF90DF908A
:101D3000CF90BF90AF909F908F907F906F905F906B
:101D40004F903F902F9009941E96ED91FC91EF805B
:101D5000F88409851A8592014D815E816B817C81B1
:101D6000898D9A8D099590CF2F8138852615370555
:101D700009F48ACF31E0B31207C0A31205C01C9644
:101D8000ED91FC91930178CF1E96ED91FC9173013A
:101D9000E0CF6B857C85641975090684F785E02D95
:101DA00073010F8518899201A401898D9A8D099577
:101DB000A9CFF90134969491329745915491D91A4B
:101DC000B7E0DB9E400D511D1124F901259134919E
:101DD0003C8B2B8BFA0125903490FA01329674904B
:101DE00031963491398B329664903196449041E02B
:101DF0004C1518F04A1508F07FC0662D062C000C13
:101E0000770B7C836B83842D042C000C990B9E83B1
:101E10008D83A98DBA8DED91FC9111970284F38584
:101E2000E02DCD010995512CD12CC12CEA2DF0E0EB
:101E3000FA87E9872B2D30E03C872B87A401440DDE
:101E4000511D47FC5A95588F4F8B69817A81660DD9
:101E5000711D67FC7A957E876D877989C71608F0B2
:101E600051CF2C2D30E04D815E81420F531FA9854B
:101E7000BA854A9FC0014B9F900D5A9F900D112427
:101E8000FC01E80DF91DF88BEF87852D612C4F893A
:101E9000588D420F531F5E8B4D8B671408F050C056
:101EA00044244394480E877041F4C1010196EB89A4
:101EB000FC89E20DF31DD4901C01D7FE19C0A98D39
:101EC000BA8DED91FC91662D70E0B1E0BB1219C0A6
:101ED000AB1217C02D853E85620F731F0484F585F4
:101EE000E02D2F8138854D895E89898D9A8D0995E0
:101EF000DD0C6394842DD1CF1E821D821C821B8237
:101F000088CF4B815C81640F751FAB85BC856A9F50
:101F1000C0016B9F900D7A9F900D112469817A8189
:101F2000680F791F0684F785E02DEF80F884098516
:101F30001A859D014F855889898D9A8D0995D8CF2D
:101F4000570CC3948ACF6A960FB6F894DEBF0FBEC3
:101F5000CDBFDF91CF911F910F91FF90EF90DF9058
:101F6000CF90BF90AF909F908F907F906F905F9039
:101F70004F903F902F9008958F929F92AF92CF9263
:101F8000EF92FF920F931F93CF93DF93EC01262FD5
:101F9000898D9A8D009709F051C06A30D1F41D8661
:101FA0001C868D8948E0849F900111248E859F8531
:101FB000820F931F9F878E8781E090E0DF91CF9102
:101FC0001F910F91FF90EF90CF90AF909F908F90C7
:101FD00008956D3089F3CC88AD888F898823C1F04E
:101FE0008C859D8536E0C39E800D911D112448850A
:101FF00059854817590764F44E855F851D861C86F0
:1020000038E0A39EC0011124840F951F9F878E87FF
:10201000EA88FB88088919894E855F856C857D85EE
:10202000CE010E94970D2C898C859D8546E0249FCA
:10203000800D911D11249D878C87BECF6A3069F475
:102040001D861C86FC013896E4912D898E859F851E
:10205000E29F800D911D1124ADCF6D3009F4ACCFFE
:10206000FC0134963491631708F4A6CF3296E491BC
:10207000E61708F4A1CFFC01329685909490462F84
:10208000431B342F47E0349F800C911C1124F40132
:10209000329634913196E4913323A9F1EE2399F1EC
:1020A000CC88F4013596E491AD884F89442301F141
:1020B0000E2E000CFF0BE30FF11DCE9EA001CF9E54
:1020C000500D11246C857D85460F571F68857985D5
:1020D000641775076CF44E855F851D861C86FC01B0
:1020E0003896E491AE9E400D511D11245F874E87B6
:1020F000EA88FB88088919894E855F856C857D850E
:10210000CE010E94970DF4013496E4912C898C85C0
:102110009D85E29F800D911D11248DCF6F927F923E
:102120008F929F92AF92BF92CF92DF92EF92FF92E7
:102130000F931F93CF93DF93EC016B015A01390189
:102140004801E881F9810284F385E02D0995E88151
:10215000F9810288F389E02D87019301A501B60179
:10216000CE010995A501480D591D41505109E8813D
:10217000F9810288F389E02D9301B601CE0109951A
:10218000E881F9810088F189E02D9401A501B6016B
:10219000CE010995C60CD71CB60161507109E881C2
:1021A000F9810088F189E02D9401A501CE010995FE
:1021B000E881F9810688F789E02DCE01DF91CF9182
:1021C0001F910F91FF90EF90DF90CF90BF90AF9055
:1021D0009F908F907F906F9009946F927F928F92D3
:1021E0009F92AF92BF92CF92DF92EF92FF920F93A6
:1021F0001F93CF93DF935C01EB016A014901380122
:102200008701DC01ED91FC916217730719F56416E3
:1022100075062CF0962D872D3A01C92ED82E9601E1
:10222000261937092F5F3F4F048CF58DE02DA30150
:10223000BE01C5010995DF91CF911F910F91FF90CC
:10224000EF90DF90CF90BF90AF909F908F907F9056
:102250006F9008954615570591F42617370724F017
:10226000892D4B01C22FD82F9E01281939092F5FC4
:102270003F4F068CF78DE02DA601B401DACF028422
:10228000F385E02D0995D501ED91FC910488F58940
:10229000E02D83019401A601BE01C5010995D50178
:1022A000ED91FC910688F789E02DC501DF91CF9172
:1022B0001F910F91FF90EF90DF90CF90BF90AF9064
:1022C0009F908F907F906F900994EF92FF920F9361
:1022D0001F93DC011A960D911C911B9718962D9156
:1022E0003C911997ED91FC9100A0F1A1E02D7B01AB
:1022F00050E040E070E060E009951F910F91FF9081
:10230000EF9008954F925F926F927F928F929F927B
:10231000AF92BF92CF92DF92EF92FF920F931F93F3
:10232000CF93DF936C012B015A0139014801DC0185
:10233000ED91FC910284F385E02D0995E201640C96
:10234000751CD601ED91FC91C615D7055CF400888B
:10235000F189E02D87019401A501BE01C60109950F
:102360002196EFCF0688F789E02DC601DF91CF9146
:102370001F910F91FF90EF90DF90CF90BF90AF90A3
:102380009F908F907F906F905F904F9009948F9265
:102390009F92AF92BF92CF92DF92EF92FF920F93F4
:1023A0001F93CF93DF93EC015B014A016901E88140
:1023B000F9810284F385E02D099595012C0D3D1DD1
:1023C00021503109E881F9810488F589E02D7801EF
:1023D0008401A401B501CE010995E881F98106883F
:1023E000F789E02DCE01DF91CF911F910F91FF90E2
:1023F000EF90DF90CF90BF90AF909F908F90099417
:102400008F929F92AF92BF92CF92DF92EF92FF9204
:102410000F931F93CF93DF93EC015B014A01690196
:102420007801E881F9810284F385E02D0995C80CD3
:10243000D91C860101501109E881F9810488F589C8
:10244000E02D9501A401B501CE010995E881F9813E
:102450000688F789E02DCE01DF91CF911F910F9172
:10246000FF90EF90DF90CF90BF90AF909F908F90B4
:102470000994EF92FF920F931F93DC01ED91FC9171
:1024800000A0F1A1E02D09951F910F91FF90EF9011
:1024900008950F931F93DC01ED91FC91068CF78D4D
:1024A000E02D09951F910F9108950F931F93DC0163
:1024B000ED91FC91048CF58DE02D09951F910F9104
:1024C0000895DC01ED91FC910084F185E02D0994E3
:1024D0003F924F925F926F927F928F929F92AF92B4
:1024E000BF92CF92DF92EF92FF920F931F93CF9301
:1024F000DF9300D000D0CDB7DEB75C013B016A01AD
:102500004901280187E0480E511C93E055944794F7
:102510009A95E1F7CA018E0D9F1D9A838983F12C4C
:10252000E12C312C1C821B828B819C818770992726
:10253000330C892B61F4EB81FC8183E0F595E79501
:102540008A95E1F7EE0DFF1DE80DF91D349037FE79
:102550000AC021E030E0A6016B817C81660D771D09
:10256000C5010E9461128B819C8101969C838B83A3
:1025700008171907C9F69FEFC91AD90AE40CF51C08
:1025800089819A81C816D90669F60F900F900F902D
:102590000F90DF91CF911F910F91FF90EF90DF90FF
:1025A000CF90BF90AF909F908F907F906F905F90F3
:1025B0004F903F9008952F923F924F925F926F926B
:1025C0007F928F929F92AF92BF92CF92DF92EF92C3
:1025D000FF920F931F93CF93DF9300D000D000D0D2
:1025E000CDB7DEB73C016A013E832D83FC82EB82CE
:1025F0005801A41AB50AB7FE03C0B194A194B1085A
:102600008D809E80861A970A97FE03C091948194CC
:1026100091088A149B045CF0902F812F0D811E81FC
:102620009D838E839C2D8D2D6B01692F782F0C152A
:102630001D055CF09D818E817E836D83692F782FCF
:10264000902F812F8601C92ED82E1601201A310A0B
:102650002B012D813E81421A530A57FE03C051942B
:1026600041945108710137FE03C03FEFE31AF30AAA
:10267000F594E7948D819E81861797075CF5A1E01C
:10268000B0E0BA83A983C016D1064CF1D301ED9115
:10269000FC910484F585E02D2B813C81A8016D819E
:1026A0007E818A149B041CF04D815E81B801C301B8
:1026B0000995E418F508F7FE0AC02D813E8189814D
:1026C0009A81280F391F3E832D83E20CF31C0F5F84
:1026D0001F4FD9CF2FEF3FEF3A832983D4CF2696D0
:1026E0000FB6F894DEBF0FBECDBFDF91CF911F9123
:1026F0000F91FF90EF90DF90CF90BF90AF909F90A1
:102700008F907F906F905F904F903F902F900895A3
:1027100008952091CC01260F3327331F2132310534
:10272000ECF42091F001FC0190E080E0243069F0AD
:1027300082E00895A091CC012191AC0144555E4FF7
:10274000A40FB52FB11D2C930196861798F3809195
:10275000CC01680F6093CC0180E0089581E008957A
:102760001092F00181E08093F2011092F10161E09A
:1027700082E10E943D0961E083E10E943D09E9EBAD
:10278000F0E080818E7F808380818D7F808388E4EC
:102790008093B80085E48093BC000895CF93DF93C5
:1027A00091E09093AB018823B9F0C091B800D0912B
:1027B000BA008091BC008A7B8093BC0060E082E11B
:1027C0000E943D0960E083E10E943D090E94B01330
:1027D000D093BA00C093B800DF91CF910895E091F3
:1027E000210280912002E81730F4F0E0EA57FE4F12
:1027F000808190E008958FEF9FEF089590912102DE
:10280000809120022FEF3FEF981748F4E92FF0E076
:10281000EA57FE4F208130E09F5F90932102C9016B
:1028200008958091200290912102891B990B0895AF
:10283000CF92DF92EF92FF920F931F93CF93DF938C
:102840007C01CB018A0120912902222389F0EB012E
:102850006B01C40ED51ECC15DD0569F06991D70159
:10286000ED91FC910190F081E02DC7010995F3CF26
:10287000642F0E948913C801DF91CF911F910F919E
:10288000FF90EF90DF90CF900895CF93DF931F924A
:10289000CDB7DEB76983209129022223F9F0209178
:1028A0002602203258F021E030E0FC0133832283FD
:1028B00090E080E00F90DF91CF9108958091270202
:1028C000E82FF0E0EA59FE4F998190838F5F809363
:1028D00027028093260281E090E0ECCF61E0CE01F8
:1028E00001960E948913F7CFCF92DF92EF92FF9269
:1028F0000F931F93CF93DF93D091260281E0D132C3
:1029000008F09CC0C09128020E94BA096B017C01AA
:102910008091F00181116CC082E08093F00181E030
:102920008093F2018FEF8093EF0110921402D09305
:102930001302A6E6B1E0E3EFF1E080E0D8138DC02A
:102940001092150280911502CC0FC82BC09315026E
:102950008091F101813009F084C01092F1010E9450
:10296000BA096B017C01809115028093BB008091B4
:10297000A7019091A801A091A901B091AA01892B6A
:102980008A2B8B2BA1F00E94BA090091A70110910C
:10299000A8012091A9013091AA016C197D098E0925
:1029A0009F09061717072807390708F442C08091C6
:1029B000BC0083FDD8CF85EC8093BC000E94BA098F
:1029C0006B017C018091F001823009F44CC0809150
:1029D000EF018F3F09F469C08091EF01803209F463
:1029E00066C08091EF01803309F463C084E026C0A3
:1029F0008091A7019091A801A091A901B091AA018D
:102A0000892B8A2B8B2B09F483CF0E94BA09009162
:102A1000A7011091A8012091A9013091AA016C1978
:102A20007D098E099F09061717072807390708F03F
:102A30006FCF8091A6010E94CE1385E010922702ED
:102A40001092260210922902DF91CF911F910F91CF
:102A5000FF90EF90DF90CF9008959D9191938F5FBD
:102A60006DCF85EEA9CF8091A7019091A801A0918B
:102A7000A901B091AA01892B8A2B8B2B09F4A2CF33
:102A80000E94BA090091A7011091A8012091A90103
:102A90003091AA016C197D098E099F090617170745
:102AA0002807390708F08ECFC4CF80E0C7CF82E077
:102AB000C5CF83E0C3CFEF92FF920F931F93CF93C5
:102AC000DF937C01C62F809103039091040300974C
:102AD00009F459C02091070331E030932902209373
:102AE00028021092270210922602DC01ED91FC913F
:102AF0000190F081E02D60E009958701EE24E394D8
:102B0000F12CD1E0C1508091030390910403CF3F99
:102B100091F1B0E2EB16F104D8F00E9474148091A8
:102B200003039091040320910703D093290220937B
:102B300028021092270210922602DC01ED91FC91EE
:102B40000190F081E02D60E00995EE24E394F12CF2
:102B50008091030390910403F8016491DC01ED91ED
:102B6000FC910190F081E02D0995BFEFEB1AFB0A73
:102B70000F5F1F4FC7CFDF91CF911F910F91FF9034
:102B8000EF900C947414E0911303F091140390816E
:102B9000809119038095892380838701C15008F4AF
:102BA00038C0F80184912091010330910203232B56
:102BB00029F00E94770D0F5F1F4FF0CF28E030E023
:102BC00040E8E0910F03F091100390911703582F04
:102BD0005423D9F05081952B9083E0911103F0910B
:102BE0001203908150911803952B9083E09111036B
:102BF000F091120350819091180390959523908342
:102C0000469521503109E9F6D6CF5081909595230C
:102C1000E3CFDF91CF911F910F91FF90EF90089537
:102C20001F93CF93DF93EC018D8D9E8D009721F143
:102C3000162F29A131E03093290220932802109207
:102C4000270210922602DC01ED91FC910190F081A7
:102C5000E02D60E009958D8D9E8DDC01ED91FC915C
:102C60000190F081E02D612F09958D8D9E8DDF9172
:102C7000CF911F910C947414ADA5BEA59C918BA906
:102C8000809589238C938B8D9C8D892B31F0862F99
:102C9000DF91CF911F910C94770D28E030E080E810
:102CA000A9A5BAA599A9462F4823C1F04C91942B08
:102CB0009C93ABA5BCA59C914AA9942B9C93ABA5D6
:102CC000BCA54C919AA9909594239C9386952150EC
:102CD000310931F7DF91CF911F9108954C91909573
:102CE0009423E6CFDF92EF92FF920F931F93CF933F
:102CF000DF938091030390910403892B09F498C01A
:102D000020911B0330911C0340911D0350911E0321
:102D100060E074E284EF90E00E9452222051310979
:102D20004109510956954795379527952093B80045
:102D300065E08CE19FE00E945B156091EA026150C2
:102D400086EE92E00E9410162091EC023091ED0286
:102D5000C901079697FD079633E0959587953A95B3
:102D6000E1F72091EA023091EB02829F8001839F7C
:102D7000100D929F100D1124C0910503D0910603F0
:102D800080910303909104030C0F1D1F009709F419
:102D90008FC02091070331E030932902209328024D
:102DA0001092270210922602DC01ED91FC91019015
:102DB000F081E02D60E40995EE24E394F12CDD240C
:102DC000D39480910303909104030C171D0709F419
:102DD00046C0B0E2EB16F104D8F00E947414809162
:102DE00003039091040320910703D09229022093BA
:102DF00028021092270210922602DC01ED91FC912C
:102E00000190F081E02D60E40995EE24E394F12C2B
:102E100080910303909104036991DC01ED91FC9191
:102E20000190F081E02D0995BFEFEB1AFB0AC9CFA5
:102E30008091010390910203892B31F0809124034A
:102E4000909125030E947E0DE0911503F0911603E9
:102E5000908180911A0380958923808369CF0E9495
:102E600074148091030390910403892B09F461C0C9
:102E700020911F03309120034091210350912203A0
:102E800060E074E284EF90E00E9452222051310908
:102E90004109510956954795379527952093B800D4
:102EA000DF91CF911F910F91FF90EF90DF900895E8
:102EB000E0911303F0911403808190911903892B01
:102EC00080830C171D0769F28991209101033091CD
:102ED0000203232B19F00E94770DF3CF28E030E096
:102EE00040E8E0910F03F091100390911703582FE1
:102EF0005423D9F05081952B9083E0911103F091E8
:102F00001203908150911803952B9083E091110347
:102F1000F09112035081909118039095952390831E
:102F2000469521503109E9F6CCCF508190959523F3
:102F3000E3CFE0911503F0911603808190911A037D
:102F4000892B8083ADCF1F93CF93DF93EC01162F96
:102F50008D8D9E8D892BB1F12DA93EA94FA958AD1C
:102F600060E074E284EF90E00E9452222051310927
:102F70004109510956954795379527952093B800F3
:102F800066EA111167EACE010E9410168D8D9E8DA2
:102F9000892B41F129AD3AAD4BAD5CAD60E074E2F7
:102FA00084EF90E00E9452222051310941095109D9
:102FB00056954795379527952093B800DF91CF9187
:102FC0001F9108958B8D9C8D892B21F08EAD9FAD27
:102FD0000E947E0DEFA5F8A990818CA98095892388
:102FE0008083CECFEFA5F8A980819CA9892B80830F
:102FF000E5CF90E080E008952091EC023091ED0261
:10300000C901079697FD079623E0959587952A9520
:10301000E1F72091EA023091EB02829FA001839FA9
:10302000500D929F500D112470E060E080910503D7
:10303000909106030C94A4230E949F23FB0101900E
:103040000020E9F73197AF01461B570BDC01ED91EA
:10305000FC910280F381E02D09948F929F92AF92B0
:10306000BF920F931F93CF93DF93CDB7DEB7A19796
:103070000FB6F894DEBF0FBECDBF19A2423008F4E0
:103080004AE08E010F5D1F4F842E912CB12CA12C94
:10309000A50194010E945222E62FB901CA01EA302B
:1030A00004F5E05DD801EE938D01232B242B252B15
:1030B00079F790E080E0109729F0BD0186EE92E06C
:1030C0000E941E18A1960FB6F894DEBF0FBECDBFAA
:1030D000DF91CF911F910F91BF90AF909F908F90F4
:1030E0000895E95CDFCF4F925F926F927F928F924B
:1030F0009F92AF92BF92CF92DF92EF92FF920F9387
:103100001F93CF936B017C01742EAC019B010E9435
:103110004D2266E571E0811126C046015701E89411
:10312000B7F82FEF3FEF4FE75FE7C501B4010E940B
:103130004D2281110CC02FEF3FEF4FE75FE7C50134
:10314000B4010E9483206AE571E0181664F02FEF45
:103150003FEF4FE75FE4C701B6010E94DB2118167D
:10316000ACF46EE571E086EE92E0CF911F910F9185
:10317000FF90EF90DF90CF90BF90AF909F908F9097
:103180007F906F905F904F900C941E182FEF3FEF41
:103190004FE75FECC701B6010E94832087FDE1CFB6
:1031A00020E030E0A901C701B6010E94832010E0B1
:1031B00000E087FF0AC06DE286EE92E00E94BC0F3D
:1031C0008C01F7FAF094F7F8F094C0E060E070E05A
:1031D00080E09FE37C1641F020E030E040E251E4E3
:1031E0000E948820CF5FF6CFA70196010E9417208A
:1031F0002B013C010E94FA204B015C014AE00E9435
:103200002D187C01E00EF11ECC23C1F1C501B401E3
:103210000E9429219B01AC01C301B2010E9416202A
:103220004B015C016EE286EE92E00E94BC0FE80E5C
:10323000F91EC15018F120E030E040E251E4C50130
:10324000B4010E94E0212B013C010E94FA204B01B5
:10325000B12CA12C4AE0C501B4010E942D18E80E42
:10326000F91EC501B4010E9429219B01AC01C301D3
:10327000B2010E9416204B015C01DBCFC701CF9148
:103280001F910F91FF90EF90DF90CF90BF90AF9084
:103290009F908F907F906F905F904F90089585EDF5
:1032A0008093BC008091A7019091A801A091A901F1
:1032B000B091AA010796A11DB11D23E0B695A7956F
:1032C000979587952A95D1F72091BC0024FD03C0DE
:1032D0001092F00108954091A7015091A8016091CA
:1032E000A9017091AA01452B462B472B69F3009742
:1032F000A105B10541F025E32A95F1F700000197FA
:10330000A109B109E1CF8091A6010C94CE131F92BF
:103310000F920FB60F9211242F933F934F935F9309
:103320006F937F938F939F93AF93BF93EF93FF938D
:103330008AE292E00E944708FF91EF91BF91AF911E
:103340009F918F917F916F915F914F913F912F91BD
:103350000F900FBE0F901F9018951F920F920FB6EF
:103360000F9211242F938F939F93EF93FF93E091EC
:103370003A02F0913B028081E0914002F0914102DB
:1033800082FD1BC09081809143028F5F8F732091DB
:103390004402821741F0E0914302F0E0E65DFD4F08
:1033A000958F80934302FF91EF919F918F912F9181
:1033B0000F900FBE0F901F9018958081F4CF1F9231
:1033C0000F920FB60F9211242F933F938F939F93D9
:1033D000AF93BF938091220290912302A091240287
:1033E000B09125023091160223E0230F2D3758F5B6
:1033F0000196A11DB11D2093160280932202909385
:103400002302A0932402B093250280911702909189
:103410001802A0911902B0911A020196A11DB11DC6
:103420008093170290931802A0931902B0931A0286
:10343000BF91AF919F918F913F912F910F900FBEB0
:103440000F901F90189526E8230F0296A11DB11D1D
:10345000D2CF1F920F920FB60F9211242F933F934A
:103460004F935F936F937F938F939F93AF93BF938C
:10347000EF93FF938091B900887F803609F44AC0AA
:10348000F0F5883209F4A7C018F5803109F49BC023
:10349000B8F4882309F4F9C0883009F494C0FF9186
:1034A000EF91BF91AF919F918F917F916F915F91BC
:1034B0004F913F912F910F900FBE0F901F90189535
:1034C000883109F488C0803251F78093EF0114C02D
:1034D000803409F49DC040F48033B9F38833F9F6A1
:1034E0008093EF0185ECB0C0803509F485C0883544
:1034F00009F496C0883499F60E944F19D0CF8839C4
:1035000009F48CC038F5883729F050F4883611F06A
:10351000803729F683E08093F0011092EE0157C0C6
:10352000883809F47BC0803919F0803809F0B7CFAA
:103530008091EE01803208F071C0E091EE0181E0EF
:103540008E0F8093EE018091BB00F0E0E253FE4FBE
:1035500080833DC0803B39F0E0F4803A09F479C0C3
:10356000883A09F09CCF84E08093F0011092CD015D
:103570001092CC01E0911E02F0911F0209958091FA
:10358000CC0181110FC081E08093CC011092AC017D
:1035900009C0803C09F4A6CF883C09F4A3CF883B3E
:1035A00009F07DCFE091CD0181E08E0F8093CD01B8
:1035B000F0E0E455FE4F80818093BB009091CD01F7
:1035C0008091CC0129C0809115028093BB0085ECCD
:1035D0008093BC0064CF90911402809113029817DD
:1035E00058F5E091140281E08E0F80931402F0E010
:1035F000ED50FE4F8081E9CFE091140281E08E0F03
:10360000809314028091BB00F0E0ED50FE4F808368
:1036100090911402809113029817C8F285E8D8CFD0
:10362000E091140281E08E0F809314028091BB0020
:10363000F0E0ED50FE4F80838091F20181115CCF6C
:1036400081E08093F10184EA8093BC001092F00144
:1036500026CF85EC8093BC001092F0018091EE01A2
:10366000803230F4E091EE01F0E0E253FE4F108240
:103670006091EE0170E0E0911C02F0911D028EEC71
:1036800091E009951092EE010ACF1092EF0134CF2C
:10369000EAE2F2E01382128248EE53E060E070E06A
:1036A00044835583668377838AE091E091838083A6
:1036B00085EC90E09587848784EC90E097878687F7
:1036C00080EC90E0918B808B81EC90E0938B828BEF
:1036D00082EC90E0958B848B86EC90E0978B868BC8
:1036E000118E128E138E148EAAEDB2E013961C92D8
:1036F0001E92129714964D935D936D937C9317973A
:103700008CE191E011969C938E93E6EEF2E01382A9
:10371000128220E830E03583248380E490E09783B0
:1037200086833187208793878287168A1586148639
:103730001786168681E0858B848B2FEF3FEF338BC6
:10374000228B318B208B878B108E128E118E8EE206
:1037500091E091838083148E138EB68FA58F10A273
:10376000178E8FEF84A385A386A387A380A780E805
:103770009AE1A6E0B0E085AB96ABA7ABB0AF80EA2C
:1037800096E8A1E0B0E081AF92AFA3AFB4AF80E51F
:1037900086AF17AEA7ECB2E082E015968C93159732
:1037A0008BE016968C931697E7E3FFE0E49117966B
:1037B000EC931797E3E2FFE0E4911896EC931897E7
:1037C00040E85EE360E070E01D964D935D936D937D
:1037D0007C9350970895789484B5826084BD84B5B5
:1037E000816084BD85B5826085BD85B5816085BDFC
:1037F00080916E00816080936E00109281008091B4
:10380000810082608093810080918100816080933B
:103810008100809180008160809380008091B10060
:1038200084608093B1008091B00081608093B0008B
:1038300080917A00846080937A0080917A0082601F
:1038400080937A0080917A00816080937A008091E1
:103850007A00806880937A001092C10080910503FD
:1038600090910603892B71F52091EC023091ED02C5
:10387000C901079697FD0796A3E095958795AA95A8
:10388000E1F72091EA023091EB02AC01429FC001C6
:10389000439F900D529F900D11240E947A22909385
:1038A000060380930503892B69F462E57AE08AE2D6
:1038B00092E00E94EC0862E671E08AE292E00E94E7
:1038C0001E18FFCF0E94FC178091EC029091ED0230
:1038D0006091EA027091EB02AC0181970CF452C145
:1038E0004054510957FF02C04F5F5F4F55954795B0
:1038F0006255710977FF02C06F5F7F4F75956795BD
:10390000E0E4EE2EF12C02E510E022E937E086EE4D
:1039100092E00E94681282E0809308038091030382
:1039200090910403892B09F445C18CE3809307032C
:103930001092210210922002109227021092260269
:103940000E94B0138AEE98E090931F0280931E02AB
:103950008BEE98E090931D0280931C0280910E03E1
:1039600087FD1EC061E00E94890961E080910E031D
:103970000E943D0961E070E080E090E00E94DF0974
:1039800060E080910E030E943D096AE070E080E0F3
:1039900090E00E94DF0961E080910E030E943D09E2
:1039A0008091030390910403892B09F4C2C12091F3
:1039B0001B0330911C0340911D0350911E0360E0D6
:1039C00074E284EF90E00E945222205131094109B3
:1039D000510956954795379527952093B80064E08F
:1039E00084EA95E00E945B156091EC02615086EEDE
:1039F00092E00E94101664E080EA95E00E945B1558
:103A00008091080360E1813009F064E186EE92E084
:103A10000E94101664E08CE995E00E945B158FE827
:103A2000809323038091EA029091EB028038910504
:103A300009F098C18091EC029091ED0280349105DB
:103A400009F0A0C180910803813009F089C18FE994
:103A500080932303C2E16AED86EE92E00E94101685
:103A60006C2F86EE92E00E94101661E886EE92E0DE
:103A70000E9410166091230386EE92E00E941016B9
:103A800069ED86EE92E00E9410168091080362E2D2
:103A9000813009F061EF86EE92E00E94101666E038
:103AA00086E995E00E945B158091030390910403E1
:103AB000892B09F46BC120911F03309120034091A1
:103AC00021035091220360E074E284EF90E00E94B1
:103AD0005222205131094109510956954795379590
:103AE00027952093B8000E94FC1781E08093FA028A
:103AF0008093FB0281E090E09093F9028093F802BA
:103B00009093F7028093F6020E94721662E0809111
:103B1000CC020E9489092FB7F894809122029091DB
:103B20002302A0912402B09125022FBF805D97400F
:103B3000A109B1098093D0029093D102A093D2023F
:103B4000B093D30287E38093D902CC24C394D12CC1
:103B5000C8E2D0E05AE0252E312C0E94110A8823B9
:103B600051F08091CD028C3009F477C108F018C172
:103B70008B3009F433C1812C912C20ECA22E2FE73D
:103B8000B22E56C14052510957FF02C04F5F5F4FDE
:103B9000559547956357710977FF02C06F5F7F4F57
:103BA0007595679590E2E92EF12C03E710E022EB82
:103BB00035E0ADCE61E080910C030E94890961E09F
:103BC00080910D030E94890980910C03082E000C3E
:103BD000990BFC01EF5DF04FE491F0E0EE0FFF1F59
:103BE000E855FA4F25913491309314032093130331
:103BF000FC01EB5CF04FE491E093190380910D031D
:103C0000082E000C990BFC01EF5DF04FE491F0E001
:103C1000EE0FFF1FE855FA4FA591B491B09316032C
:103C2000A0931503FC01EB5CF04FE491E0931A03C1
:103C30008C91E82BEC938091010390910203892BE6
:103C400009F434C0CFB7F89480911B02811127C0CA
:103C5000EBE2FFE08491EFE3FFE09491E82FF0E0E6
:103C6000EE0FFF1FE457FA4FA591B491EC91E923B1
:103C700021F461E08AE00E943D0961E08AE00E944F
:103C800089098CB580618CBD8CB580648CBD61E088
:103C90008DE00E94890961E08BE00E948909809192
:103CA0001B028F5F80931B02CFBF58CE61E08091D3
:103CB0000A030E94890961E080910B030E9489092F
:103CC00080910A03082E000C990BFC01EF5DF04F68
:103CD000E491F0E0EE0FFF1FE855FA4F2591349183
:103CE0003093100320930F03FC01EB5CF04FE49141
:103CF000E093170380910B03082E000C990BFC0135
:103D0000EF5DF04FE491F0E0EE0FFF1FE855FA4F42
:103D1000A591B491B0931203A0931103FC01EB5C45
:103D2000F04FE491E09318038C91E095E823EC9335
:103D300015CE8091010390910203892B31F080917F
:103D40002403909125030E947E0DE0911503F091CC
:103D50001603908180911A038095892380833FCE3A
:103D60008FEC76CE8036910569F48091EC029091CB
:103D7000ED02409739F480910803813029F480E105
:103D800080932303C2E067CE8FEAFACFE091150358
:103D9000F0911603808190911A03892B8083A3CE22
:103DA0008551823008F0E7CE1091C902612F70E092
:103DB000762F662766277F778091CA02682B90E06E
:103DC00080E00E9429212DEC3CEC4CEC5DE30E944C
:103DD000E0214B015C0117FF2BC05FC06091C9025D
:103DE00070E090E080E00E9429214B015C0110917D
:103DF000CA0217FF0AC0AC019B0160E070E080E8D6
:103E00009FEB0E9416204B015C011F70612F70E038
:103E100090E080E00E942B212DEC3CEC4CEC5DE32B
:103E20000E94E021A50194010E9417204B015C0132
:103E30000E94110A882351F08091CD028B3030F01E
:103E40008D3080F18551823008F4CFC0412C512C47
:103E500090EC692E9FE7792E43C07090C902672DC0
:103E600070E090E080E00E9429214B015C016091AC
:103E7000CA026F7070E090E080E00E942B212DEC70
:103E80003CEC4CEC5DE30E94E021A50194010E9412
:103E900017204B015C0177FECBCFB7FAB094B7F88F
:103EA000B094C6CF6091C80270E090E080E00E94BC
:103EB0002B212DEC3CEC4CEC5DE30E94E0212B012E
:103EC0003C016091C70270E090E080E00E942B21ED
:103ED0009B01AC01C301B2010E9417202B013C01E0
:103EE0000E94FC1780E2E82EF12C00E210E022E1B3
:103EF0003BE050E040E070E060E086EE92E00E943F
:103F0000681251E05093FA025093FB02D092F902EA
:103F1000C092F802D092F702C092F602D093F30258
:103F2000C093F2023092F5022092F40265E07BE049
:103F300086EE92E00E94EC08D093F302C093F20266
:103F400084E190E09093F5028093F40242E0C50191
:103F5000B4010E94731862E07BE086EE92E00E945A
:103F6000EC0822E83AE040E250E070E060E086EEE3
:103F700092E00E946812D093F302C093F2024AE2E8
:103F800050E05093F5024093F40269E77AE086EE40
:103F900092E00E94EC08D093F302C093F20284E313
:103FA00090E09093F5028093F40242E0C301B201E5
:103FB0000E94731866E77AE086EE92E00E94EC08B1
:103FC0000E94721660ED77E080E090E00E94DF09C9
:103FD00040E050E0452B09F4C0CD0E94D60888236C
:103FE00009F4BBCD0E940000B8CD6091C70270916A
:103FF000C80276276727762790E080E00E94292173
:104000002DEC3CEC4CEC5DE30E94E02167CF8EE2AE
:1040100091E09093E7028093E602809105039091EE
:104020000603009711F00C94162308955058BB27EF
:10403000AA270E942E200C94A1210E94932138F0DF
:104040000E949A2120F039F49F3F19F426F40C9431
:1040500090210EF4E095E7FB0C948A21E92F0E9451
:10406000B22158F3BA17620773078407950720F047
:1040700079F4A6F50C94D4210EF4E0950B2EBA2F0A
:10408000A02D0B01B90190010C01CA01A00111245E
:10409000FF27591B99F0593F50F4503E68F11A160A
:1040A000F040A22F232F342F4427585FF3CF46959B
:1040B00037952795A795F0405395C9F77EF41F16BD
:1040C000BA0B620B730B840BBAF09150A1F0FF0F87
:1040D000BB1F661F771F881FC2F70EC0BA0F621F73
:1040E000731F841F48F4879577956795B795F79563
:1040F0009E3F08F0B0CF9395880F08F09927EE0FF8
:104100009795879508950E94662108F481E00895A7
:104110000E949C200C94A1210E949A2158F00E9498
:10412000932140F029F45F3F29F00C948A2151112A
:104130000C94D5210C9490210E94B22168F399230C
:10414000B1F3552391F3951B550BBB27AA27621793
:104150007307840738F09F5F5F4F220F331F441FA0
:10416000AA1FA9F335D00E2E3AF0E0E832D09150D4
:104170005040E695001CCAF72BD0FE2F29D0660FC1
:10418000771F881FBB1F261737074807AB07B0E804
:1041900009F0BB0B802DBF01FF2793585F4F3AF00A
:1041A0009E3F510578F00C948A210C94D5215F3FF5
:1041B000E4F3983ED4F3869577956795B795F79590
:1041C0009F5FC9F7880F911D9695879597F9089578
:1041D000E1E0660F771F881FBB1F62177307840714
:1041E000BA0720F0621B730B840BBA0BEE1F88F723
:1041F000E09508950E94BA2188F09F5798F0B92F52
:104200009927B751B0F0E1F0660F771F881F991F0B
:104210001AF0BA95C9F714C0B13091F00E94D421B8
:10422000B1E008950C94D421672F782F8827B85FC8
:1042300039F0B93FCCF3869577956795B395D9F763
:104240003EF490958095709561957F4F8F4F9F4F6D
:104250000895E89409C097FB3EF490958095709579
:1042600061957F4F8F4F9F4F9923A9F0F92F96E9C2
:10427000BB279395F695879577956795B795F11137
:10428000F8CFFAF4BB0F11F460FF1BC06F5F7F4FD4
:104290008F4F9F4F16C0882311F096E911C07723E6
:1042A00021F09EE8872F762F05C0662371F096E8EF
:1042B000862F70E060E02AF09A95660F771F881FBE
:1042C000DAF7880F9695879597F90895990F000862
:1042D000550FAA0BE0E8FEEF16161706E807F907D8
:1042E000C0F012161306E407F50798F0621B730B73
:1042F000840B950B39F40A2661F0232B242B252BF4
:1043000021F408950A2609F4A140A6958FEF811D96
:10431000811D089597F99F6780E870E060E0089537
:104320009FEF80EC089500240A94161617061806CD
:104330000906089500240A941216130614060506A9
:104340000895092E0394000C11F4882352F0BB0F3A
:1043500040F4BF2B11F460FF04C06F5F7F4F8F4F9D
:104360009F4F089557FD9058440F551F59F05F3FD8
:1043700071F04795880F97FB991F61F09F3F79F087
:1043800087950895121613061406551FF2CF469509
:10439000F1DF08C0161617061806991FF1CF86958B
:1043A0007105610508940895E894BB27662777276F
:1043B000CB0197F908950E94662108F48FEF0895C4
:1043C0000E94F3210C94A1210E94932138F00E94B5
:1043D0009A2120F0952311F00C948A210C949021BD
:1043E00011240C94D5210E94B22170F3959FC1F342
:1043F000950F50E0551F629FF001729FBB27F00D93
:10440000B11D639FAA27F00DB11DAA1F649F6627E7
:10441000B00DA11D661F829F2227B00DA11D621F36
:10442000739FB00DA11D621F839FA00D611D221FF0
:10443000749F3327A00D611D231F849F600D211DD4
:10444000822F762F6A2F11249F5750409AF0F1F057
:1044500088234AF0EE0FFF1FBB1F661F771F881FC0
:1044600091505040A9F79E3F510580F00C948A214D
:104470000C94D5215F3FE4F3983ED4F3869577956D
:104480006795B795F795E7959F5FC1F7FE2B880F66
:10449000911D9695879597F908950E946621880B3E
:1044A000990B0895A1E21A2EAA1BBB1BFD010DC09A
:1044B000AA1FBB1FEE1FFF1FA217B307E407F507D4
:1044C00020F0A21BB30BE40BF50B661F771F881FB0
:1044D000991F1A9469F760957095809590959B0146
:1044E000AC01BD01CF010895EE0FFF1F0590F491BF
:1044F000E02D09940F931F93CF93DF9382309105A2
:1045000010F482E090E0E0912803F091290330E07C
:1045100020E0B0E0A0E0309799F42115310509F4CE
:104520004AC0281B390B24303105D8F58A819B817C
:104530006115710589F1FB0193838283FE0111C02E
:10454000408151810281138148175907E0F04817D3
:10455000590799F4109761F012960C9312971396DD
:104560001C933296CF01DF91CF911F910F91089547
:104570000093280310932903F4CF2115310551F03E
:104580004217530738F0A901DB019A01BD01DF0191
:10459000F801C1CFEF01F9CF90932903809328034D
:1045A000CDCFFE01E20FF31F819391932250310989
:1045B00039832883D7CF2091260330912703232BDB
:1045C00041F420910201309103013093270320939D
:1045D000260320910001309101012115310541F49C
:1045E0002DB73EB74091040150910501241B350BB6
:1045F000E0912603F0912703E217F307A0F42E1BA6
:104600003F0B2817390778F0AC014E5F5F4F241736
:10461000350748F04E0F5F1F509327034093260342
:10462000819391939FCFF0E0E0E09CCFCF93DF9315
:104630000097E9F0FC01329713821282A0912803BF
:10464000B0912903ED0130E020E01097A1F4208122
:104650003181820F931F2091260330912703281761
:10466000390709F061C0F0932703E0932603DF9137
:10467000CF910895EA01CE17DF07E8F54A815B8103
:104680009E0141155105B1F7E901FB83EA83499188
:104690005991C40FD51FEC17FD0761F480819181FA
:1046A0000296840F951FE901998388838281938103
:1046B0009B838A83F0E0E0E012968D919C911397A2
:1046C0000097B9F52D913C911197CD010296820F7B
:1046D000931F20912603309127032817390739F6B5
:1046E000309751F51092290310922803B0932703B5
:1046F000A0932603BCCFD383C28340815181840F12
:10470000951FC817D90761F44E5F5F4F8881998163
:10471000480F591F518340838A819B8193838283F1
:104720002115310509F0B0CFF0932903E093280358
:104730009ECFFD01DC01C0CF13821282D7CF81E072
:1047400090E0F8940C94AB23DC0101C06D934150D0
:104750005040E0F7089517E0C6EAD7E004C0FE0134
:104760000E9474222196C73AD107C9F7F894FFCF67
:1047700000002A03800000000000690810090A08F0
:10478000B6083B0819082D0800000000451418144D
:10479000F917D1071114FE13EF1300000000BC0F2E
:1047A0001009F9178813C70CD10761123912551275
:1047B0004912DB12D107820DA317370C800C82112E
:1047C0006511ED108E106E616E00696E66006F7679
:0647D00066000D0A000066
:00000001FF
