:100000000C945D000C9485000C9485000C94850084
:100010000C9485000C9485000C9485000C9485004C
:100020000C9485000C9485000C9485000C9485003C
:100030000C9485000C9485000C9485000C9485002C
:100040000C94D6020C9485000C9485000C948500C9
:100050000C9485000C9485000C9485000C9485000C
:100060000C9485000C94850000000008000201003B
:100070000003040700000000000000000000000072
:10008000250028002B0000000000240027002A0083
:10009000040404040404040402020202020203032E
:1000A0000303030301020408102040800102040836
:1000B0001020010204081020C80311241FBECFEF36
:1000C000D8E0DEBFCDBF11E0A0E0B1E0ECEDF7E09D
:1000D00002C005900D92A639B107D9F721E0A6E933
:1000E000B1E001C01D92A73BB207E1F710E0CDE5FA
:1000F000D0E004C02197FE010E94E603CC35D10771
:10010000C9F70E9420030C94EC030C94000090E0CB
:10011000FC01EC55FF4F249180579F4FFC018491C7
:10012000882399F090E0880F991FFC01EA57FF4F50
:10013000A591B491FC01E458FF4F859194918FB73C
:10014000F894EC91E22BEC938FBF0895AF92BF929D
:10015000CF92DF92EF92FF920F931F93CF93DF9393
:100160006C017B018B01040F151FEB015E01AE18C2
:10017000BF08C017D10759F06991D601ED91FC91E4
:100180000190F081E02DC6010995892B79F7C50111
:10019000DF91CF911F910F91FF90EF90DF90CF9063
:1001A000BF90AF90089590E0FC01E859FF4F249173
:1001B000FC01EC55FF4F3491FC01E057FF4FE491F7
:1001C000EE23C9F0222339F0233001F1A8F42130C5
:1001D00019F1223029F1F0E0EE0FFF1FE458FF4F34
:1001E000A591B4918FB7F894EC91611126C0309528
:1001F0003E233C938FBF08952730A9F02830C9F0E3
:10020000243049F7809180008F7D03C08091800069
:100210008F7780938000DFCF84B58F7784BDDBCF6D
:1002200084B58F7DFBCF8091B0008F778093B00035
:10023000D2CF8091B0008F7DF9CF3E2BDACF3FB780
:10024000F89480919B0190919C01A0919D01B091A7
:100250009E0126B5A89B05C02F3F19F00196A11D50
:10026000B11D3FBFBA2FA92F982F8827BC01CD0100
:10027000620F711D811D911D42E0660F771F881F5F
:10028000991F4A95D1F70895089590E080E0089568
:10029000FC0101900020E9F73197AF01481B590B91
:1002A000BC018FE991E00C94A60001978D30910577
:1002B00008F037C0FC01E15AFE4F0C94E6036C01D4
:1002C00070017301760179017C017F018201850152
:1002D00088017F018B018E018CE091E00C94480134
:1002E00089E191E0FBCF89E291E0F8CF86E391E0EC
:1002F000F5CF81E491E0F2CF8AE491E0EFCF88E599
:1003000091E0ECCF8EE591E0E9CF8DE691E0E6CF8C
:1003100082E591E0E3CF8BE791E0E0CF88E891E0E0
:10032000DDCF0895CF93DF93EC0160E08E810E94D2
:10033000D30061E08E810E94D30060E08E810E9434
:10034000D3008BE891E00197F1F7DF91CF91089509
:10035000CF92DF92EF92FF920F931F93CF93DF9391
:100360006C017C0187E0E80EF11CD0E0C0E0062FB4
:1003700010E0B8010C2E02C0759567950A94E2F75B
:100380006170F70181917F010E94D3002196C430F2
:10039000D10579F7C601DF91CF911F910F91FF90A1
:1003A000EF90DF90CF900C949201CF92DF92EF927A
:1003B000FF920F931F93CF93DF93EC01F62E642FE0
:1003C0008C810E94D3008D818F3F19F060E00E94E4
:1003D000D3000F2D10E08F8584FF25C06E0187E0CC
:1003E000C80ED11CF12CE12CB8010E2C02C0759561
:1003F00067950A94E2F76170F60181916F010E949E
:10040000D300FFEFEF1AFF0A88E0E816F10461F766
:10041000CE01DF91CF911F910F91FF90EF90DF9070
:10042000CF900C949201B80184E0759567958A95F8
:10043000E1F7CE010E94A8016F2DCE01DF91CF918F
:100440001F910F91FF90EF90DF90CF900C94A80137
:1004500040E0682F8FE991E00C94D501CF93DF93B2
:10046000823029F49091AE0198609093AE01809310
:10047000B2011092B30180E48093B40180E18093D3
:10048000B50180E58093B6018091A3010E948700A9
:100490008091A4018F3F11F00E9487008091A501F7
:1004A0000E948700CFE9D1E09E012F593140809111
:1004B000AE0184FD0AC084E090E021962817390738
:1004C0003CF48E810E948700EFCF88E090E0F5CF6A
:1004D0008BE39DE00197F1F760E08091A3010E941A
:1004E000D30060E08091A5010E94D3008091A40117
:1004F0008F3F19F060E00E94D3008091AE0184FD2F
:1005000039C063E08FE991E00E94A801CBE4D6E412
:10051000CE010197F1F763E08FE991E00E94A80115
:100520002197F1F763E08FE991E00E94A80183E54C
:1005300092E00197F1F762E08FE991E00E94A80153
:100540008091AE0180620E94280284E08093AF0116
:100550008CE00E94280281E00E9428028BE39FE148
:100560000197F1F782E08093B00186E0DF91CF91AF
:100570000C94280280620E9428028BE496E4019782
:10058000F1F78091AE0180620E94280283E592E03B
:100590000197F1F78091AE0180620E942802D0CFCE
:1005A00041E00E94D50181E090E008951F920F92F2
:1005B0000FB60F9211242F933F938F939F93AF9376
:1005C000BF938091970190919801A0919901B0916A
:1005D0009A013091960123E0230F2D3758F50196AB
:1005E000A11DB11D209396018093970190939801CE
:1005F000A0939901B0939A0180919B0190919C01E5
:10060000A0919D01B0919E010196A11DB11D809305
:100610009B0190939C01A0939D01B0939E01BF917B
:10062000AF919F918F913F912F910F900FBE0F909F
:100630001F90189526E8230F0296A11DB11DD2CF59
:10064000789484B5826084BD84B5816084BD85B5AD
:10065000826085BD85B5816085BD80916E008160B9
:1006600080936E001092810080918100826080935F
:100670008100809181008160809381008091800061
:100680008160809380008091B10084608093B1008C
:100690008091B00081608093B00080917A00846086
:1006A00080937A0080917A00826080937A008091B2
:1006B0007A00816080937A0080917A0080688093CC
:1006C0007A001092C10082E00E942E020BE31FE12B
:1006D00090E0E92E90E0F92EC1E0D0E0E1E08091D9
:1006E000B2018111E0E0E195F0E0E156FE4F84892E
:1006F00080680E942802CE010E945501E091B2015B
:10070000E23008F043C0E150F0E0E156FE4F84894A
:1007100080680E942802CE0101960E9455010E9425
:100720001F012B013C0184EF882E99249394A12C66
:10073000B12C0E941F016419750986099709683E4A
:10074000734081059105A8F321E0821A9108A10860
:10075000B10888EE480E83E0581E611C711C81149C
:100760009104A104B10429F781E00E942802C80184
:100770000197F1F72296CF30D10509F0AFCFE11400
:10078000F10409F4A9CF0E940000A6CFE1E0BCCF9C
:10079000EFE9F1E01382128284E091E0918380839B
:1007A0008CE084838FEF85838BE0868387E087836B
:1007B00086E0808785E0818784E0828713861486BF
:1007C00015861686178681E00C942E02EE0FFF1F09
:0C07D0000590F491E02D0994F894FFCFFF
:1007DC0000000000D002A600450144012020204D5D
:1007EC006973207061736F73002D204F6374617691
:1007FC00696F2050617A202D004D697320706173F0
:10080C006F7320656E00657374612063616C6C6539
:10081C000052657375656E616E00456E206F747263
:10082C00612063616C6C6500446F6E6465004F6998
:10083C00676F206D6973207061736F730050617303
:10084C00617220656E206573746100536F6C6F204C
:10085C006573207265616C006C61206E65626C69F9
:06086C006E612E2E2E002D
:00000001FF
