:020000040000FA
:100000000C9458000C9480000C9480000C94800098
:100010000C9480000C9480000C9480000C94800060
:100020000C9480000C9480000C9480000C94800050
:100030000C9480000C9480000C9480000C94800040
:100040000C94D4030C9480000C9480000C948000D9
:100050000C9480000C9480000C9480000C94800020
:100060000C941E040C948000000000002500280061
:100070002B00040404040404040402020202020229
:10008000030303030303010204081020408001025C
:1000900004081020010204081020000000080002DB
:1000A00001000003040700000000000000003D05FF
:1000B00011241FBECFEFD8E0DEBFCDBF11E0A0E01E
:1000C000B1E0E8E1FDE002C005900D92AE33B1076A
:1000D000D9F722E0AEE3B1E001C01D92AB31B20727
:1000E000E1F710E0C8E5D0E004C02197FE010E94CE
:1000F0008406C735D107C9F70E9463050C948A06A8
:100100000C94000008950895AF92BF92CF92DF92B1
:10011000EF92FF920F931F93CF93DF936C017B01BC
:100120008B01040F151FEB015E01AE18BF08C0174D
:10013000D10759F06991D601ED91FC910190F081C0
:10014000E02DC6010995892B79F7C501DF91CF9183
:100150001F910F91FF90EF90DF90CF90BF90AF90E5
:10016000089590E0FC01E656FF4F2491FC01EA5708
:10017000FF4F3491FC01EE58FF4FE491EE23C9F09C
:10018000222339F0233001F1A8F4213019F1223073
:1001900029F1F0E0EE0FFF1FE859FF4FA591B49150
:1001A0008FB7F894EC91611126C030953E233C93B3
:1001B0008FBF08952730A9F02830C9F0243049F7BF
:1001C000809180008F7D03C0809180008F77809325
:1001D0008000DFCF84B58F7784BDDBCF84B58F7D82
:1001E000FBCF8091B0008F778093B000D2CF809109
:1001F000B0008F7DF9CF3E2BDACF3FB7F8948091D6
:10020000F5019091F601A091F701B091F80126B5A2
:10021000A89B05C02F3F19F00196A11DB11D3FBF3E
:10022000BA2FA92F982F8827BC01CD01620F711D0D
:10023000811D911D42E0660F771F881F991F4A9507
:10024000D1F708952091A601260F3327331F2132BD
:100250003105ECF42091CA01FC0190E080E02430EB
:1002600069F082E00895A091A6012191AC014A575E
:100270005E4FA40FB52FB11D2C930196861798F3EE
:100280008091A601680F6093A60180E0089581E047
:1002900008951092CA0181E08093CC011092CB01A5
:1002A00061E082E10E94B10061E083E10E94B1005F
:1002B000E9EBF0E080818E7F808380818D7F808379
:1002C00088E48093B80085E48093BC000895CF93C0
:1002D000DF9391E0909385018823B9F0C091B80035
:1002E000D091BA008091BC008A7B8093BC0060E012
:1002F00082E10E94B10060E083E10E94B1000E94AF
:100300004901D093BA00C093B800DF91CF9108950E
:100310000895E09100028091FF01E81730F4F0E0C9
:10032000E05AFE4F808190E008958FEF9FEF08958F
:10033000909100028091FF012FEF3FEF981748F452
:10034000E92FF0E0E05AFE4F208130E09F5F90936C
:100350000002C90108958091FF0190910002891B5C
:10036000990B0895CF92DF92EF92FF920F931F9314
:10037000CF93DF937C01CB018A0120915F0122237F
:1003800089F0EB016B01C40ED51ECC15DD0569F0BB
:100390006991D701ED91FC910190F081E02DC701A9
:1003A0000995F3CF642F0E942201C801DF91CF91FC
:1003B0001F910F91FF90EF90DF90CF900895CF9312
:1003C000DF931F92CDB7DEB7698320915F012223AF
:1003D000F9F02091FD01203258F021E030E0FC01DD
:1003E0003383228390E080E00F90DF91CF910895D6
:1003F0008091FE01E82FF0E0E15CFE4F998190834F
:100400008F5F8093FE018093FD0181E090E0ECCF4F
:1004100061E0CE0101960E942201F7CFCF92DF92D8
:10042000EF92FF920F931F93CF93DF93FC01C48150
:1004300081E080935F01C0933E011092FE01109213
:10044000FD0181E092E00E94DF01D091FD01D132F7
:1004500008F092C00E94FD006B017C018091CA01EE
:10046000811165C082E08093CA0181E08093CC0154
:100470008FEF8093C9011092EE01D093ED01EFE36D
:10048000F1E0ADECB1E080E0D81385C01092EF014F
:100490008091EF01CC0FC82BC093EF018091CB016D
:1004A000813009F07CC01092CB010E94FD006B01ED
:1004B0007C018091EF018093BB008091810190913C
:1004C0008201A0918301B0918401892B8A2B8B2B0F
:1004D00099F00E94FD00009181011091820120910C
:1004E0008301309184016C197D098E099F090617DB
:1004F000170728073907E0F18091BC0083FDD9CFA9
:1005000085EC8093BC000E94FD006B017C01809112
:10051000CA01823009F445C08091C9018F3F61F161
:100520008091C901803241F18091C90125C080913B
:10053000810190918201A0918301B0918401892B66
:100540008A2B8B2B09F48ACF0E94FD000091810138
:100550001091820120918301309184016C197D09F1
:100560008E099F09061717072807390708F076CF65
:10057000809180010E9467011092FE011092FD019E
:1005800010925F01DF91CF911F910F91FF90EF903B
:10059000DF90CF90089591919D938F5F75CF85EEF9
:1005A000B0CF8091810190918201A0918301B0919F
:1005B0008401892B8A2B8B2B09F4A9CF0E94FD0083
:1005C0000091810110918201209183013091840179
:1005D0006C197D098E099F09061717072807390727
:1005E00008F095CFC5CF089590E080E0089585ED9F
:1005F0008093BC008091810190918201A091830140
:10060000B09184010796A11DB11D23E0B695A79571
:10061000979587952A95D1F72091BC0024FD03C0BA
:100620001092CA0108954091810150918201609118
:10063000830170918401452B462B472B69F300976A
:10064000A105B10541F025E32A95F1F700000197D6
:10065000A109B109E1CF809180010C9467010F934A
:100660001F93CF93DF93EC01042F6B8711E0198761
:100670008885880F9F819460892B2A8598E0299F1F
:1006800090011124822B607F682BCE010E940E0204
:1006900019866885660F8A8528E0829FC00111242B
:1006A000682B8F81682B8B85807F682BCE010E9401
:1006B0000E02011131C08FE890E00197F1F7198720
:1006C0008F8184606885660F682B8A8528E0829F09
:1006D000C0011124682B8B8520E1829FC001112469
:1006E000682BCE010E940E0219866885660F8A85E6
:1006F00028E0829FC0011124682B8F81682B8B8595
:1007000020E1829FC0011124682BCE01DF91CF919F
:100710001F910F910C940E02DF91CF911F910F91B9
:10072000089521E0FC012783108640E00E942F03FA
:100730008FE990E00197F1F781E090E008950F9341
:100740001F93CF93DF938B01109214021092150226
:1007500098E0899FB0011124606440E08DE092E050
:100760000E942F038FE890E00197F1F7E801085FFE
:100770001F4F69918DE092E00E949103C017D1074D
:10078000C1F7109214021092150240E060E88DE06B
:1007900092E00E942F038FE890E00197F1F7DF913C
:1007A000CF911F910F9108951F920F920FB60F9244
:1007B00011242F933F938F939F93AF93BF93809177
:1007C000F1019091F201A091F301B091F401309107
:1007D000F00123E0230F2D3758F50196A11DB11D1F
:1007E0002093F0018093F1019093F201A093F30123
:1007F000B093F4018091F5019091F601A091F70179
:10080000B091F8010196A11DB11D8093F50190935F
:10081000F601A093F701B093F801BF91AF919F91BA
:100820008F913F912F910F900FBE0F901F901895B1
:1008300026E8230F0296A11DB11DD2CF1F920F9261
:100840000FB60F9211242F933F934F935F936F93A3
:100850007F938F939F93AF93BF93EF93FF93809179
:10086000B900887F803609F44AC0F0F5883209F46F
:10087000A7C018F5803109F49BC0B8F4882309F4A7
:10088000F9C0883009F494C0FF91EF91BF91AF9106
:100890009F918F917F916F915F914F913F912F9198
:1008A0000F900FBE0F901F901895883109F488C0E3
:1008B000803251F78093C90114C0803409F49DC07F
:1008C00040F48033B9F38833F9F68093C90185EC9D
:1008D000B0C0803509F485C0883509F496C08834E5
:1008E00099F60E94F702D0CF883909F48CC038F508
:1008F000883729F050F4883611F0803729F683E0E4
:100900008093CA011092C80157C0883809F47BC08F
:10091000803919F0803809F0B7CF8091C801803252
:1009200008F071C0E091C80181E08E0F8093C8018A
:100930008091BB00F0E0E855FE4F80833DC0803BD6
:1009400039F0E0F4803A09F479C0883A09F09CCF94
:1009500084E08093CA011092A7011092A601E09151
:10096000FB01F091FC0109958091A60181110FC056
:1009700081E08093A6011092860109C0803C09F4B1
:10098000A6CF883C09F4A3CF883B09F07DCFE09146
:10099000A70181E08E0F8093A701F0E0EA57FE4F98
:1009A00080818093BB009091A7018091A60129C00E
:1009B0008091EF018093BB0085EC8093BC0064CFF5
:1009C0009091EE018091ED01981758F5E091EE01BC
:1009D00081E08E0F8093EE01F0E0E353FE4F8081C3
:1009E000E9CFE091EE0181E08E0F8093EE018091DE
:1009F000BB00F0E0E353FE4F80839091EE018091C5
:100A0000ED019817C8F285E8D8CFE091EE0181E0BA
:100A10008E0F8093EE018091BB00F0E0E353FE4F18
:100A200080838091CC0181115CCF81E08093CB01E8
:100A300084EA8093BC001092CA0126CF85EC809393
:100A4000BC001092CA018091C801803230F4E0915C
:100A5000C801F0E0E855FE4F10826091C80170E0D7
:100A6000E091F901F091FA0188EA91E0099510927C
:100A7000C8010ACF1092C90134CFE1E0F2E013823D
:100A8000128288EE93E0A0E0B0E084839583A68391
:100A9000B78384E291E091838083EDE0F2E01382FA
:100AA000128286E391E09183808387E284838FE0E2
:100AB000858381E0868317821086118612861386CD
:100AC000148615860895789484B5826084BD84B5B3
:100AD000816084BD85B5826085BD85B5816085BD39
:100AE00080916E00816080936E00109281008091F1
:100AF0008100826080938100809181008160809379
:100B00008100809180008160809380008091B1009D
:100B100084608093B1008091B00081608093B000C8
:100B200080917A00846080937A0080917A0082605C
:100B300080937A0080917A00816080937A0080911E
:100B40007A00806880937A001092C10010920002AF
:100B50001092FF011092FE011092FD010E944901C6
:100B600082E890E09093FC018093FB0183E890E0A1
:100B70009093FA018093F90160E08DE092E00E9489
:100B80000E020E94FD004B015C0182E3C82ED12CB5
:100B9000E12CF12C0E94FD00681979098A099B0952
:100BA000683E734081059105A8F321E0C21AD1087F
:100BB000E108F10888EE880E83E0981EA11CB11CA4
:100BC000C114D104E104F10429F710921402109227
:100BD000150241E060E38DE092E00E942F038BE973
:100BE00091E40197F1F741E060E38DE092E00E942B
:100BF0002F0383E592E00197F1F741E060E38DE098
:100C000092E00E942F03CFE8D0E0CE010197F1F7E8
:100C100041E060E28DE092E00E942F03CE01019757
:100C2000F1F740E068E28DE092E00E942F03CE01F0
:100C30000197F1F7109214021092150260911902B7
:100C4000862F8460809319026C6040E08DE092E012
:100C50000E942F03CE010197F1F710921402109217
:100C6000150240E061E08DE092E00E942F038BEFDF
:100C700098E10197F1F71092140210921502609119
:100C80001A02862F826080931A02666040E08DE02F
:100C900092E00E942F032197F1F781E080931702E1
:100CA00068E08DE092E00E940E0268E171E080E071
:100CB0000E949F0360E171E081E00E949F0368E071
:100CC00071E082E00E949F0360E071E083E00E9497
:100CD0009F0360E08DE092E00E94910361E08DE06F
:100CE00092E00E94910362E08DE092E00E94910305
:100CF00063E08DE092E00E949103C0E0D0E0209795
:100D0000F1F30E940000FBCFEE0FFF1F0590F4915E
:100D1000E02D0994F894FFCF081D0B01040E041078
:100D20000E0A0E0415150E040011000E110E00001F
:100D300000110000110E000000000000DF01B201F0
:100D4000F4028801AB0198018901000000009103C1
:060D50008400F402F3022E
:107E0000112484B714BE81FFF0D085E080938100F7
:107E100082E08093C00088E18093C10086E0809377
:107E2000C20080E18093C4008EE0C9D0259A86E02C
:107E300020E33CEF91E0309385002093840096BBD3
:107E4000B09BFECF1D9AA8958150A9F7CC24DD24C4
:107E500088248394B5E0AB2EA1E19A2EF3E0BF2EE7
:107E6000A2D0813461F49FD0082FAFD0023811F036
:107E7000013811F484E001C083E08DD089C08234E0
:107E800011F484E103C0853419F485E0A6D080C0E4
:107E9000853579F488D0E82EFF2485D0082F10E0AE
:107EA000102F00270E291F29000F111F8ED06801E7
:107EB0006FC0863521F484E090D080E0DECF843638
:107EC00009F040C070D06FD0082F6DD080E0C81688
:107ED00080E7D80618F4F601B7BEE895C0E0D1E017
:107EE00062D089930C17E1F7F0E0CF16F0E7DF06D8
:107EF00018F0F601B7BEE89568D007B600FCFDCFD4
:107F0000A601A0E0B1E02C9130E011968C91119780
:107F100090E0982F8827822B932B1296FA010C0160
:107F200087BEE89511244E5F5F4FF1E0A038BF0790
:107F300051F7F601A7BEE89507B600FCFDCF97BE46
:107F4000E89526C08437B1F42ED02DD0F82E2BD052
:107F50003CD0F601EF2C8F010F5F1F4F84911BD097
:107F6000EA94F801C1F70894C11CD11CFA94CF0C13
:107F7000D11C0EC0853739F428D08EE10CD085E9AC
:107F80000AD08FE07ACF813511F488E018D01DD067
:107F900080E101D065CF982F8091C00085FFFCCF94
:107FA0009093C60008958091C00087FFFCCF809118
:107FB000C00084FD01C0A8958091C6000895E0E648
:107FC000F0E098E1908380830895EDDF803219F02E
:107FD00088E0F5DFFFCF84E1DECF1F93182FE3DFCA
:107FE0001150E9F7F2DF1F91089580E0E8DFEE27F6
:047FF000FF270994CA
:027FFE00040479
:00000001FF
