:020000040000FA
:100000000C945D000C9485000C9485000C94850084
:100010000C9485000C9485000C9485000C9485004C
:100020000C9485000C9485000C9485000C9485003C
:100030000C9485000C9485000C9485000C9485002C
:100040000C9494030C9485000C9462030C943C0370
:100050000C9485000C9485000C9485000C9485000C
:100060000C9485000C94850000000008000201003B
:100070000003040700000000000000000000000072
:10008000250028002B0000000000240027002A0083
:10009000040404040404040402020202020203032E
:1000A0000303030301020408102040800102040836
:1000B0001020010204081020450511241FBECFEFB7
:1000C000D8E0DEBFCDBF11E0A0E0B1E0E2EFFBE0A1
:1000D00002C005900D92A631B107D9F721E0A6E143
:1000E000B1E001C01D92A63CB207E1F710E0CDE5FA
:1000F000D0E004C02197FE010E94D605CC35D1077F
:10010000C9F70E94DE030C94F7050C940000AF922F
:10011000BF92CF92DF92EF92FF920F931F93CF93F4
:10012000DF936C017B018B01040F151FEB015E0156
:10013000AE18BF08C017D10759F06991D601ED91EB
:10014000FC910190F081E02DC6010995892B79F78A
:10015000C501DF91CF911F910F91FF90EF90DF903C
:10016000CF90BF90AF900895FC01538D448D252F03
:1001700030E0842F90E0821B930B541710F0CF9641
:10018000089501970895FC01918D828D981761F073
:10019000A28DAE0FBF2FB11D5D968C91928D9F5F8A
:1001A0009F73928F90E008958FEF9FEF0895FC0169
:1001B000918D828D981731F0828DE80FF11D858D1C
:1001C00090E008958FEF9FEF0895FC01918D228DAF
:1001D000892F90E0805C9F4F821B91098F73992734
:1001E000089589E291E00E94E50021E0892B09F45D
:1001F00020E0822F089580E090E0892B29F00E9472
:10020000F10081110C9400000895FC01A48DA80F49
:10021000B92FB11DA35ABF4F2C91848D90E0019648
:100220008F739927848FA689B7892C93A089B18968
:100230008C91837080648C93938D848D981306C009
:100240000288F389E02D80818F7D80830895EF926D
:10025000FF920F931F93CF93DF93EC0181E0888F80
:100260009B8D8C8D98131AC0E889F989808185FF50
:1002700015C09FB7F894EE89FF896083E889F989F2
:1002800080818370806480839FBF81E090E0DF91F4
:10029000CF911F910F91FF90EF900895F62E0B8D47
:1002A00010E00F5F1F4F0F731127E02E8C8D8E1102
:1002B0000CC00FB607FCFACFE889F989808185FF69
:1002C000F5CFCE010E940501F1CFEB8DEC0FFD2F94
:1002D000F11DE35AFF4FF0829FB7F8940B8FEA8924
:1002E000FB8980818062CFCFCF93DF93EC01888D33
:1002F0008823B9F0AA89BB89E889F9898C9185FDA1
:1003000003C0808186FD0DC00FB607FCF7CF8C912E
:1003100085FFF2CF808185FFEDCFCE010E940501E0
:10032000E9CFDF91CF91089590E0FC01E859FF4FAC
:100330002491FC01EC55FF4F3491FC01E057FF4F35
:10034000E491EE23C9F0222339F0233001F1A8F41F
:10035000213019F1223029F1F0E0EE0FFF1FE458AF
:10036000FF4FA591B4918FB7F894EC91611126C01D
:1003700030953E233C938FBF08952730A9F0283055
:10038000C9F0243049F7809180008F7D03C08091AF
:1003900080008F7780938000DFCF84B58F7784BD16
:1003A000DBCF84B58F7DFBCF8091B0008F778093BA
:1003B000B000D2CF8091B0008F7DF9CF3E2BDACF45
:1003C0003FB7F89480911B0190911C01A0911D01F1
:1003D000B0911E0126B5A89B05C02F3F19F00196CC
:1003E000A11DB11D3FBFBA2FA92F982F8827BC018F
:1003F000CD01620F711D811D911D42E0660F771FB7
:10040000881F991F4A95D1F708958F929F92AF92B6
:10041000BF92CF92DF92EF92FF926B017C010E941C
:10042000E0014B015C01C114D104E104F104B9F015
:100430000E94E001681979098A099B09683E7340A6
:100440008105910580F321E0C21AD108E108F10885
:1004500088EE880E83E0981EA11CB11CE4CFFF90AB
:10046000EF90DF90CF90BF90AF909F908F900895C6
:100470008A30910508F0B1C0FC01EF5BFD4F0C9490
:10048000D6054B0267027D029702A902BB02C90290
:10049000DF02E102E70261E088E00E94940161E08E
:1004A00087E00E94940161E086E00E94940161E08F
:1004B00085E00E94940161E084E00E94940161E083
:1004C00083E00E94940160E082E00C94940160E07B
:1004D00088E00E94940161E087E00E94940161E05D
:1004E00086E00E94940160E085E00E94940160E053
:1004F00084E00E94940160E0E3CF61E088E00E9424
:10050000940161E087E00E94940160E086E00E942F
:10051000940161E085E00E94940161E084E00E9422
:10052000940160E083E00E94940161E0CDCF61E03E
:1005300088E00E94940161E087E00E94940161E0FC
:1005400086E00E94940161E085E00E94940160E0F1
:10055000E5CF60E088E00E94940161E087E00E94BE
:10056000940161E086E00E94940160E085E00E94D1
:10057000940160E01FC061E088E00E94940160E0A7
:1005800087E00E94940161E086E00E94940161E0AE
:10059000EDCF61E088E00E94940160E087E00E9476
:1005A000940161E086E00E94940161E085E00E9490
:1005B000940161E084E00E94940161E0B3CF61E0C6
:1005C00087CF61E088E00E94940161E0E7CF61E0BD
:1005D00088E00E94940161E0D3CF08958F929F92AA
:1005E000AF92BF920F931F93CF93DF93CDB7DEB738
:1005F000A1970FB6F894DEBF0FBECDBF19A242304F
:1006000008F44AE08E010F5D1F4F842E912CB12C0F
:10061000A12CA50194010E949105E62FB901CA0100
:10062000EA3044F5E05DD801EE938D01232B242BB5
:10063000252B79F790E080E0109769F0FD0101909B
:100640000020E9F73197AF014A1B5B0BBD0189E23E
:1006500091E00E948700A1960FB6F894DEBF0FBE0E
:10066000CDBFDF91CF911F910F91BF90AF909F9021
:100670008F900895E95CD7CF1F920F920FB60F921B
:1006800011242F933F934F935F936F937F938F9397
:100690009F93AF93BF93EF93FF9389E291E00E9402
:1006A0000501FF91EF91BF91AF919F918F917F9144
:1006B0006F915F914F913F912F910F900FBE0F90CF
:1006C0001F9018951F920F920FB60F9211242F931F
:1006D0008F939F93EF93FF93E0913901F0913A014B
:1006E0008081E0913F01F091400182FD1BC090812B
:1006F000809142018F5F8F7320914301821741F0F7
:10070000E0914201F0E0E75DFE4F958F809342015A
:10071000FF91EF919F918F912F910F900FBE0F90AE
:100720001F9018958081F4CF1F920F920FB60F92F1
:1007300011242F933F938F939F93AF93BF938091F7
:10074000170190911801A0911901B0911A013091EF
:10075000160123E0230F2D3758F50196A11DB11D79
:10076000209316018093170190931801A09319010B
:10077000B0931A0180911B0190911C01A0911D0161
:10078000B0911E010196A11DB11D80931B01909394
:100790001C01A0931D01B0931E01BF91AF919F91C9
:1007A0008F913F912F910F900FBE0F901F90189532
:1007B00026E8230F0296A11DB11DD2CF789484B5EF
:1007C000826084BD84B5816084BD85B5826085BD4D
:1007D00085B5816085BD80916E00816080936E00DB
:1007E00010928100809181008260809381008091CD
:1007F000810081608093810080918000816080937E
:1008000080008091B10084608093B1008091B0003D
:1008100081608093B00080917A00846080937A0038
:1008200080917A00826080937A0080917A00816062
:1008300080937A0080917A00806880937A00109289
:10084000C100E0913901F0913A0182E08083E091AA
:100850003501F09136011082E0913701F0913801B5
:100860008FEC808310924101E0913D01F0913E01B7
:1008700086E08083E0913B01F0913C0180818061C2
:100880008083E0913B01F0913C018081886080830E
:10089000E0913B01F0913C01808180688083E09190
:1008A0003B01F0913C0180818F7D808322E030E02C
:1008B000F901EC55FF4F4491F901E057FF4F849146
:1008C000882399F090E0880F991FFC01EA57FF4FA9
:1008D000A591B491FC01E458FF4F859194918FB795
:1008E000F894EC91E42BEC938FBF2F5F3F4F2C30AB
:1008F0003105F1F6E2EBF0E02491EEE9F0E08491CD
:100900008823C1F090E0880F991FFC01EA57FF4F40
:10091000C591D491FC01E458FF4FA591B4919FB7C4
:10092000F8948881E22FE0958E2388838C91E823C8
:10093000EC939FBF82E390E090932801809327017E
:1009400080E4782E88248A9493E0992EA12CB12CEF
:1009500004E610E0CAE0D0E070927C0080917A005A
:10096000806480937A0080917A0086FDFCCF80912C
:100970007800A0917900BA2FA82F24EF31E00E94CF
:10098000DC05A50194010E94720569017A0130938A
:10099000260120932501C901B8010E94C205709368
:1009A000240160932301C901BE010E94C2059C017C
:1009B000CB01BE010E94C2059093220180932101C8
:1009C0003093200120931F0164E170E080E090E00B
:1009D0000E9405024AE0C701B601F7FE0DC06DE2B4
:1009E00089E291E00E94270166277727CB016C19E5
:1009F0007D098E099F094AE00E94EE0242E050E024
:100A000062E171E089E291E00E94870061E089E0A3
:100A10000E94940180911F01909120010E94380250
:100A2000C0902701D09028010D2C000CEE08FF0883
:100A3000C701B6010E94050260E089E00E949401AE
:100A400061E08AE00E94940180912101909122014D
:100A50000E943802C701B6010E94050260E08AE0E8
:100A60000E94940161E08BE00E9494018091230137
:100A7000909124010E943802C701B6010E9405022C
:100A800060E08BE00E94940167CFE9E2F1E013821D
:100A9000128288EE93E0A0E0B0E084839583A68381
:100AA000B78384E091E09183808385EC90E0958723
:100AB000848784EC90E09787868780EC90E0918B28
:100AC000808B81EC90E0938B828B82EC90E0958B15
:100AD000848B86EC90E0978B868B118E128E138E12
:100AE000148E0895052E97FB1EF400940E9489052C
:100AF00057FD07D00E94910507FC03D04EF40C94DB
:100B0000890550954095309521953F4F4F4F5F4F48
:100B1000089590958095709561957F4F8F4F9F4F69
:100B20000895A1E21A2EAA1BBB1BFD010DC0AA1F2E
:100B3000BB1FEE1FFF1FA217B307E407F50720F046
:100B4000A21BB30BE40BF50B661F771F881F991FC1
:100B50001A9469F760957095809590959B01AC010A
:100B6000BD01CF010895A29FB001B39FC001A39F13
:100B7000700D811D1124911DB29F700D811D1124D6
:100B8000911D089597FB072E16F4009407D077FD6A
:100B900009D00E94E30507FC05D03EF490958195AD
:100BA0009F4F0895709561957F4F0895EE0FFF1F39
:100BB0000590F491E02D09940E94B305B7FF0895C4
:100BC000821B930B0895AA1BBB1B51E107C0AA1FF0
:100BD000BB1FA617B70710F0A61BB70B881F991FDE
:100BE0005A95A9F780959095BC01CD010895F89488
:100BF000FFCF0000000027018700B4007401E5006A
:080C0000C300D7000D0A00003B
:107E0000112484B714BE81FFF0D085E080938100F7
:107E100082E08093C00088E18093C10086E0809377
:107E2000C20080E18093C4008EE0C9D0259A86E02C
:107E300020E33CEF91E0309385002093840096BBD3
:107E4000B09BFECF1D9AA8958150A9F7CC24DD24C4
:107E500088248394B5E0AB2EA1E19A2EF3E0BF2EE7
:107E6000A2D0813461F49FD0082FAFD0023811F036
:107E7000013811F484E001C083E08DD089C08234E0
:107E800011F484E103C0853419F485E0A6D080C0E4
:107E9000853579F488D0E82EFF2485D0082F10E0AE
:107EA000102F00270E291F29000F111F8ED06801E7
:107EB0006FC0863521F484E090D080E0DECF843638
:107EC00009F040C070D06FD0082F6DD080E0C81688
:107ED00080E7D80618F4F601B7BEE895C0E0D1E017
:107EE00062D089930C17E1F7F0E0CF16F0E7DF06D8
:107EF00018F0F601B7BEE89568D007B600FCFDCFD4
:107F0000A601A0E0B1E02C9130E011968C91119780
:107F100090E0982F8827822B932B1296FA010C0160
:107F200087BEE89511244E5F5F4FF1E0A038BF0790
:107F300051F7F601A7BEE89507B600FCFDCF97BE46
:107F4000E89526C08437B1F42ED02DD0F82E2BD052
:107F50003CD0F601EF2C8F010F5F1F4F84911BD097
:107F6000EA94F801C1F70894C11CD11CFA94CF0C13
:107F7000D11C0EC0853739F428D08EE10CD085E9AC
:107F80000AD08FE07ACF813511F488E018D01DD067
:107F900080E101D065CF982F8091C00085FFFCCF94
:107FA0009093C60008958091C00087FFFCCF809118
:107FB000C00084FD01C0A8958091C6000895E0E648
:107FC000F0E098E1908380830895EDDF803219F02E
:107FD00088E0F5DFFFCF84E1DECF1F93182FE3DFCA
:107FE0001150E9F7F2DF1F91089580E0E8DFEE27F6
:047FF000FF270994CA
:027FFE00040479
:00000001FF
