:020000040000FA
:100000000C945D000C9485000C9485000C94850084
:100010000C9485000C9485000C9485000C9485004C
:100020000C9485000C9485000C9485000C9485003C
:100030000C9485000C9485000C9485000C9485002C
:100040000C944D030C9485000C941B030C94F50246
:100050000C9485000C9485000C9485000C9485000C
:100060000C9485000C94850000000008000201003B
:100070000003040700000000000000000000000072
:10008000250028002B0000000000240027002A0083
:10009000040404040404040402020202020203032E
:1000A0000303030301020408102040800102040836
:1000B0001020010204081020360511241FBECFEFC6
:1000C000D8E0DEBFCDBF21E0A6E3B1E001C01D92C4
:1000D000A23EB207E1F711E0A0E0B1E0E4EEFFE0FC
:1000E00002C005900D92A633B107D9F710E0CDE517
:1000F000D0E004C02197FE010E94F805CC35D1075D
:10010000C9F70E9497030C94F0070C94000090E04C
:10011000FC01EC55FF4F249180579F4FFC018491C7
:10012000882399F090E0880F991FFC01EA57FF4F50
:10013000A591B491FC01E458FF4F859194918FB73C
:10014000F894EC91E22BEC938FBF0895AF92BF929D
:10015000CF92DF92EF92FF920F931F93CF93DF9393
:100160006C017B018B01040F151FEB015E01AE18C2
:10017000BF08C017D10759F06991D601ED91FC91E4
:100180000190F081E02DC6010995892B79F7C50111
:10019000DF91CF911F910F91FF90EF90DF90CF9063
:1001A000BF90AF900895FC01538D448D252F30E012
:1001B000842F90E0821B930B541710F0CF96089574
:1001C00001970895FC01918D828D981761F0A28DA1
:1001D000AE0FBF2FB11D5D968C91928D9F5F9F7367
:1001E000928F90E008958FEF9FEF08952FB7F894C6
:1001F00080913D0190913E01A0913F01B09140015D
:100200002FBF8093490190934A01A0934B01B09373
:100210004C0181E491E00E94E20097FF26C02FB7D5
:10022000F89480913D0190913E01A0913F01B091E1
:1002300040012FBF4091490150914A0160914B010B
:1002400070914C01841B950BA60BB70B4091450197
:1002500050914601609147017091480184179507BC
:10026000A607B707B0F28FEF9FEF0895FC01918DBD
:10027000828D981731F0828DE80FF11D858D90E009
:1002800008958FEF9FEF0895FC01918D228D892FA6
:1002900090E0805C9F4F821B91098F73992708958E
:1002A00081E491E00E94440121E0892B09F420E0DF
:1002B000822F089580E090E0892B29F00E94500160
:1002C00081110C9400000895FC01A48DA80FB92F92
:1002D000B11DA35ABF4F2C91848D90E001968F736E
:1002E0009927848FA689B7892C93A089B1898C918D
:1002F000837080648C93938D848D981306C00288DC
:10030000F389E02D80818F7D80830895EF92FF92A5
:100310000F931F93CF93DF93EC0181E0888F9B8D28
:100320008C8D98131AC0E889F989808185FF15C0E2
:100330009FB7F894EE89FF896083E889F989808105
:100340008370806480839FBF81E090E0DF91CF91D4
:100350001F910F91FF90EF900895F62E0B8D10E0F6
:100360000F5F1F4F0F731127E02E8C8D8E110CC065
:100370000FB607FCFACFE889F989808185FFF5CFB0
:10038000CE010E946401F1CFEB8DEC0FFD2FF11D2A
:10039000E35AFF4FF0829FB7F8940B8FEA89FB89ED
:1003A00080818062CFCFCF93DF93EC01888D88234B
:1003B000B9F0AA89BB89E889F9898C9185FD03C0C8
:1003C000808186FD0DC00FB607FCF7CF8C9185FFAD
:1003D000F2CF808185FFEDCFCE010E946401E9CF8D
:1003E000DF91CF91089590E0FC01E859FF4F2491EF
:1003F000FC01EC55FF4F3491FC01E057FF4FE491B5
:10040000EE23C9F0222339F0233001F1A8F4213082
:1004100019F1223029F1F0E0EE0FFF1FE458FF4FF1
:10042000A591B4918FB7F894EC91611126C03095E5
:100430003E233C938FBF08952730A9F02830C9F0A0
:10044000243049F7809180008F7D03C08091800027
:100450008F7780938000DFCF84B58F7784BDDBCF2B
:1004600084B58F7DFBCF8091B0008F778093B000F3
:10047000D2CF8091B0008F7DF9CF3E2BDACF1F9382
:10048000CF93DF93182FEB010E948700209739F458
:1004900060E0812FDF91CF911F910C94F301CF3F4A
:1004A000D10511F461E0F5CFE12FF0E0E859FF4FFD
:1004B000E491E33031F140F4E130B1F0E230E1F0C9
:1004C000C038D1057CF7E4CFE73029F1E83059F1A5
:1004D000E430B1F780918000806280938000D093F7
:1004E0008B00C0938A0004C084B5806884BDC7BDFA
:1004F000DF91CF911F91089584B5806284BDC8BDFE
:10050000F7CF80918000806880938000D09389002D
:10051000C0938800EDCF8091B00080688093B000D8
:10052000C093B300E5CF8091B00080628093B000AB
:10053000C093B400DDCF3FB7F8948091370190911C
:100540003801A0913901B0913A0126B5A89B05C0A8
:100550002F3F19F00196A11DB11D3FBFBA2FA92F42
:10056000982F8827BC01CD01620F711D811D911D3F
:1005700042E0660F771F881F991F4A95D1F70895AB
:10058000FC0101900020E9F73197AF01481B590B9E
:10059000BC0181E491E00C94A6000F931F93CF93CC
:1005A000DF93EC0188819981009759F02A813B8182
:1005B0002617370730F081E0DF91CF911F910F911F
:1005C00008958B016F5F7F4F0E942307009759F0BA
:1005D000998388831B830A832C813D81232B59F7C0
:1005E000FC011082E8CF80E0E7CF1F920F920FB698
:1005F0000F9211242F933F934F935F936F937F93A9
:100600008F939F93AF93BF93EF93FF9381E491E018
:100610000E946401FF91EF91BF91AF919F918F91E3
:100620007F916F915F914F913F912F910F900FBEEE
:100630000F901F9018951F920F920FB60F921124D2
:100640002F938F939F93EF93FF93E0915101F0913C
:1006500052018081E0915701F091580182FD1BC049
:10066000908180915A018F5F8F7320915B01821777
:1006700041F0E0915A01F0E0EF5BFE4F958F8093DF
:100680005A01FF91EF919F918F912F910F900FBE83
:100690000F901F9018958081F4CF1F920F920FB684
:1006A0000F9211242F933F938F939F93AF93BF93F8
:1006B00080913D0190913E01A0913F01B091400198
:1006C0003091360123E0230F2D3758F50196A11DF7
:1006D000B11D2093360180933D0190933E01A0937C
:1006E0003F01B09340018091370190913801A09172
:1006F0003901B0913A010196A11DB11D80933701D6
:1007000090933801A0933901B0933A01BF91AF9112
:100710009F918F913F912F910F900FBE0F901F903F
:10072000189526E8230F0296A11DB11DD2CFCF93B5
:10073000DF93CDB7DEB7A7970FB6F894DEBF0FBE35
:10074000CDBF789484B5826084BD84B5816084BD5A
:1007500085B5826085BD85B5816085BD80916E005F
:10076000816080936E001092810080918100826090
:1007700080938100809181008160809381008091CD
:1007800080008160809380008091B10084608093BC
:10079000B1008091B00081608093B00080917A00B8
:1007A000846080937A0080917A00826080937A00DE
:1007B00080917A00816080937A0080917A008068CD
:1007C00080937A001092C100E0915101F0915201A2
:1007D00082E08083E0914D01F0914E011082E09122
:1007E0004F01F09150018FEC808310925901E091FC
:1007F0005501F091560186E08083E0915301F0911C
:100800005401808180618083E0915301F091540113
:10081000808188608083E0915301F0915401808150
:1008200080688083E0915301F091540180818F7D35
:1008300080838BE00E9487008AE00E9487008CE022
:100840000E94870089E00E9487008DE00E94870057
:1008500088E00E9487009AE0492E512C612C712C6F
:1008600020E0222E20E0322E81E491E00E9444011B
:10087000892B09F4D5C01BA21AA21DA21CA21FA27B
:100880001EA270E060E0CE0182960E94CD022AA1F5
:100890003BA181112EC02115310519F0C9010E941B
:1008A0009A061BA21AA21FA21EA21DA21CA20E948F
:1008B000F60097FD26C08A30910519F189831A82C6
:1008C0000EA11FA10F5F1F4FB801CE0182960E949B
:1008D000CD02882361F32AA13BA18EA19FA1BE0175
:1008E0006F5F7F4F820F931F0E94E9071FA30EA324
:1008F000DECF1FA21EA265E371E0C9010E94E907D5
:10090000D6CF8AA19BA1009709F496C00E946305E7
:100910008B016F3F710519F014F00FEF10E017FF16
:1009200002C010E000E010933C0100933B010E94E4
:100930009B024B015C0185E0C82ED12CE12CF12CEF
:100940000E949B02681979098A099B09683E7340D5
:1009500081059105A8F321E0C21AD108E108F10848
:1009600088EE880E83E0981EA11CB11CC114D1042E
:10097000E104F10429F7B8018BE00E943F0261E035
:100980008CE00E94F30160E08DE00E94F301B80169
:100990008AE00E943F0261E089E00E94F30160E08A
:1009A00088E00E94F30188E191E00E94C002C090BB
:1009B0003B01D0903C010D2C000CEE08FF08F7FE27
:1009C0003FC06DE281E491E00E9486012227332737
:1009D000A9012C193D094E095F0919A28E010F5D6D
:1009E0001F4FCA01B901A30192010E94D605605DA3
:1009F000F80162938F01211531054105510589F7F1
:100A00000115110519F0C8010E94C00283E391E0AD
:100A10000E94C0028AA19BA1009711F00E949A0631
:100A20002114310409F420CF0E945001882309F4D5
:100A30001BCF0E94000018CF60E070E0CB0168CFB0
:100A4000A701960119A28E010F5D1F4FCA01B901BE
:100A5000A30192010E94D605605DF80162938F01A7
:100A6000211531054105510589F7CACFE1E4F1E0CF
:100A70001382128288EE93E0A0E0B0E08483958335
:100A8000A683B7838AE091E09183808385EC90E030
:100A90009587848784EC90E09787868780EC90E048
:100AA000918B808B81EC90E0938B828B82EC90E039
:100AB000958B848B86EC90E0978B868B118E128EB3
:100AC000138E148E08951F93FC0199278827BC016B
:100AD000E89411911032E9F3193010F01E30C8F388
:100AE0001B3251F01D3249F4689406C00E948A05F9
:100AF000610F711D811D911D119110531A30B0F3BA
:100B00003EF490958095709561957F4F8F4F9F4FE4
:100B10001F910895592F482F372F262F660F771FC3
:100B2000881F991F660F771F881F991F620F731FF9
:100B3000841F951F660F771F881F991F08952F9296
:100B40003F924F925F926F927F928F929F92AF925D
:100B5000BF92CF92DF92EF92FF920F931F93CF93AA
:100B6000DF93CDB7DEB7CA1BDB0B0FB6F894DEBF41
:100B70000FBECDBF09942A88398848885F846E8467
:100B80007D848C849B84AA84B984C884DF80EE80B1
:100B9000FD800C811B81AA81B981CE0FD11D0FB6BA
:100BA000F894DEBF0FBECDBFED010895A1E21A2E6D
:100BB000AA1BBB1BFD010DC0AA1FBB1FEE1FFF1F01
:100BC000A217B307E407F50720F0A21BB30BE40B51
:100BD000F50B661F771F881F991F1A9469F7609598
:100BE0007095809590959B01AC01BD01CF01089552
:100BF000EE0FFF1F0590F491E02D09940F931F93C2
:100C0000CF93DF938230910510F482E090E0E09181
:100C1000E001F091E10130E020E0B0E0A0E03097A9
:100C200099F42115310509F44AC0281B390B2430E9
:100C30003105D8F58A819B816115710589F1FB0128
:100C400093838283FE0111C040815181028113810F
:100C500048175907E0F04817590799F4109761F0C1
:100C600012960C93129713961C933296CF01DF9134
:100C7000CF911F910F9108950093E0011093E1012E
:100C8000F4CF2115310551F04217530738F0A9016F
:100C9000DB019A01BD01DF01F801C1CFEF01F9CFFE
:100CA0009093E1018093E001CDCFFE01E20FF31FAD
:100CB000819391932250310939832883D7CF209192
:100CC000DE013091DF01232B41F4209102013091AC
:100CD00003013093DF012093DE0120910001309168
:100CE00001012115310541F42DB73EB740910401B2
:100CF00050910501241B350BE091DE01F091DF01DD
:100D0000E217F307A0F42E1B3F0B2817390778F0E2
:100D1000AC014E5F5F4F2417350748F04E0F5F1F41
:100D20005093DF014093DE01819391939FCFF0E0D8
:100D3000E0E09CCFCF93DF930097E9F0FC0132977E
:100D400013821282A091E001B091E101ED0130E047
:100D500020E01097A1F420813181820F931F209110
:100D6000DE013091DF012817390709F061C0F093E7
:100D7000DF01E093DE01DF91CF910895EA01CE1704
:100D8000DF07E8F54A815B819E0141155105B1F706
:100D9000E901FB83EA8349915991C40FD51FEC17F0
:100DA000FD0761F4808191810296840F951FE9010E
:100DB00099838883828193819B838A83F0E0E0E03A
:100DC00012968D919C9113970097B9F52D913C91B6
:100DD0001197CD010296820F931F2091DE01309171
:100DE000DF012817390739F6309751F51092E101E4
:100DF0001092E001B093DF01A093DE01BCCFD3835A
:100E0000C28340815181840F951FC817D90761F4AF
:100E10004E5F5F4F88819981480F591F51834083EE
:100E20008A819B81938382832115310509F0B0CF9C
:100E3000F093E101E093E0019ECFFD01DC01C0CF22
:100E400013821282D7CFB0E0A0E0E9E2F7E00C9481
:100E5000A1058C01009751F4CB010E94FE058C0185
:100E6000C801CDB7DEB7E0E10C94BD05FC01E60F8B
:100E7000F71F9C0122503109E217F30708F49DC0C7
:100E8000D901CD91DC911197C617D70798F0C530DD
:100E9000D10530F3CE0104978617970708F3C61BD8
:100EA000D70B2297C193D1936D937C93CF010E946E
:100EB0009A06D6CF5B01AC1ABD0A4C018C0E9D1E62
:100EC000A091E001B091E101512C412CF12CE12CD9
:100ED000109731F58091DE019091DF018815990519
:100EE00009F05CC04616570608F058C08091000112
:100EF00090910101009741F48DB79EB74091040194
:100F000050910501841B950BE817F90708F055C0AF
:100F1000F093DF01E093DE01F90171836083A0CFDC
:100F20008D919C91119712966C90129713967C90CC
:100F30001397A815B90559F56C0142E0C40ED11CF0
:100F4000CA14DB0420F1AC014A195B09DA011296DC
:100F5000159780F06282738251834083D9016D932B
:100F60007C93E114F10471F0D7011396FC93EE9396
:100F7000129776CF22968C0F9D1FF9019183808363
:100F8000F301EFCFF093E101E093E00169CF481660
:100F9000590608F42C017D01D3019ACFCB010E94A0
:100FA000FE057C01009749F0AE01B8010E94E00700
:100FB000C8010E949A06870153CF10E000E050CF8D
:100FC000FB01DC0102C001900D9241505040D8F766
:100FD0000895FB01DC0101900D920020E1F70895D6
:100FE000F894FFCF0000E2018000000000008601BD
:100FF000A600D300D3014401E200360156656C6FB0
:101000006369646164206465206C6F73206D6F7424
:0A1010006F7265733A20000D0A00AC
:107E0000112484B714BE81FFF0D085E080938100F7
:107E100082E08093C00088E18093C10086E0809377
:107E2000C20080E18093C4008EE0C9D0259A86E02C
:107E300020E33CEF91E0309385002093840096BBD3
:107E4000B09BFECF1D9AA8958150A9F7CC24DD24C4
:107E500088248394B5E0AB2EA1E19A2EF3E0BF2EE7
:107E6000A2D0813461F49FD0082FAFD0023811F036
:107E7000013811F484E001C083E08DD089C08234E0
:107E800011F484E103C0853419F485E0A6D080C0E4
:107E9000853579F488D0E82EFF2485D0082F10E0AE
:107EA000102F00270E291F29000F111F8ED06801E7
:107EB0006FC0863521F484E090D080E0DECF843638
:107EC00009F040C070D06FD0082F6DD080E0C81688
:107ED00080E7D80618F4F601B7BEE895C0E0D1E017
:107EE00062D089930C17E1F7F0E0CF16F0E7DF06D8
:107EF00018F0F601B7BEE89568D007B600FCFDCFD4
:107F0000A601A0E0B1E02C9130E011968C91119780
:107F100090E0982F8827822B932B1296FA010C0160
:107F200087BEE89511244E5F5F4FF1E0A038BF0790
:107F300051F7F601A7BEE89507B600FCFDCF97BE46
:107F4000E89526C08437B1F42ED02DD0F82E2BD052
:107F50003CD0F601EF2C8F010F5F1F4F84911BD097
:107F6000EA94F801C1F70894C11CD11CFA94CF0C13
:107F7000D11C0EC0853739F428D08EE10CD085E9AC
:107F80000AD08FE07ACF813511F488E018D01DD067
:107F900080E101D065CF982F8091C00085FFFCCF94
:107FA0009093C60008958091C00087FFFCCF809118
:107FB000C00084FD01C0A8958091C6000895E0E648
:107FC000F0E098E1908380830895EDDF803219F02E
:107FD00088E0F5DFFFCF84E1DECF1F93182FE3DFCA
:107FE0001150E9F7F2DF1F91089580E0E8DFEE27F6
:047FF000FF270994CA
:027FFE00040479
:00000001FF
