:100000000C945D000C9485000C9485000C94850084
:100010000C9485000C9485000C9485000C9485004C
:100020000C9485000C9485000C9485000C9485003C
:100030000C9485000C9485000C9485000C9485002C
:100040000C9494030C9485000C9462030C943C0370
:100050000C9485000C9485000C9485000C9485000C
:100060000C9485000C94850000000008000201003B
:100070000003040700000000000000000000000072
:10008000250028002B0000000000240027002A0083
:10009000040404040404040402020202020203032E
:1000A0000303030301020408102040800102040836
:1000B00010200102040810205D0511241FBECFEF9F
:1000C000D8E0DEBFCDBF11E0A0E0B1E0E8EBFBE09F
:1000D00002C005900D92A631B107D9F721E0A6E143
:1000E000B1E001C01D92A83CB207E1F710E0CDE5F8
:1000F000D0E004C02197FE010E94C005CC35D10795
:10010000C9F70E94DE030C94DA050C940000AF924C
:10011000BF92CF92DF92EF92FF920F931F93CF93F4
:10012000DF936C017B018B01040F151FEB015E0156
:10013000AE18BF08C017D10759F06991D601ED91EB
:10014000FC910190F081E02DC6010995892B79F78A
:10015000C501DF91CF911F910F91FF90EF90DF903C
:10016000CF90BF90AF900895FC01538D448D252F03
:1001700030E0842F90E0821B930B541710F0CF9641
:10018000089501970895FC01918D828D981761F073
:10019000A28DAE0FBF2FB11D5D968C91928D9F5F8A
:1001A0009F73928F90E008958FEF9FEF0895FC0169
:1001B000918D828D981731F0828DE80FF11D858D1C
:1001C00090E008958FEF9FEF0895FC01918D228DAF
:1001D000892F90E0805C9F4F821B91098F73992734
:1001E00008958BE291E00E94E50021E0892B09F45B
:1001F00020E0822F089580E090E0892B29F00E9472
:10020000F10081110C9400000895FC01A48DA80F49
:10021000B92FB11DA35ABF4F2C91848D90E0019648
:100220008F739927848FA689B7892C93A089B18968
:100230008C91837080648C93938D848D981306C009
:100240000288F389E02D80818F7D80830895EF926D
:10025000FF920F931F93CF93DF93EC0181E0888F80
:100260009B8D8C8D98131AC0E889F989808185FF50
:1002700015C09FB7F894EE89FF896083E889F989F2
:1002800080818370806480839FBF81E090E0DF91F4
:10029000CF911F910F91FF90EF900895F62E0B8D47
:1002A00010E00F5F1F4F0F731127E02E8C8D8E1102
:1002B0000CC00FB607FCFACFE889F989808185FF69
:1002C000F5CFCE010E940501F1CFEB8DEC0FFD2F94
:1002D000F11DE35AFF4FF0829FB7F8940B8FEA8924
:1002E000FB8980818062CFCFCF93DF93EC01888D33
:1002F0008823B9F0AA89BB89E889F9898C9185FDA1
:1003000003C0808186FD0DC00FB607FCF7CF8C912E
:1003100085FFF2CF808185FFEDCFCE010E940501E0
:10032000E9CFDF91CF91089590E0FC01E859FF4FAC
:100330002491FC01EC55FF4F3491FC01E057FF4F35
:10034000E491EE23C9F0222339F0233001F1A8F41F
:10035000213019F1223029F1F0E0EE0FFF1FE458AF
:10036000FF4FA591B4918FB7F894EC91611126C01D
:1003700030953E233C938FBF08952730A9F0283055
:10038000C9F0243049F7809180008F7D03C08091AF
:1003900080008F7780938000DFCF84B58F7784BD16
:1003A000DBCF84B58F7DFBCF8091B0008F778093BA
:1003B000B000D2CF8091B0008F7DF9CF3E2BDACF45
:1003C0003FB7F89480911B0190911C01A0911D01F1
:1003D000B0911E0126B5A89B05C02F3F19F00196CC
:1003E000A11DB11D3FBFBA2FA92F982F8827BC018F
:1003F000CD01620F711D811D911D42E0660F771FB7
:10040000881F991F4A95D1F708958F929F92AF92B6
:10041000BF92CF92DF92EF92FF926B017C010E941C
:10042000E0014B015C01C114D104E104F104B9F015
:100430000E94E001681979098A099B09683E7340A6
:100440008105910580F321E0C21AD108E108F10885
:1004500088EE880E83E0981EA11CB11CE4CFFF90AB
:10046000EF90DF90CF90BF90AF909F908F900895C6
:100470008A30910508F0B1C0FC01EF5BFD4F0C9490
:10048000C0054B0267027D029702A902BB02C902A6
:10049000DF02E102E70261E088E00E94940161E08E
:1004A00087E00E94940161E086E00E94940161E08F
:1004B00085E00E94940161E084E00E94940161E083
:1004C00083E00E94940160E082E00C94940160E07B
:1004D00088E00E94940161E087E00E94940161E05D
:1004E00086E00E94940160E085E00E94940160E053
:1004F00084E00E94940160E0E3CF61E088E00E9424
:10050000940161E087E00E94940160E086E00E942F
:10051000940161E085E00E94940161E084E00E9422
:10052000940160E083E00E94940161E0CDCF61E03E
:1005300088E00E94940161E087E00E94940161E0FC
:1005400086E00E94940161E085E00E94940160E0F1
:10055000E5CF60E088E00E94940161E087E00E94BE
:10056000940161E086E00E94940160E085E00E94D1
:10057000940160E01FC061E088E00E94940160E0A7
:1005800087E00E94940161E086E00E94940161E0AE
:10059000EDCF61E088E00E94940160E087E00E9476
:1005A000940161E086E00E94940161E085E00E9490
:1005B000940161E084E00E94940161E0B3CF61E0C6
:1005C00087CF61E088E00E94940161E0E7CF61E0BD
:1005D00088E00E94940161E0D3CF08958F929F92AA
:1005E000AF92BF920F931F93CF93DF93CDB7DEB738
:1005F000A1970FB6F894DEBF0FBECDBF19A242304F
:1006000008F44AE08E010F5D1F4F842E912CB12C0F
:10061000A12CA50194010E949E05E62FB901CA01F3
:10062000EA3044F5E05DD801EE938D01232B242BB5
:10063000252B79F790E080E0109769F0FD0101909B
:100640000020E9F73197AF014A1B5B0BBD018BE23C
:1006500091E00E948700A1960FB6F894DEBF0FBE0E
:10066000CDBFDF91CF911F910F91BF90AF909F9021
:100670008F900895E95CD7CF1F920F920FB60F921B
:1006800011242F933F934F935F936F937F938F9397
:100690009F93AF93BF93EF93FF938BE291E00E9400
:1006A0000501FF91EF91BF91AF919F918F917F9144
:1006B0006F915F914F913F912F910F900FBE0F90CF
:1006C0001F9018951F920F920FB60F9211242F931F
:1006D0008F939F93EF93FF93E0913B01F0913C0147
:1006E0008081E0914101F091420182FD1BC0908127
:1006F000809144018F5F8F7320914501821741F0F3
:10070000E0914401F0E0E55DFE4F958F8093440158
:10071000FF91EF919F918F912F910F900FBE0F90AE
:100720001F9018958081F4CF1F920F920FB60F92F1
:1007300011242F933F938F939F93AF93BF938091F7
:10074000170190911801A0911901B0911A013091EF
:10075000160123E0230F2D3758F50196A11DB11D79
:10076000209316018093170190931801A09319010B
:10077000B0931A0180911B0190911C01A0911D0161
:10078000B0911E010196A11DB11D80931B01909394
:100790001C01A0931D01B0931E01BF91AF919F91C9
:1007A0008F913F912F910F900FBE0F901F90189532
:1007B00026E8230F0296A11DB11DD2CF789484B5EF
:1007C000826084BD84B5816084BD85B5826085BD4D
:1007D00085B5816085BD80916E00816080936E00DB
:1007E00010928100809181008260809381008091CD
:1007F000810081608093810080918000816080937E
:1008000080008091B10084608093B1008091B0003D
:1008100081608093B00080917A00846080937A0038
:1008200080917A00826080937A0080917A00816062
:1008300080937A0080917A00806880937A00109289
:10084000C100E0913B01F0913C0182E08083E091A6
:100850003701F09138011082E0913901F0913A01AD
:100860008FEC808310924301E0913F01F0914001B1
:1008700086E08083E0913D01F0913E0180818061BE
:100880008083E0913D01F0913E018081886080830A
:10089000E0913D01F0913E01808180688083E0918C
:1008A0003D01F0913E0180818F7D808322E030E028
:1008B000F901EC55FF4F4491F901E057FF4F849146
:1008C000882399F090E0880F991FFC01EA57FF4FA9
:1008D000A591B491FC01E458FF4F859194918FB795
:1008E000F894EC91E42BEC938FBF2F5F3F4F2D30AA
:1008F0003105F1F6E2EBF0E02491EEE9F0E08491CD
:100900008823C1F090E0880F991FFC01EA57FF4F40
:10091000C591D491FC01E458FF4FA591B4919FB7C4
:10092000F8948881E22FE0958E2388838C91E823C8
:10093000EC939FBF82E390E090932A01809329017A
:1009400080E4782E98EEE92E93E0F92E24E6C22E6C
:10095000D12C0AE010E070927C0080917A008064D3
:1009600080937A0080917A0086FDFCCF8091780098
:10097000C0917900DC2FC82FD0932801C0932701A4
:10098000CE01B7010E948A0570932601609325016C
:10099000CE01B6010E948A05CB01B8010E948A05EA
:1009A0009093240180932301CE01B8010E948A050F
:1009B0009C01CB01B8010E948A059093220180938B
:1009C00021013093200120931F0164E170E080E059
:1009D00090E00E9405024E010D2E000CAA08BB08F3
:1009E0004AE0C501B401D7FF0DC06DE28BE291E092
:1009F0000E94270166277727CB01681979098A09A0
:100A00009B094AE00E94EE0242E050E062E171E0A0
:100A10008BE291E00E94870061E089E00E949401EE
:100A200080911F01909120010E943802809029013D
:100A300090902A01092C000CAA08BB08C501B4013A
:100A40000E94050260E089E00E94940161E08AE072
:100A50000E94940180912101909122010E9438020C
:100A6000C501B4010E94050260E08AE00E94940181
:100A700061E08BE00E949401809123019091240118
:100A80000E943802C501B4010E94050260E08BE0BB
:100A90000E94940161E08CE00E9494018091250104
:100AA000909126010E943802C501B4010E940502FE
:100AB00060E08CE00E9494014ECFEBE2F1E0138203
:100AC000128288EE93E0A0E0B0E084839583A68351
:100AD000B78384E091E09183808385EC90E09587F3
:100AE000848784EC90E09787868780EC90E0918BF8
:100AF000808B81EC90E0938B828B82EC90E0958BE5
:100B0000848B86EC90E0978B868B118E128E138EE1
:100B1000148E089597FB072E16F4009407D077FDE6
:100B200009D00E94C60507FC05D03EF4909581953A
:100B30009F4F0895709561957F4F0895A1E21A2EF9
:100B4000AA1BBB1BFD010DC0AA1FBB1FEE1FFF1F71
:100B5000A217B307E407F50720F0A21BB30BE40BC1
:100B6000F50B661F771F881F991F1A9469F7609508
:100B70007095809590959B01AC01BD01CF010895C2
:100B8000EE0FFF1F0590F491E02D0994AA1BBB1BEB
:100B900051E107C0AA1FBB1FA617B70710F0A61B7D
:100BA000B70B881F991F5A95A9F780959095BC019E
:080BB000CD010895F894FFCF78
:100BB8000000000027018700B4007401E500C300AD
:060BC800D7000D0A000039
:00000001FF
