:020000040000FA
:100000000C945D000C9485000C9485000C94850084
:100010000C9485000C9485000C9485000C9485004C
:100020000C9485000C9485000C9485000C9485003C
:100030000C9485000C9485000C9485000C9485002C
:100040000C9469030C9485000C9437030C941103F1
:100050000C9485000C9485000C9485000C9485000C
:100060000C9485000C9485000000000024002700FB
:100070002A0000000000250028002B0004040404CE
:100080000404040402020202020203030303030342
:10009000010204081020408001020408102001021F
:1000A00004081020000000080002010000030407FB
:1000B0000000000000000000FD0511241FBECFEF6E
:1000C000D8E0DEBFCDBF11E0A0E0B1E0E2E1FDE0AD
:1000D00002C005900D92A236B107D9F722E0A2E640
:1000E000B1E001C01D92AF30B207E1F710E0CDE5FD
:1000F000D0E004C02197FE010E948106CC35D107D3
:10010000C9F70E94B3030C9487060C940000AF92C9
:10011000BF92CF92DF92EF92FF920F931F93CF93F4
:10012000DF936C017B018B01040F151FEB015E0156
:10013000AE18BF08C017D10759F06991D601ED91EB
:10014000FC910190F081E02DC6010995892B79F78A
:10015000C501DF91CF911F910F91FF90EF90DF903C
:10016000CF90BF90AF900895FC01538D448D252F03
:1001700030E0842F90E0821B930B541710F0CF9641
:10018000089501970895FC01918D828D981761F073
:10019000A28DAE0FBF2FB11D5D968C91928D9F5F8A
:1001A0009F73928F90E008958FEF9FEF0895FC0169
:1001B000918D828D981731F0828DE80FF11D858D1C
:1001C00090E008958FEF9FEF0895FC01918D228DAF
:1001D000892F90E0805C9F4F821B91098F73992734
:1001E000089582E791E00E94E50021E0892B09F45F
:1001F00020E0822F089580E090E0892B29F00E9472
:10020000F10081110C9400000895FC01A48DA80F49
:10021000B92FB11DA35ABF4F2C91848D90E0019648
:100220008F739927848FA689B7892C93A089B18968
:100230008C91837080648C93938D848D981306C009
:100240000288F389E02D80818F7D80830895EF926D
:10025000FF920F931F93CF93DF93EC0181E0888F80
:100260009B8D8C8D98131AC0E889F989808185FF50
:1002700015C09FB7F894EE89FF896083E889F989F2
:1002800080818370806480839FBF81E090E0DF91F4
:10029000CF911F910F91FF90EF900895F62E0B8D47
:1002A00010E00F5F1F4F0F731127E02E8C8D8E1102
:1002B0000CC00FB607FCFACFE889F989808185FF69
:1002C000F5CFCE010E940501F1CFEB8DEC0FFD2F94
:1002D000F11DE35AFF4FF0829FB7F8940B8FEA8924
:1002E000FB8980818062CFCFCF93DF93EC01888D33
:1002F0008823B9F0AA89BB89E889F9898C9185FDA1
:1003000003C0808186FD0DC00FB607FCF7CF8C912E
:1003100085FFF2CF808185FFEDCFCE010E940501E0
:10032000E9CFDF91CF91089590E0FC01EC55FF4FAC
:100330002491FC01E057FF4F3491FC01E458FF4F3A
:10034000E491EE23C9F0222339F0233001F1A8F41F
:10035000213019F1223029F1F0E0EE0FFF1FEE58A5
:10036000FF4FA591B4918FB7F894EC91611126C01D
:1003700030953E233C938FBF08952730A9F0283055
:10038000C9F0243049F7809180008F7D03C08091AF
:1003900080008F7780938000DFCF84B58F7784BD16
:1003A000DBCF84B58F7DFBCF8091B0008F778093BA
:1003B000B000D2CF8091B0008F7DF9CF3E2BDACF45
:1003C000CF93DF9390E0FC01E057FF4F24918458D6
:1003D0009F4FFC0184918823D1F090E0880F991FF2
:1003E000FC01E859FF4FA591B491FC01EE58FF4F75
:1003F000C591D49161110EC09FB7F8948C91E22FF2
:10040000E0958E238C932881E223E8839FBFDF91C0
:10041000CF9108958FB7F894EC91E22BEC938FBFB6
:10042000F6CF8E50806480937C0080917A00806447
:1004300080937A0080917A0086FDFCCF80917800CD
:100440009091790008953FB7F89480916701909159
:100450006801A0916901B0916A0126B5A89B05C009
:100460002F3F19F00196A11DB11D3FBFBA2FA92F33
:10047000982F8827BC01CD01620F711D811D911D30
:1004800042E0660F771F881F991F4A95D1F708959C
:100490008F929F92AF92BF92CF92DF92EF92FF9294
:1004A0006B017C010E9423024B015C01C114D10449
:1004B000E104F104B9F00E942302681979098A095C
:1004C0009B09683E73408105910580F321E0C21AC3
:1004D000D108E108F10888EE880E83E0981EA11C7F
:1004E000B11CE4CFFF90EF90DF90CF90BF90AF9022
:1004F0009F908F900895FC0101900020E9F73197BB
:10050000AF01481B590BBC0182E791E00C948700B6
:100510008F929F92AF92BF920F931F93CF93DF93CF
:10052000CDB7DEB7A1970FB6F894DEBF0FBECDBF33
:1005300019A2423008F44AE08E010F5D1F4F842E4D
:10054000912CB12CA12CA50194010E944906E62F03
:10055000B901CA01EA30F4F4E05DD801EE938D01EF
:10056000232B242B252B79F790E080E0109719F0AE
:10057000CD010E947B02A1960FB6F894DEBF0FBE9C
:10058000CDBFDF91CF911F910F91BF90AF909F9002
:100590008F900895E95CE1CFCF92DF92EF92FF92C6
:1005A000CF93DF936B017C016DE282E791E00E94C3
:1005B0002701EC0166277727CB016C197D098E098D
:1005C0009F094AE00E9488028C0F9D1FDF91CF9106
:1005D000FF90EF90DF90CF9008950C947B02CF9323
:1005E000DF93BC01990F880B990B97FF0CC00E94F9
:1005F000CC02EC0182E191E00E947B028C0F9D1FF6
:10060000DF91CF9108954AE00E948802F2CFBC01A9
:10061000990F880B990B97FD0C94CC024AE00C942F
:1006200088021F920F920FB60F9211242F933F93BF
:100630004F935F936F937F938F939F93AF93BF93EA
:10064000EF93FF9382E791E00E940501FF91EF9104
:10065000BF91AF919F918F917F916F915F914F91DA
:100660003F912F910F900FBE0F901F9018951F92E2
:100670000F920FB60F9211242F938F939F93EF93A6
:10068000FF93E0918201F09183018081E0918801E4
:10069000F091890182FD1BC0908180918B018F5F59
:1006A0008F7320918C01821741F0E0918B01F0E073
:1006B000EE58FE4F958F80938B01FF91EF919F91A4
:1006C0008F912F910F900FBE0F901F9018958081E2
:1006D000F4CF1F920F920FB60F9211242F933F93D6
:1006E0008F939F93AF93BF93809163019091640127
:1006F000A0916501B09166013091620123E0230F62
:100700002D3758F50196A11DB11D209362018093EC
:10071000630190936401A0936501B0936601809199
:10072000670190916801A0916901B0916A010196F9
:10073000A11DB11D8093670190936801A093690189
:10074000B0936A01BF91AF919F918F913F912F918B
:100750000F900FBE0F901F90189526E8230F02965A
:10076000A11DB11DD2CF789484B5826084BD84B5BB
:10077000816084BD85B5826085BD85B5816085BD9C
:1007800080916E00816080936E0010928100809154
:1007900081008260809381008091810081608093DC
:1007A0008100809180008160809380008091B10001
:1007B00084608093B1008091B00081608093B0002C
:1007C00080917A00846080937A0080917A008260C0
:1007D00080937A0080917A00816080937A00809182
:1007E0007A00806880937A001092C10060E08EE009
:1007F0000E94E00160E08FE00E94E001C5E061E05E
:100800008C2F0E94E001CF5FCE30C9F7E0918201CA
:10081000F091830182E08083E0917E01F0917F017D
:100820001082E0918001F09181018FEC8083109221
:100830008A01E0918601F091870186E08083E09152
:100840008401F0918501808180618083E091840141
:10085000F0918501808188608083E0918401F0912E
:100860008501808180688083E0918401F091850119
:1008700080818F7D808388248A94B3E09B2EA12C75
:10088000B12CFCEB6F2EF2E07F2EC0E2D3E001E052
:1008900010E0A0E04A2EA0E05A2E8EE00E94110245
:1008A00023E630E0DC010E947A06A50194010E9453
:1008B0002A0669017A018FEFC81AD80AE80AF80AED
:1008C000D0927101C09270018FE00E9411022EE05F
:1008D000C216D10408F06AC0D0936F01C0936E01B4
:1008E000892B09F0D4C010926D0110926C0185E142
:1008F00091E00E94ED0280916E0190916F010E9443
:10090000070386E291E00E94ED028AE291E00E94F4
:10091000ED028FE291E00E94ED0260916B0182E7AF
:1009200091E00E9427018AE291E00E94ED0288E4B2
:1009300091E00E94ED0280916C0190916D010E9406
:10094000EF0282E791E00E94E500892B31F082E717
:1009500091E00E94C30080936B0180916B01813311
:1009600009F064C0EDE0FE2E61E08F2D0E9494013D
:1009700060916E0170916F01072E000C880B990B2E
:100980000E94480260E08F2D0E949401FA9435E0A5
:10099000F312EACF4114510409F47FCF0E94F10011
:1009A000882309F46ECF0E9400006BCF96012E5071
:1009B00031092E30310528F470926F0160926E017A
:1009C0008FCF96012C5131092E30310538F428E5AE
:1009D00032E030936F0120936E0182CF96012A524C
:1009E00031092E30310518F424EF31E0F2CF9601B1
:1009F000285331092E30310518F420E931E0E9CFD0
:100A00009601265431092E30310518F42CE231E0DC
:100A1000E0CF34E5C31AD10820E1C216D10418F49E
:100A200028EC30E0D6CF24E630E0D3CF8233C9F4CF
:100A300076E0F72E61E08F2D0E94940160916E01A7
:100A400070916F01072E000C880B990B0E944802D1
:100A500060E08F2D0E949401F3948EE0F812EACFAB
:100A600099CF6DE0F62E833349F461E08F2D0E941B
:100A70009401FA9425E0F212F8CF8CCF60E08F2D2C
:100A80000E949401FA9435E0F312F8CF83CF1093CB
:100A90006D0100936C0185E191E00E94ED0280916F
:100AA0006E0190916F010E94070386E291E00E941F
:100AB000ED028AE291E00E94ED028FE291E00E9455
:100AC000ED0260916B0182E791E00E9427018AE2CA
:100AD00091E00E94ED0288E491E00E94ED02809195
:100AE0006C0190916D010E94EF0282E791E00E94FB
:100AF000E500892B31F082E791E00E94C3008093EA
:100B00006B0180916B01803539F556E0F52E61E07F
:100B10008F2D0E949401F394F3948EE0F812F7CF96
:100B2000C0906E01D0906F010D2C000CEE08FF08F4
:100B3000C701B6010E94480246E0342E60E0832DD2
:100B40000E949401339433942EE03212F7CFC70100
:100B5000B6010E9448021ECF893419F537E0F32E02
:100B600061E08F2D0E949401F394F3943FE0F3121F
:100B7000F7CFC0906E01D0906F010D2C000CEE08E5
:100B8000FF08C701B6010E94480227E0322E60E04C
:100B9000832D0E949401339433948FE03812F7CF61
:100BA000D6CF96E0F92E8C34F9F461E08F2D0E94B7
:100BB0009401F3942EE0F212F8CFC0906E01D09021
:100BC0006F010D2C000CEE08FF08C701B6010E9452
:100BD000480286E0382E60E0832D0E949401339411
:100BE0003EE03312F8CFB3CF60E08F2D0E94940126
:100BF000F3948EE0F812F8CFCDCEE2E7F1E0138265
:100C0000128288EE93E0A0E0B0E084839583A6830F
:100C1000B78384E091E09183808385EC90E09587B1
:100C2000848784EC90E09787868780EC90E0918BB6
:100C3000808B81EC90E0938B828B82EC90E0958BA3
:100C4000848B86EC90E0978B868B118E128E138EA0
:100C5000148E0895052E97FB1EF400940E94410601
:100C600057FD07D00E94490607FC03D04EF40C94B0
:100C7000410650954095309521953F4F4F4F5F4F1E
:100C8000089590958095709561957F4F8F4F9F4FF8
:100C90000895A1E21A2EAA1BBB1BFD010DC0AA1FBD
:100CA000BB1FEE1FFF1FA217B307E407F50720F0D5
:100CB000A21BB30BE40BF50B661F771F881F991F50
:100CC0001A9469F760957095809590959B01AC0199
:100CD000BD01CF010895A29FB001B39FC001A39FA2
:100CE000700D811D1124911DB29F700D811D112465
:100CF000911D08950E946B06B7FF0895821B930B08
:100D00000895EE0FFF1F0590F491E02D0994F894DB
:100D1000FFCF0000000027018700B4007401E50048
:100D2000C300D7000D0A004C612076656C6F6369C3
:100D30006461642065732000206D7300202D2D20D8
:100D40000053652070726573696F6E6F20656C204B
:100D500063617261637465722000456C2065737411
:100D600061646F2064656C207377697463682065C3
:040D700073200000EC
:107E0000112484B714BE81FFF0D085E080938100F7
:107E100082E08093C00088E18093C10086E0809377
:107E2000C20080E18093C4008EE0C9D0259A86E02C
:107E300020E33CEF91E0309385002093840096BBD3
:107E4000B09BFECF1D9AA8958150A9F7CC24DD24C4
:107E500088248394B5E0AB2EA1E19A2EF3E0BF2EE7
:107E6000A2D0813461F49FD0082FAFD0023811F036
:107E7000013811F484E001C083E08DD089C08234E0
:107E800011F484E103C0853419F485E0A6D080C0E4
:107E9000853579F488D0E82EFF2485D0082F10E0AE
:107EA000102F00270E291F29000F111F8ED06801E7
:107EB0006FC0863521F484E090D080E0DECF843638
:107EC00009F040C070D06FD0082F6DD080E0C81688
:107ED00080E7D80618F4F601B7BEE895C0E0D1E017
:107EE00062D089930C17E1F7F0E0CF16F0E7DF06D8
:107EF00018F0F601B7BEE89568D007B600FCFDCFD4
:107F0000A601A0E0B1E02C9130E011968C91119780
:107F100090E0982F8827822B932B1296FA010C0160
:107F200087BEE89511244E5F5F4FF1E0A038BF0790
:107F300051F7F601A7BEE89507B600FCFDCF97BE46
:107F4000E89526C08437B1F42ED02DD0F82E2BD052
:107F50003CD0F601EF2C8F010F5F1F4F84911BD097
:107F6000EA94F801C1F70894C11CD11CFA94CF0C13
:107F7000D11C0EC0853739F428D08EE10CD085E9AC
:107F80000AD08FE07ACF813511F488E018D01DD067
:107F900080E101D065CF982F8091C00085FFFCCF94
:107FA0009093C60008958091C00087FFFCCF809118
:107FB000C00084FD01C0A8958091C6000895E0E648
:107FC000F0E098E1908380830895EDDF803219F02E
:107FD00088E0F5DFFFCF84E1DECF1F93182FE3DFCA
:107FE0001150E9F7F2DF1F91089580E0E8DFEE27F6
:047FF000FF270994CA
:027FFE00040479
:00000001FF
