:100000000C9462000C948A000C948A000C948A0070
:100010000C948A000C948A000C948A000C948A0038
:100020000C948A000C948A000C948A000C948A0028
:100030000C948A000C948A000C948A000C948A0018
:100040000C948E040C948A000C948A000C948A0000
:100050000C948A000C948A000C948A000C948A00F8
:100060000C94D8040C948A000000000023002600A1
:10007000290000000008000201000003040700003E
:1000800000000000000000000000250028002B00F8
:1000900000000000240027002A00040404040404D3
:1000A0000404020202020202030303030303010227
:1000B00004081020408001020408102001020408F6
:1000C0001020F70511241FBECFEFD8E0DEBFCDBF53
:1000D00011E0A0E0B1E0E2EFFFE002C005900D9278
:1000E000A233B107D9F722E0A2E3B1E001C01D922B
:1000F000A631B207E1F710E0C2E6D0E004C02197D4
:10010000FE010E94F107C136D107C9F70E941D0602
:100110000C94F7070C940000CF93DF9390E0FC0160
:10012000E255FF4F249186569F4FFC01849188230E
:10013000C1F090E0880F991FFC01E057FF4FC59177
:10014000D491FC01EA57FF4FA591B4919FB7F89461
:100150008881E22FE0958E2388838C91E823EC93AD
:100160009FBFDF91CF91089508950895AF92BF92F8
:10017000CF92DF92EF92FF920F931F93CF93DF9373
:100180006C017B018B01040F151FEB015E01AE18A2
:10019000BF08C017D10759F06991D601ED91FC91C4
:1001A0000190F081E02DC6010995892B79F7C501F1
:1001B000DF91CF911F910F91FF90EF90DF90CF9043
:1001C000BF90AF900895833081F028F4813099F08A
:1001D0008230A9F008958730A9F08830C9F08430C2
:1001E000B1F4809180008F7D03C0809180008F7773
:1001F00080938000089584B58F7784BD089584B579
:100200008F7DFBCF8091B0008F778093B0000895F1
:100210008091B0008F7DF9CFCF93DF93282F30E00E
:10022000F901EE58FF4F8491F901E255FF4FD49147
:10023000F901E656FF4FC491CC23A1F081110E9431
:10024000E300EC2FF0E0EE0FFF1FE859FF4FA59100
:10025000B491EC91ED2381E090E009F480E0DF912E
:10026000CF91089580E090E0FACF1F93CF93DF9372
:10027000282F30E0F901EE58FF4F8491F901E25543
:10028000FF4FD491F901E656FF4FC491CC23A9F05A
:10029000162F81110E94E300EC2FF0E0EE0FFF1FFC
:1002A000EA57FF4FA591B4918FB7F894EC911111D3
:1002B00008C0D095DE23DC938FBFDF91CF911F91D3
:1002C0000895DE2BF8CF3FB7F8948091E901909123
:1002D000EA01A091EB01B091EC0126B5A89B05C005
:1002E0002F3F19F00196A11DB11D3FBFBA2FA92FB5
:1002F000982F8827BC01CD01620F711D811D911DB2
:1003000042E0660F771F881F991F4A95D1F708951D
:100310008F929F92AF92BF92CF92DF92EF92FF9215
:100320006B017C010E9463014B015C01C114D1048B
:10033000E104F104B9F00E946301681979098A099E
:100340009B09683E73408105910580F321E0C21A44
:10035000D108E108F10888EE880E83E0981EA11C00
:10036000B11CE4CFFF90EF90DF90CF90BF90AF90A3
:100370009F908F90089520919A01260F3327331F65
:1003800021323105ECF42091BE01FC0190E080E0C7
:10039000243069F082E00895A0919A012191AC0186
:1003A00046585E4FA40FB52FB11D2C9301968617AA
:1003B00098F380919A01680F60939A0180E0089504
:1003C00081E008951092BE0181E08093C0011092F7
:1003D000BF0161E082E10E94350161E083E10E949A
:1003E0003501E9EBF0E080818E7F808380818D7F15
:1003F000808388E48093B80085E48093BC000895EE
:10040000CF93DF9391E0909379018823B9F0C09165
:10041000B800D091BA008091BC008A7B8093BC0068
:1004200060E082E10E94350160E083E10E943501D5
:100430000E94E201D093BA00C093B800DF91CF913F
:1004400008950895E091F4018091F301E81730F4E4
:10045000F0E0EC5AFE4F808190E008958FEF9FEF1F
:1004600008959091F4018091F3012FEF3FEF9817D9
:1004700048F4E92FF0E0EC5AFE4F208130E09F5F16
:100480009093F401C90108958091F3019091F401D2
:10049000891B990B0895CF92DF92EF92FF920F93F1
:1004A0001F93CF93DF937C01CB018A0120915301ED
:1004B000222389F0EB016B01C40ED51ECC15DD059E
:1004C00069F06991D701ED91FC910190F081E02DE7
:1004D000C7010995F3CF642F0E94BB01C801DF91CA
:1004E000CF911F910F91FF90EF90DF90CF900895E3
:1004F000CF93DF931F92CDB7DEB76983209153016D
:100500002223F9F02091F101203258F021E030E06F
:10051000FC013383228390E080E00F90DF91CF9144
:1005200008958091F201E82FF0E0ED5CFE4F998193
:1005300090838F5F8093F2018093F10181E090E0DE
:10054000ECCF61E0CE0101960E94BB01F7CFCF92C4
:10055000DF92EF92FF920F931F93CF93DF93FC01F3
:10056000C48181E080935301C09332011092F20163
:100570001092F1018CEF91E00E947802D091F1018C
:10058000D13208F092C00E9463016B017C0180911E
:10059000BE01811165C082E08093BE0181E080933D
:1005A000C0018FEF8093BD011092E201D093E10171
:1005B000E3E3F1E0A1ECB1E080E0D81385C0109254
:1005C000E3018091E301CC0FC82BC093E30180913C
:1005D000BF01813009F07CC01092BF010E9463010D
:1005E0006B017C018091E3018093BB0080917501D8
:1005F00090917601A0917701B0917801892B8A2B97
:100600008B2B99F00E946301009175011091760186
:1006100020917701309178016C197D098E099F092D
:100620000617170728073907E0F18091BC0083FD02
:10063000D9CF85EC8093BC000E9463016B017C01E3
:100640008091BE01823009F445C08091BD018F3F89
:1006500061F18091BD01803241F18091BD0125C0E1
:100660008091750190917601A0917701B091780108
:10067000892B8A2B8B2B09F48ACF0E94630100916E
:1006800075011091760120917701309178016C19F4
:100690007D098E099F09061717072807390708F0F3
:1006A00076CF809174010E9400021092F2011092A4
:1006B000F10110925301DF91CF911F910F91FF90A3
:1006C000EF90DF90CF90089591919D938F5F75CFBC
:1006D00085EEB0CF8091750190917601A091770160
:1006E000B0917801892B8A2B8B2B09F4A9CF0E941A
:1006F000630100917501109176012091770130918D
:1007000078016C197D098E099F09061717072807BC
:10071000390708F095CFC5CF089590E080E008959F
:1007200085ED8093BC008091750190917601A09138
:100730007701B09178010796A11DB11D23E0B69510
:10074000A795979587952A95D1F72091BC0024FD10
:1007500003C01092BE010895409175015091760139
:100760006091770170917801452B462B472B69F3F7
:100770000097A105B10541F025E32A95F1F70000A6
:100780000197A109B109E1CF809174010C94000295
:100790000F931F93CF93DF93EC01042F6B8711E02E
:1007A00019878885880F9F819460892B2A8598E016
:1007B000299F90011124822B607F682BCE010E941B
:1007C000A70219866885660F8A8528E0829FC00186
:1007D0001124682B8F81682B8B85807F682BCE013D
:1007E0000E94A702011131C08FE890E00197F1F754
:1007F00019878F8184606885660F682B8A8528E059
:10080000829FC0011124682B8B8520E1829FC0014B
:100810001124682BCE010E94A70219866885660FF5
:100820008A8528E0829FC0011124682B8F81682B64
:100830008B8520E1829FC0011124682BCE01DF91BE
:10084000CF911F910F910C94A702DF91CF911F912F
:100850000F91089510920F0210921002E0910E0273
:100860006E1708F4E62FF0E0E05FFE4F60910D0296
:10087000861708F4682F8081680F606840E088E080
:1008800092E00E94C8038FE890E00197F1F7089585
:10089000E8E0F2E01782108640E061E0CF010E94BC
:1008A000C8038BEF98E10197F1F7089521E0FC016F
:1008B0002783108640E00E94C8038FE990E00197EB
:1008C000F1F781E090E008950F931F93CF93DF93AA
:1008D0008B0110920F021092100298E0899FB001D4
:1008E0001124606440E088E092E00E94C8038FE831
:1008F00090E00197F1F7E801085F1F4F699188E0E8
:1009000092E00E945604C017D107C1F760E080E072
:10091000DF91CF911F910F910C942A041F920F9297
:100920000FB60F9211242F933F938F939F93AF9302
:10093000BF938091E5019091E601A091E701B0910C
:10094000E8013091E40123E0230F2D3758F501969B
:10095000A11DB11D2093E4018093E5019093E60170
:10096000A093E701B093E8018091E9019091EA0139
:10097000A091EB01B091EC010196A11DB11D8093F6
:10098000E9019093EA01A093EB01B093EC01BF91D0
:10099000AF919F918F913F912F910F900FBE0F902C
:1009A0001F90189526E8230F0296A11DB11DD2CFE6
:1009B0001F920F920FB60F9211242F933F934F93D4
:1009C0005F936F937F938F939F93AF93BF93EF93B7
:1009D000FF938091B900887F803609F44AC0F0F512
:1009E000883209F4A7C018F5803109F49BC0B8F427
:1009F000882309F4F9C0883009F494C0FF91EF917D
:100A0000BF91AF919F918F917F916F915F914F9126
:100A10003F912F910F900FBE0F901F901895883126
:100A200009F488C0803251F78093BD0114C080342E
:100A300009F49DC040F48033B9F38833F9F680930C
:100A4000BD0185ECB0C0803509F485C0883509F456
:100A500096C0883499F60E949003D0CF883909F463
:100A60008CC038F5883729F050F4883611F080377B
:100A700029F683E08093BE011092BC0157C08838EC
:100A800009F47BC0803919F0803809F0B7CF809124
:100A9000BC01803208F071C0E091BC0181E08E0F92
:100AA0008093BC018091BB00F0E0E456FE4F808350
:100AB0003DC0803B39F0E0F4803A09F479C0883ACF
:100AC00009F09CCF84E08093BE0110929B011092AC
:100AD0009A01E091EF01F091F001099580919A015E
:100AE00081110FC081E080939A0110927A0109C0B0
:100AF000803C09F4A6CF883C09F4A3CF883B09F0D9
:100B00007DCFE0919B0181E08E0F80939B01F0E00F
:100B1000E658FE4F80818093BB0090919B018091AD
:100B20009A0129C08091E3018093BB0085EC8093FA
:100B3000BC0064CF9091E2018091E101981758F5D3
:100B4000E091E20181E08E0F8093E201F0E0EF534B
:100B5000FE4F8081E9CFE091E20181E08E0F80932A
:100B6000E2018091BB00F0E0EF53FE4F8083909153
:100B7000E2018091E1019817C8F285E8D8CFE091B1
:100B8000E20181E08E0F8093E2018091BB00F0E0F2
:100B9000EF53FE4F80838091C00181115CCF81E0D3
:100BA0008093BF0184EA8093BC001092BE0126CFDF
:100BB00085EC8093BC001092BE018091BC01803214
:100BC00030F4E091BC01F0E0E456FE4F10826091F9
:100BD000BC0170E0E091ED01F091EE018CE991E053
:100BE00009951092BC010ACF1092BD0134CFECEFF1
:100BF000F1E01382128288EE93E0A0E0B0E08483FB
:100C00009583A683B78388E191E091838083E8E0B0
:100C1000F2E0138212828AE291E09183808387E27C
:100C200084838FE0858381E0868317821086118616
:100C300012861386148615860895789484B582608A
:100C400084BD84B5816084BD85B5826085BD85B570
:100C5000816085BD80916E00816080936E001092EE
:100C60008100809181008260809381008091810069
:100C700081608093810080918000816080938000FA
:100C80008091B10084608093B1008091B000816058
:100C90008093B00080917A00846080937A00809184
:100CA0007A00826080937A0080917A0081608093DC
:100CB0007A0080917A00806880937A001092C10057
:100CC0008EE00E948C008FE00E948C0080E10E94E8
:100CD0008C0081E10E948C001092F4011092F301CB
:100CE0001092F2011092F1010E94E20184EB90E077
:100CF0009093F0018093EF0185EB90E09093EE01EB
:100D00008093ED0160E088E092E00E94A70262E338
:100D100070E080E090E00E94880110920F02109233
:100D2000100241E060E388E092E00E94C8038BE992
:100D300091E40197F1F741E060E388E092E00E94DE
:100D4000C80383E592E00197F1F741E060E388E0B2
:100D500092E00E94C803CFE8D0E0CE010197F1F7FE
:100D600041E060E288E092E00E94C803CE01019772
:100D7000F1F740E068E288E092E00E94C803CE010B
:100D80000197F1F710920F02109210026091140275
:100D9000862F8460809314026C6040E088E092E0CB
:100DA0000E94C803CE010197F1F70E9448041092F7
:100DB0000F021092100260911502862F82608093BC
:100DC0001502666040E088E092E00E94C803219727
:100DD000F1F781E08093120268E088E092E00E94DF
:100DE000A7020E94480468E071E080E00E94640469
:100DF00060E071E081E00E946404D091F701C0914D
:100E0000F5016D2F8C2F0E942A0461E088E092E0AA
:100E10000E94560462E370E080E090E00E94880146
:100E20000E9448046D2F8C2F0E942A0460E088E005
:100E300092E00E94560480E0882E80E0982EAA243A
:100E4000A394B12C8EE00E940C016C0181E0C114CE
:100E5000D10409F480E08093FB018FE00E940C0133
:100E60007C0181E0E114F10409F480E08093FA014F
:100E700080E10E940C013C0181E06114710409F4DD
:100E800080E08093F90181E10E940C010091F7015B
:100E90001091F801C091F501D091F601CD2809F427
:100EA00052C00130110521F51092F8011092F7019E
:100EB00062E370E080E090E00E94880160E08C2FA7
:100EC0000E942A0461E088E092E00E94560462E3F6
:100ED00070E080E090E00E9488010E94480460E099
:100EE0008C2F0E942A0460E088E092E00E94560461
:100EF00062E370E080E090E00E948801D091F70109
:100F0000C091F5016D2F8C2F0E942A0461E088E0CA
:100F100092E00E94560462E370E080E090E00E945C
:100F200088010E9448046D2F8C2F0E942A0460E0E3
:100F300088E092E00E9456048114910409F482CF63
:100F40000E9400007FCFEF28F9F0012B89F6B092C4
:100F5000F801A092F70162E370E080E090E00E9467
:100F6000880161E08C2F0E942A0461E088E092E011
:100F70000E94560462E370E080E090E00E948801E5
:100F80000E94480461E0ACCF672811F1CF30D10551
:100F90000CF0AECF2196D093F601C093F50162E339
:100FA00070E080E090E00E948801602F8C2F0E940A
:100FB0002A0461E088E092E00E94560462E370E057
:100FC00080E090E00E9488010E944804602F88CF52
:100FD000892B09F48DCF1C161D060CF089CF2197A3
:100FE000DACFEE0FFF1F0590F491E02D0994F894ED
:020FF000FFCF31
:100FF2000C0C000E1C0C1A130C0C000C0C0C0C0E1E
:10100200004014540000000078024B028D032102BC
:10101200440231022202000000005604B6008D0391
:021022008C033D
:00000001FF
