:100000000C9455050C947D050C947D050C947D0590
:100010000C947D050C947D050C947D050C947D0558
:100020000C947D050C947D050C947D050C947D0548
:100030000C947D050C947D050C947D050C947D0538
:100040000C94CD140C947D050C949B140C94751495
:100050000C947D050C947D050C947D050C947D0518
:100060000C9417150C947D0500000000003E5B4FBA
:100070005B3E3E6B4F6B3E1C3E7C3E1C183C7E3C08
:10008000181C577D571C1C5E7F5E1C00183C180016
:10009000FFE7C3E7FF0018241800FFE7DBE7FF30A6
:1000A000483A060E2629792926407F050507407F14
:1000B00005253F5A3CE73C5A7F3E1C1C08081C1C87
:1000C0003E7F14227F22145F5F005F5F06097F017D
:1000D0007F006689956A606060606094A2FFA29468
:1000E00008047E040810207E201008082A1C080836
:1000F0001C2A08081E101010100C1E0C1E0C303884
:100100003E3830060E3E0E06000000000000005F84
:1001100000000007000700147F147F14242A7F2AA0
:100120001223130864623649562050000807030062
:10013000001C2241000041221C002A1C7F1C2A08AE
:10014000083E080800807030000808080808000011
:1001500060600020100804023E5149453E00427F85
:10016000400072494949462141494D331814127FD4
:100170001027454545393C4A494931412111090774
:100180003649494936464949291E000014000000F5
:1001900040340000000814224114141414140041C7
:1001A00022140802015909063E415D594E7C121184
:1001B000127C7F494949363E414141227F414141BC
:1001C0003E7F494949417F090909013E4141517337
:1001D0007F0808087F00417F41002040413F017FA8
:1001E000081422417F404040407F021C027F7F0470
:1001F00008107F3E4141413E7F090909063E4151B9
:10020000215E7F09192946264949493203017F01A8
:10021000033F4040403F1F2040201F3F4038403FA9
:10022000631408146303047804036159494D4300BF
:100230007F4141410204081020004141417F0402F6
:10024000010204404040404000030708002054548D
:1002500078407F284444383844444428384444286B
:100260007F385454541800087E090218A4A49C78BE
:100270007F0804047800447D40002040403D007F1A
:100280001028440000417F40007C047804787C08FA
:100290000404783844444438FC18242418182424CE
:1002A00018FC7C08040408485454542404043F44B3
:1002B000243C4040207C1C2040201C3C4030403CE2
:1002C00044281028444C9090907C4464544C440042
:1002D00008364100000077000000413608000201A6
:1002E0000204023C2623263C1EA1A161123A404092
:1002F000207A38545455592155557941225454780F
:1003000042215554784020545579400C1E527212A7
:100310003955555559395454545939555454580030
:1003200000457C410002457D420001457C407D1234
:1003300011127DF0282528F07C5455450020545496
:100340007C547C0A097F4932494949323A44444441
:100350003A324A4848303A4141217A3A424020787C
:10036000009DA0A07D3D4242423D3D4040403D3C7D
:1003700024FF2424487E4943662B2FFC2F2BFF09A2
:1003800029F620C0887E0903205454794100004496
:100390007D413048484A32384040227A007A0A0A81
:1003A000727D0D19317D2629292F282629292926F4
:1003B00030484D4020380808080808080808382F39
:1003C00010C8ACBA2F102834FA00007B00000814C3
:1003D0002A142222142A14085500550055AA55AA99
:1003E00055AAFF55FF55FF000000FF00101010FF39
:1003F00000141414FF001010FF00FF1010F010F094
:10040000141414FC001414F700FF0000FF00FF1484
:1004100014F404FC141417101F10101F101F1414D0
:10042000141F00101010F0000000001F101010101A
:100430001F10101010F010000000FF10101010100E
:1004400010101010FF10000000FF140000FF00FF4C
:1004500000001F10170000FC04F4141417101714E8
:1004600014F404F40000FF00F7141414141414140A
:10047000F700F7141414171410101F101F1414147D
:10048000F4141010F010F000001F101F0000001FE7
:1004900014000000FC140000F010F01010FF10FF1A
:1004A000141414FF141010101F00000000F010FFAF
:1004B000FFFFFFFFF0F0F0F0F0FFFFFF0000000093
:1004C00000FFFF0F0F0F0F0F3844443844FC4A4A17
:1004D0004A347E02020606027E027E0263554941CC
:1004E000633844443C04407E201E2006027E020203
:1004F00099A5E7A5991C2A492A1C4C7201724C3017
:100500004A4D4D303048784830BC625A463D3E49ED
:100510004949007E0101017E2A2A2A2A2A44445F91
:10052000444440514A444040444A51400000FF0185
:1005300003E080FF000008086B6B08361236243693
:10054000060F090F060000181800000010100030F8
:1005500040FF0101001F01011E00191D1712003C80
:100560003C3C3C0000000000000103070F1F3F7FE0
:100570000080C0E0F0F8FCFE00000008000201006E
:10058000000304070000000000000000DB40A4A6F8
:100590002EAF2000A1C8D300408DAED580A80000AA
:1005A000600000000000000000000000000000E00B
:1005B0000000000000000000000000000001E0005A
:1005C00000000000000000000000000001F000003A
:1005D000000000000000000000000003F000000028
:1005E0000000000000000000000007F00000000014
:1005F00000000000000000000007F80000000000FC
:1006000000000000000000000FF800000003C00020
:100610007E000001E0007F0FF800000003C000FE34
:10062000000001E000FFEFF800000003C000FE0042
:100630000001E000FFFFF800000003C000F0000030
:10064000000F007FFE7FC0000003C000F00000002C
:100650000F003FFE7FF83FF1FBCFFCFEF3BC3DEF08
:10066000E01FFE7FFF7FFBFFDFFEFEFFBC3DEFE0F4
:100670001FC6FFFF7FFBFFDFFEFEFFBC3DEFE00F6D
:10068000E3C7FE787BC3DE1EF0FFBC3DEF0007FF33
:1006900087FC787BC3DE1EF0F83C3DEF0001FFFFD6
:1006A000F0007BC3C01EF0F03C3DEF0001F37FE0A3
:1006B0003FFBC3CFFEF0F03C3DEF0003E33F807F04
:1006C000FBC3DFFEF0F03C3DEF0007E73C00787B2A
:1006D000C3DE1EF0F03C3DEF0007FFBE00787BC399
:1006E000DE1EF0F03C3DEF0007FFFE00787BC3DE2E
:1006F0001EF0F03C3DEF000FFFFE007FFBFFDFFE32
:10070000F0F03FFDEFE00FFFFF007FFBFFDFFEF0AB
:10071000F03FFDEFE00FF9FF003E79F9CF9EF0F0DA
:100720001F3DE7E01FF1FF00000000000000000097
:100730000000001F80FF007FFFFFFFFFFFFFFFFFA4
:10074000FFE01C007F007FFFFFFFFEB46D888D1867
:10075000E000001F007FFFFFFFFE95AD7DB577E055
:1007600000000F007FFFFFFFFEA5AD9D8D19E0008B
:100770000006007FFFFFFFFEB5ADEDB57EE0000097
:100780000000000180000000000000000000038065
:1007900000000000000000000007C0000000000092
:1007A0000000000007C00000000000000000000F73
:1007B000C00000000000000000001FE0000000007A
:1007C00000000000001FE00000000000000000002A
:1007D0003FE00000000000000000003FF0000000CB
:1007E0000000000000007FF0000000000000001F7B
:1007F000F87FF0000000000000003FFE7FF00000E6
:1008000000000000003FFF7FF0000000000000003B
:100810001FFFFBE0000000000000000FFFF9FFC019
:100820000000000000000FFFF9FFF80000000000CA
:100830000007FFF1FFFF00000000000003FC73FF52
:10084000FF80000000000001FE3FFFFF800000006D
:10085000000000FF1E0FFF000000000000007FFEF0
:100860001FFC000000000000003FFFFFF800000038
:10087000000000000FDFFFE0000000000000001F8C
:1008800019FFC0000000000000003F3CFF00000016
:1008900000000000007E7CF8000000000000000066
:1008A0007FFE7C0000000000000000FFFFFC000055
:1008B000000000000000FFFFFE000000000000003C
:1008C00000FFFFFE0000000000000001FFEFFE003F
:1008D00000000000000001FFCFFE0000000000004B
:1008E0000003FF07FE0000000000000003FC07FEFD
:1008F0000000000000000003F003FE000000000004
:100900000000018000FE0000000000000000000068
:100910007E000000000000000000003E000000001B
:100920000000000000000C00000000000007800034
:10093000FC000003C0000000078001FC000003C0B1
:10094000000000078001FC000003C00000000780D9
:1009500001E00000001E000000078001E000000030
:100960001E007FE3F79FF9FDE7787BDFC0FFF7FF0D
:10097000BFFDFDFF787BDFC0FFF7FFBFFDFDFF7808
:100980007BDFC0F0F787BC3DE1FF787BDE00F0F74E
:1009900087BC3DE1F0787BDE0000F787803DE1E039
:1009A000787BDE007FF7879FFDE1E0787BDE00FF4C
:1009B000F787BFFDE1E0787BDE00F0F787BC3DE123
:1009C000E0787BDE00F0F787BC3DE1E0787BDE007D
:1009D000F0F787BC3DE1E0787BDE00FFF7FFBFFD6D
:1009E000E1E07FFBDFC0FFF7FFBFFDE1E07FFBDF62
:1009F000C07CF3F39F3DE1E03E7BCFC000000000F0
:100A000000000000000000FFFFFFFFFFFFFFFFFFEF
:100A1000FFC0FFFFFFFFFD68DB111A31C0FFFFFFC2
:100A2000FFFD2B5AFB6AEFC0FFFFFFFFFD4B5B3B57
:100A30001A33C0FFFFFFFFFD6B5BDB6AFDC04C613B
:100A40002070616E74616C6C61205353443133309B
:100A500036206E6F2066756520656E636F6E7472EA
:100A60006164610000000000250028002B000000E8
:100A70000000240027002A000404040404040404E1
:100A80000202020202020303030303030102040839
:100A900010204080010204081020010204081020E8
:100AA0002200FF2100003616141B11241FBECFEFB9
:100AB000D8E0DEBFCDBF11E0A0E0B1E0E6E5FBE3AA
:100AC00002C005900D92AA36B107D9F723E0AAE635
:100AD000B1E001C01D92AB31B207E1F715E0C4E50A
:100AE000D5E004C02197FE010E94671CC335D107E1
:100AF000C9F70E94B9160C949E1D0C94000090E05A
:100B0000FC01E457F54F24918858954FFC018491DE
:100B1000882399F090E0880F991FFC01E259F54F66
:100B2000A591B491FC01EC59F54F859194918FB743
:100B3000F894EC91E22BEC938FBF089508950895FB
:100B40000895AF92BF92CF92DF92EF92FF920F93F0
:100B50001F93CF93DF936C017B018B01040F151F53
:100B6000EB015E01AE18BF08C017D10759F06991BB
:100B7000D601ED91FC910190F081E02DC60109951F
:100B8000892B79F7C501DF91CF911F910F91FF90CC
:100B9000EF90DF90CF90BF90AF900895FC01538D00
:100BA000448D252F30E0842F90E0821B930B541747
:100BB00010F0CF96089501970895FC01918D828DD4
:100BC000981761F0A28DAE0FBF2FB11D5D968C916D
:100BD000928D9F5F9F73928F90E008958FEF9FEFAC
:100BE0000895FC01918D828D981731F0828DE80F68
:100BF000F11D858D90E008958FEF9FEF0895FC0122
:100C0000918D228D892F90E0805C9F4F821B9109EE
:100C10008F73992708958EE292E00E94FF0521E0EC
:100C2000892B09F420E0822F089580E090E0892B41
:100C300029F00E940B0681110C9400000895FC011C
:100C4000A48DA80FB92FB11DA35ABF4F2C91848D2D
:100C500090E001968F739927848FA689B7892C938A
:100C6000A089B1898C91837080648C93938D848DDD
:100C7000981306C00288F389E02D80818F7D8083E0
:100C80000895EF92FF920F931F93CF93DF93EC01A0
:100C900081E0888F9B8D8C8D98131AC0E889F98923
:100CA000808185FF15C09FB7F894EE89FF89608326
:100CB000E889F98980818370806480839FBF81E0A7
:100CC00090E0DF91CF911F910F91FF90EF900895E9
:100CD000F62E0B8D10E00F5F1F4F0F731127E02EC4
:100CE0008C8D8E110CC00FB607FCFACFE889F989FC
:100CF000808185FFF5CFCE010E941F06F1CFEB8DDD
:100D0000EC0FFD2FF11DE35AFF4FF0829FB7F894CF
:100D10000B8FEA89FB8980818062CFCFCF93DF93ED
:100D2000EC01888D8823B9F0AA89BB89E889F98903
:100D30008C9185FD03C0808186FD0DC00FB607FC38
:100D4000F7CF8C9185FFF2CF808185FFEDCFCE016B
:100D50000E941F06E9CFDF91CF91089590E0FC013A
:100D6000E858FA4F2491FC01E457F54F3491FC0107
:100D7000E858F54FE491EE23C9F0222339F02330EF
:100D800001F1A8F4213019F1223029F1F0E0EE0F41
:100D9000FF1FEC59F54FA591B4918FB7F894EC91E2
:100DA000611126C030953E233C938FBF08952730B4
:100DB000A9F02830C9F0243049F7809180008F7D58
:100DC00003C0809180008F7780938000DFCF84B54F
:100DD0008F7784BDDBCF84B58F7DFBCF8091B00052
:100DE0008F778093B000D2CF8091B0008F7DF9CF04
:100DF0003E2BDACF3FB7F89480911F0290912002EA
:100E0000A0912102B091220226B5A89B05C02F3FD8
:100E100019F00196A11DB11D3FBFBA2FA92F982F20
:100E20008827BC01CD01620F711D811D911D42E01B
:100E3000660F771F881F991F4A95D1F708958F92E3
:100E40009F92AF92BF92CF92DF92EF92FF924B01AF
:100E50005C010E94FA066B017C010E94FA066C1983
:100E60007D098E099F09683E734081059105A8F3AD
:100E700021E0821A9108A108B10888EEC80E83E02B
:100E8000D81EE11CF11C81149104A104B10429F7BE
:100E9000FF90EF90DF90CF90BF90AF909F908F909A
:100EA0000895EF92FF920F931F93CF93DF93EC017E
:100EB000EC80FD806E157F050CF070C057FF04C0FC
:100EC000240F351F50E040E08E819F81FA01E20F30
:100ED000F31F8E179F071CF49C01241B350B121661
:100EE00013060CF05BC0922F842F8695869586950D
:100EF0008E9DD0018F9DB00D11246A0F7B1FAF8D89
:100F0000B8A1A60FB71F477049F188E0841B482F8E
:100F1000682F70E0FB01E059FA4FE491281708F0C0
:100F200063C0621B71092FEF30E002C03595279531
:100F30006A95E2F7E2230130110539F0B0F1023091
:100F4000110561F58C91E82702C08C91E82BEC9398
:100F5000941720F12C813D81A20FB31FE92FE41BD0
:100F6000E83078F00230110521F58E2F9C91909594
:100F70009C932C813D81A20FB31F88508830B0F71D
:100F8000E770EE2359F0F0E0E859FA4FE4910130B0
:100F90001105F9F010F10230110519F1DF91CF912F
:100FA0001F910F91FF90EF900895E0958C91E823A9
:100FB000CECF81E00115110509F480E081959E2FC7
:100FC0008C932C813D81A20FB31F98509830C0F7AD
:100FD000D7CF8C91E82BEC93E1CFE0958C91E8236F
:100FE000FACF8C91E827F7CF0130110509F4ADCF86
:100FF000E0F20230110509F4A5CFAE0DBF1DAECF52
:101000000F931F93CF93DF9377FF04C0260F371FF3
:1010100070E060E0DC011496CD91DC91FB01E20F01
:10102000F31FCE17DF071CF49E01261B370B121689
:1010300013064CF5FA0157FD3796A3E0F595E795B1
:10104000AA95E1F7EC9FD001ED9FB00DFC9FB00D8C
:1010500011246A0F7B1FDC015F96ED91FC91E60F76
:10106000F71F4770552781E090E001C0880F4A952F
:10107000EAF7482F0130110559F0A8F02E0F3F1F55
:1010800002301105E1F0DF91CF911F910F9108958A
:101090002E0F3F1FE217F307B1F38191DF01119784
:1010A000842B8C93F7CF80952E0F3F1FE217F30709
:1010B00051F39191DF01119798239C93F7CFE21799
:1010C000F30709F38191DF01119784278C93F7CF00
:1010D0000F931F93FA01DC0156964C9156974230BC
:1010E000E9F04330A1F1413061F514964D915C91E6
:1010F000DA01AE1BBF0BFD01E21BF30B77FD0BC04A
:10110000DC0116964D915C916417750724F4AB01D0
:10111000BF010E9400081F910F91089514964D91F0
:101120005C91DA01A61BB70BBD0161507109DC01AE
:1011300016964D915C91DA01AE1BBF0BFD01E21BCF
:10114000F30B77FDE8CFAF010E945107E4CF16966D
:101150004D915C91DA01A61BB70BBD01615071097D
:10116000CDCF0F931F93FA01DC0156964C91569701
:101170004230A9F0433091F1413019F514964D9168
:101180005C91DA01AE1BBF0BFD013197F7FD04C086
:10119000AB01BF010E9451071F910F910895149652
:1011A0004D915C91DA01A61BB70BBD01DC011696CF
:1011B0004D915C91DA01AE1BBF0BFD013197621BB3
:1011C000730BF7FDE9CFDC0116964D915C91E417A6
:1011D000F50714F7AF010E940008DECF16964D9177
:1011E0005C91DA01A61BB70BBD01621B730BCECF5E
:1011F000FC0177FD64C080859185681779070CF044
:101200005EC057FD5CC082859385481759070CF076
:1012100056C086898230B1F0833029F1813041F4A3
:1012200084819581841B950BAB01BC0161507109D0
:101230002130310509F108F443C02230310509F4A9
:1012400063C0089584819581DC01A61BB70BBD01A5
:101250006150710986819781DC01A41BB50BAD013A
:1012600041505109E5CF86819781861B970BBA01C2
:10127000AC0141505109DCCFCA0157FD0796A3E0EC
:1012800095958795AA95E1F7A481B5818A9F9001EC
:101290008B9F300D9A9F300D1124620F731F078CA6
:1012A000F0A1E02DE60FF71F4770552721E030E051
:1012B00001C0220F4A95EAF78081822B808308952E
:1012C000CA0157FD079633E0959587953A95E1F762
:1012D000A481B5818A9F90018B9F300D9A9F300D1C
:1012E0001124620F731F078CF0A1E02DE60FF71F8A
:1012F0004770552781E090E001C0880F4A95EAF7D2
:10130000809590818923DACFCA0157FD079623E0A3
:10131000959587952A95E1F7A481B5818A9F9001DB
:101320008B9F300D9A9F300D1124620F731F078C15
:10133000F0A1E02DE60FF71F4770552721E030E0C0
:1013400001C0220F4A95EAF780818227B7CF20910A
:10135000D001260F3327331F21323105ECF42091C1
:10136000F401FC0190E080E0243069F082E008950F
:10137000A091D0012191AC0140555E4FA40FB52F33
:10138000B11D2C930196861798F38091D001680FB8
:101390006093D00180E0089581E008951092F401F7
:1013A00081E08093F6011092F50161E082E10E94F4
:1013B000AE0661E083E10E94AE06E9EBF0E08081D9
:1013C0008E7F808380818D7F808388E48093B800C6
:1013D00085E48093BC000895CF93DF9391E09093D0
:1013E000AF018823B9F0C091B800D091BA008091C4
:1013F000BC008A7B8093BC0060E082E10E94AE0664
:1014000060E083E10E94AE060E94CE09D093BA004C
:10141000C093B800DF91CF910895E09129028091A7
:101420002802E81730F4F0E0E657FE4F808190E0A4
:1014300008958FEF9FEF08959091290280912802DF
:101440002FEF3FEF981748F4E92FF0E0E657FE4FF3
:10145000208130E09F5F90932902C9010895809117
:10146000280290912902891B990B0895CF92DF924F
:10147000EF92FF920F931F93CF93DF937C01CB01E9
:101480008A0120912D02222389F0EB016B01C40E09
:10149000D51ECC15DD0569F06991D701ED91FC9160
:1014A0000190F081E02DC7010995F3CF642F0E94D0
:1014B000A709C801DF91CF911F910F91FF90EF9085
:1014C000DF90CF900895CF93DF931F92CDB7DEB713
:1014D000698320912D022223F9F020912A022032E3
:1014E00058F021E030E0FC013383228390E080E07B
:1014F0000F90DF91CF91089580912B02E82FF0E0BB
:10150000E659FE4F998190838F5F80932B028093E1
:101510002A0281E090E0ECCF61E0CE0101960E94CA
:10152000A709F7CFCF92DF92EF92FF920F931F930D
:10153000CF93DF93D0912A0281E0D13208F09CC092
:10154000C0912C020E94FA066B017C018091F4018B
:1015500081116CC082E08093F40181E08093F601F8
:101560008FEF8093F30110921802D0931702AAE62E
:10157000B1E0E7EFF1E080E0D8138DC010921902DE
:1015800080911902CC0FC82BC09319028091F501EC
:10159000813009F084C01092F5010E94FA066B01B7
:1015A0007C01809119028093BB008091AB019091E6
:1015B000AC01A091AD01B091AE01892B8A2B8B2B90
:1015C000A1F00E94FA060091AB011091AC012091AC
:1015D000AD013091AE016C197D098E099F09061786
:1015E00017072807390708F442C08091BC0083FD23
:1015F000D8CF85EC8093BC000E94FA066B017C0179
:101600008091F401823009F44CC08091F3018F3F46
:1016100009F469C08091F301803209F466C08091B9
:10162000F301803309F463C084E026C08091AB01EC
:101630009091AC01A091AD01B091AE01892B8A2BA4
:101640008B2B09F483CF0E94FA060091AB01109115
:10165000AC012091AD013091AE016C197D098E096C
:101660009F09061717072807390708F06FCF8091E1
:10167000AA010E94EC0985E010922B0210922A0226
:1016800010922D02DF91CF911F910F91FF90EF905B
:10169000DF90CF9008959D9191938F5F6DCF85EEF0
:1016A000A9CF8091AB019091AC01A091AD01B09117
:1016B000AE01892B8A2B8B2B09F4A2CF0E94FA064C
:1016C0000091AB011091AC012091AD013091AE01C0
:1016D0006C197D098E099F09061717072807390716
:1016E00008F08ECFC4CF80E0C7CF82E0C5CF83E0C3
:1016F000C3CF08958EBD00000DB407FEFDCF8EB59B
:101700000895EF92FF920F931F93CF93DF937C0185
:10171000C62F8091F4029091F502009709F459C008
:101720002091F80231E030932D0220932C02109288
:101730002B0210922A02DC01ED91FC910190F081C4
:10174000E02D60E009958701EE24E394F12CD1E0CF
:10175000C1508091F4029091F502CF3F91F1B0E237
:10176000EB16F104D8F00E94920A8091F402909155
:10177000F5022091F802D0932D0220932C021092B2
:101780002B0210922A02DC01ED91FC910190F08174
:10179000E02D60E00995EE24E394F12C8091F402B1
:1017A0009091F502F8016491DC01ED91FC910190BA
:1017B000F081E02D0995BFEFEB1AFB0A0F5F1F4F79
:1017C000C7CFDF91CF911F910F91FF90EF900C94B5
:1017D000920AE0910403F0910503908180910A033D
:1017E0008095892380838701C15008F438C0F801AF
:1017F00084912091F2023091F302232B29F00E9470
:101800007A0B0F5F1F4FF0CF28E030E040E8E09107
:101810000003F091010390910803582F5423D9F04D
:101820005081952B9083E0910203F0910303908106
:1018300050910903952B9083E0910203F0910303EB
:10184000508190910903909595239083469521505E
:101850003109E9F6D6CF508190959523E3CFDF91FA
:10186000CF911F910F91FF90EF9008951F93CF9309
:10187000DF93EC018D8D9E8D009721F1162F29A10C
:1018800031E030932D0220932C0210922B02109203
:101890002A02DC01ED91FC910190F081E02D60E0E5
:1018A00009958D8D9E8DDC01ED91FC910190F0816B
:1018B000E02D612F09958D8D9E8DDF91CF911F9128
:1018C0000C94920AADA5BEA59C918BA98095892305
:1018D0008C938B8D9C8D892B31F0862FDF91CF914E
:1018E0001F910C947A0B28E030E080E8A9A5BAA5F6
:1018F00099A9462F4823C1F04C91942B9C93ABA5FA
:10190000BCA59C914AA9942B9C93ABA5BCA54C91DA
:101910009AA9909594239C9386952150310931F78B
:10192000DF91CF911F9108954C9190959423E6CF2C
:101930008CBD9DBD0895DF92EF92FF920F931F9390
:10194000CF93DF938091F4029091F502892B09F4F3
:1019500098C020910C0330910D0340910E035091DB
:101960000F0360E074E284EF90E00E94451C205178
:101970003109410951095695479537952795209387
:10198000B80065E080EA9AE00E94810B6091DB027A
:10199000615087ED92E00E94360C2091DD0230917B
:1019A000DE02C901079697FD079633E09595879566
:1019B0003A95E1F72091DB023091DC02829F8001B1
:1019C000839F100D929F100D1124C091F602D091AB
:1019D000F7028091F4029091F5020C0F1D1F009701
:1019E00009F48FC02091F80231E030932D0220934A
:1019F0002C0210922B0210922A02DC01ED91FC9134
:101A00000190F081E02D60E40995EE24E394F12C3F
:101A1000DD24D3948091F4029091F5020C171D07F8
:101A200009F446C0B0E2EB16F104D8F00E94920A25
:101A30008091F4029091F5022091F802D0922D024B
:101A400020932C0210922B0210922A02DC01ED91BD
:101A5000FC910190F081E02D60E40995EE24E3947F
:101A6000F12C8091F4029091F5026991DC01ED91E5
:101A7000FC910190F081E02D0995BFEFEB1AFB0A74
:101A8000C9CF8091F2029091F302892B31F08091BD
:101A90001503909116030E94980CE0910603F091B3
:101AA0000703908180910B0380958923808369CF00
:101AB0000E94920A8091F4029091F502892B09F418
:101AC00061C0209110033091110340911203509195
:101AD000130360E074E284EF90E00E94451C205103
:101AE0003109410951095695479537952795209316
:101AF000B800DF91CF911F910F91FF90EF90DF9091
:101B00000895E0910403F0910503808190910A0308
:101B1000892B80830C171D0769F289912091F202AD
:101B20003091F302232B19F00E947A0BF3CF28E0B7
:101B300030E040E8E0910003F09101039091080348
:101B4000582F5423D9F05081952B9083E0910203B4
:101B5000F0910303908150910903952B9083E091BC
:101B60000203F0910303508190910903909595230E
:101B70009083469521503109E9F6CCCF508190955C
:101B80009523E3CFE0910603F091070380819091C4
:101B90000B03892B8083ADCF1F93CF93DF93EC0191
:101BA000162F8D8D9E8D892BB1F12DA93EA94FA9A0
:101BB00058AD60E074E284EF90E00E94451C205133
:101BC0003109410951095695479537952795209335
:101BD000B80066EA111167EACE010E94360C8D8DBD
:101BE0009E8D892B41F129AD3AAD4BAD5CAD60E0E6
:101BF00074E284EF90E00E94451C205131094109B4
:101C0000510956954795379527952093B800DF9150
:101C1000CF911F9108958B8D9C8D892B21F08EADD6
:101C20009FAD0E94980CEFA5F8A990818CA9809592
:101C300089238083CECFEFA5F8A980819CA9892B29
:101C40008083E5CF0895FC016370668B8481958164
:101C500026813781613039F0633029F091878087A0
:101C60003387228708953187208793878287089555
:101C70002F923F924F925F926F927F928F929F929C
:101C8000AF92BF92CF92DF92EF92FF920F931F938A
:101C9000CF93DF93CDB7DEB76A970FB6F894DEBF68
:101CA0000FBECDBF9A8F898F7A8369834A01D22E66
:101CB00018870F833701BC2CDC0159962D913C917C
:101CC0005A972115310509F015C118968D919C91EF
:101CD0001997681779070CF0D7C11A968D919C91C6
:101CE000481759070CF0D0C14C2C512CB6E0CB9EB4
:101CF000600D711D11247C876B87161617060CF07A
:101D0000C3C1EA2DF0E0FA87E98793E0EE0FFF1FE9
:101D10009A95E1F7F88BEF87CF01840F951F18167E
:101D200019060CF0B1C1A98DBA8D58968C9181110C
:101D300004C0BFEABD1508F4D394A98DBA8DED9106
:101D4000FC9111970284F385E02DCD010995B5E052
:101D5000DB9EC0011124E981FA81FC83EB83312CE5
:101D6000212C9C0128593F4F388F2F8B4A2D50E052
:101D70005E8B4D8BEF89F88DE20DF31D44919E82B1
:101D80008D82D12CC12C69817A81620D731D7A8B71
:101D9000698B842F90E09C8B8B8BE98DFA8DA081D1
:101DA000B18140FF82C0F1E0BF126FC0AF126DC0C1
:101DB0001C96ED91FC912F813885A4014C0D5D1D81
:101DC00069897A89898D9A8D0995EB89FC89F595C0
:101DD000E7954E2F5FEFC51AD50A6D817E818D89FB
:101DE0009E89680F791F7E836D8398E0C916D104A0
:101DF00081F6AFEF2A1A3A0AEB81FC81E40DF51D5A
:101E0000FC83EB83F5E02F16310409F0B3CF2F816B
:101E1000388526153705B9F0A98DBA8DED91FC915D
:101E2000B1E0BB1257C0AB1255C069817A816B5FBC
:101E30007F4F0088F189E02D830128E030E0A40184
:101E4000898D9A8D0995A98DBA8DED91FC91119787
:101E50000688F789E02DCD016A960FB6F894DEBFAB
:101E60000FBECDBFDF91CF911F910F91FF90EF90EB
:101E7000DF90CF90BF90AF909F908F907F906F90AA
:101E80005F904F903F902F9009941E96ED91FC919A
:101E9000EF80F88409851A8592014D815E816B81FE
:101EA0007C81898D9A8D099590CF2F813885261553
:101EB000370509F48ACF31E0B31207C0A31205C079
:101EC0001C96ED91FC91930178CF1E96ED91FC91BB
:101ED0007301E0CF6B857C85641975090684F785ED
:101EE000E02D73010F8518899201A401898D9A8DC7
:101EF0000995A9CFF901349694913297459154915F
:101F0000D91AB7E0DB9E400D511D1124F90125912E
:101F100034913C8B2B8BFA0125903490FA01329648
:101F2000749031963491398B329664903196449006
:101F300041E04C1518F04A1508F07FC0662D062CBC
:101F4000000C770B7C836B83842D042C000C990B85
:101F50009E838D83A98DBA8DED91FC91119702849A
:101F6000F385E02DCD010995512CD12CC12CEA2D02
:101F7000F0E0FA87E9872B2D30E03C872B87A4011E
:101F8000440D511D47FC5A95588F4F8B69817A81BA
:101F9000660D711D67FC7A957E876D877989C716F6
:101FA00008F051CF2C2D30E04D815E81420F531F40
:101FB000A985BA854A9FC0014B9F900D5A9F900DED
:101FC0001124FC01E80DF91DF88BEF87852D612C9C
:101FD0004F89588D420F531F5E8B4D8B671408F04D
:101FE00050C044244394480E877041F4C1010196C7
:101FF000EB89FC89E20DF31DD4901C01D7FE19C0BA
:10200000A98DBA8DED91FC91662D70E0B1E0BB1207
:1020100019C0AB1217C02D853E85620F731F048453
:10202000F585E02D2F8138854D895E89898D9A8DC2
:102030000995DD0C6394842DD1CF1E821D821C82F4
:102040001B8288CF4B815C81640F751FAB85BC857B
:102050006A9FC0016B9F900D7A9F900D112469813A
:102060007A81680F791F0684F785E02DEF80F88468
:1020700009851A859D014F855889898D9A8D099505
:10208000D8CF570CC3948ACF6A960FB6F894DEBFA8
:102090000FBECDBFDF91CF911F910F91FF90EF90B9
:1020A000DF90CF90BF90AF909F908F907F906F9078
:1020B0005F904F903F902F9008958F929F92AF9294
:1020C000CF92EF92FF920F931F93CF93DF93EC0188
:1020D000262F898D9A8D009709F051C06A30D1F46E
:1020E0001D861C868D8948E0849F900111248E8571
:1020F0009F85820F931F9F878E8781E090E0DF91FD
:10210000CF911F910F91FF90EF90CF90AF909F9044
:102110008F9008956D3089F3CC88AD888F8988239E
:10212000C1F08C859D8536E0C39E800D911D1124E4
:10213000488559854817590764F44E855F851D8683
:102140001C8638E0A39EC0011124840F951F9F8731
:102150008E87EA88FB88088919894E855F856C859A
:102160007D85CE010E94380E2C898C859D8546E0A8
:10217000249F800D911D11249D878C87BECF6A30CE
:1021800069F41D861C86FC013896E4912D898E85A4
:102190009F85E29F800D911D1124ADCF6D3009F414
:1021A000ACCFFC0134963491631708F4A6CF329675
:1021B000E491E61708F4A1CFFC0132968590949043
:1021C000462F431B342F47E0349F800C911C112471
:1021D000F401329634913196E4913323A9F1EE2340
:1021E00099F1CC88F4013596E491AD884F89442368
:1021F00001F10E2E000CFF0BE30FF11DCE9EA0018E
:10220000CF9E500D11246C857D85460F571F688524
:102210007985641775076CF44E855F851D861C866D
:10222000FC013896E491AE9E400D511D11245F874C
:102230004E87EA88FB88088919894E855F856C85F9
:102240007D85CE010E94380EF4013496E4912C89EC
:102250008C859D85E29F800D911D11248DCF6F92FD
:102260007F928F929F92AF92BF92CF92DF92EF9226
:10227000FF920F931F93CF93DF93EC016B015A01F1
:1022800039014801E881F9810284F385E02D09953F
:10229000E881F9810288F389E02D87019301A50186
:1022A000B601CE010995A501480D591D41505109AE
:1022B000E881F9810288F389E02D9301B601CE010E
:1022C0000995E881F9810088F189E02D9401A50143
:1022D000B601CE010995C60CD71CB6016150710933
:1022E000E881F9810088F189E02D9401A501CE01F2
:1022F0000995E881F9810688F789E02DCE01DF9103
:10230000CF911F910F91FF90EF90DF90CF90BF90F2
:10231000AF909F908F907F906F9009946F927F9273
:102320008F929F92AF92BF92CF92DF92EF92FF92E5
:102330000F931F93CF93DF935C01EB016A01490177
:1023400038018701DC01ED91FC916217730719F5E3
:10235000641675062CF0962D872D3A01C92ED82EBD
:102360009601261937092F5F3F4F048CF58DE02D1C
:10237000A301BE01C5010995DF91CF911F910F9176
:10238000FF90EF90DF90CF90BF90AF909F908F9095
:102390007F906F9008954615570591F426173707DB
:1023A00024F0892D4B01C22FD82F9E0128193909FD
:1023B0002F5F3F4F068CF78DE02DA601B401DACFD9
:1023C0000284F385E02D0995D501ED91FC910488F7
:1023D000F589E02D83019401A601BE01C50109958F
:1023E000D501ED91FC910688F789E02DC501DF91BB
:1023F000CF911F910F91FF90EF90DF90CF90BF9002
:10240000AF909F908F907F906F900994EF92FF9282
:102410000F931F93DC011A960D911C911B97189630
:102420002D913C911997ED91FC9100A0F1A1E02D27
:102430007B0150E040E070E060E009951F910F9152
:10244000FF90EF9008954F925F926F927F928F92DC
:102450009F92AF92BF92CF92DF92EF92FF920F9333
:102460001F93CF93DF936C012B015A01390148016F
:10247000DC01ED91FC910284F385E02D0995E201E8
:10248000640C751CD601ED91FC91C615D7055CF462
:102490000088F189E02D87019401A501BE01C601E4
:1024A00009952196EFCF0688F789E02DC601DF91C7
:1024B000CF911F910F91FF90EF90DF90CF90BF9041
:1024C000AF909F908F907F906F905F904F90099406
:1024D0008F929F92AF92BF92CF92DF92EF92FF9234
:1024E0000F931F93CF93DF93EC015B014A016901C6
:1024F000E881F9810284F385E02D099595012C0D81
:102500003D1D21503109E881F9810488F589E02DCC
:1025100078018401A401B501CE010995E881F98112
:102520000688F789E02DCE01DF91CF911F910F91A1
:10253000FF90EF90DF90CF90BF90AF909F908F90E3
:1025400009948F929F92AF92BF92CF92DF92EF92B7
:10255000FF920F931F93CF93DF93EC015B014A012E
:1025600069017801E881F9810284F385E02D0995FC
:10257000C80CD91C860101501109E881F981048831
:10258000F589E02D9501A401B501CE010995E881F9
:10259000F9810688F789E02DCE01DF91CF911F9157
:1025A0000F91FF90EF90DF90CF90BF90AF909F90F2
:1025B0008F900994EF92FF920F931F93DC01ED919E
:1025C000FC9100A0F1A1E02D09951F910F91FF90C2
:1025D000EF9008950F931F93DC01ED91FC91068C11
:1025E000F78DE02D09951F910F9108950F931F937B
:1025F000DC01ED91FC91048CF58DE02D09951F9186
:102600000F910895DC01ED91FC910084F185E02D9E
:1026100009943F924F925F926F927F928F929F9216
:10262000AF92BF92CF92DF92EF92FF920F931F93E0
:10263000CF93DF935C017B014A016901390187E097
:10264000680E711C93E0759467949A95E1F72B01DD
:10265000400E511E10E000E0312CD0E0C0E0CE0171
:1026600087709927330C892B59F4FE0183E0F59587
:10267000E7958A95E1F7E00FF11FE80DF91D349019
:1026800037FE0AC021E030E0A701B5016C0F7D1FC5
:1026900087ED92E00E9402132196CC16DD06F9F632
:1026A0008FEFE81AF80A060D171DE414F504A9F6D1
:1026B000DF91CF911F910F91FF90EF90DF90CF901E
:1026C000BF90AF909F908F907F906F905F904F9052
:1026D0003F9008952F923F924F925F926F927F9218
:1026E0008F929F92AF92BF92CF92DF92EF92FF9222
:1026F0000F931F93CF93DF9300D000D000D0CDB7BE
:10270000DEB73C016A013E832D83FC82EB825801D7
:10271000A41AB50AB7FE03C0B194A194B1088D8084
:102720009E80861A970A97FE03C09194819491081F
:102730008A149B045CF0902F812F0D811E819D8354
:102740008E839C2D8D2D6B01692F782F0C151D0507
:102750005CF09D818E817E836D83692F782F902F11
:10276000812F8601C92ED82E1601201A310A2B017D
:102770002D813E81421A530A57FE03C05194419461
:102780005108710137FE03C03FEFE31AF30AF594D5
:10279000E7948D819E81861797075CF5A1E0B0E0F4
:1027A000BA83A983C016D1064CF1D301ED91FC91F7
:1027B0000484F585E02D2B813C81A8016D817E810B
:1027C0008A149B041CF04D815E81B801C3010995F8
:1027D000E418F508F7FE0AC02D813E8189819A81AF
:1027E000280F391F3E832D83E20CF31C0F5F1F4F10
:1027F000D9CF2FEF3FEF3A832983D4CF26960FB658
:10280000F894DEBF0FBECDBFDF91CF911F910F9126
:10281000FF90EF90DF90CF90BF90AF909F908F9000
:102820007F906F905F904F903F902F900895089504
:1028300090E080E008952091DD023091DE02C90130
:10284000079697FD079623E0959587952A95E1F7DA
:102850002091DB023091DC02829FA001839F500D0A
:10286000929F500D112470E060E08091F6029091EB
:10287000F7020C94971D0E94921D85ED8093BC0079
:102880008091AB019091AC01A091AD01B091AE01EE
:102890000796A11DB11D23E0B695A795979587953D
:1028A0002A95D1F72091BC0024FD03C01092F401B9
:1028B00008954091AB015091AC016091AD017091D0
:1028C000AE01452B462B472B69F30097A105B105B7
:1028D00041F025E32A95F1F700000197A109B1091C
:1028E000E1CF8091AA010C94EC091F920F920FB6D0
:1028F0000F9211242F933F934F935F936F937F9386
:102900008F939F93AF93BF93EF93FF938EE292E0E9
:102910000E941F06FF91EF91BF91AF919F918F9100
:102920007F916F915F914F913F912F910F900FBECB
:102930000F901F9018951F920F920FB60F921124AF
:102940002F938F939F93EF93FF93E0913E02F0912B
:102950003F028081E0914402F091450282FD1BC05C
:102960009081809147028F5F8F7320914802821778
:1029700041F0E0914702F0E0E25DFD4F958F8093DA
:102980004702FF91EF919F918F912F910F900FBE72
:102990000F901F9018958081F4CF1F920F920FB661
:1029A0000F9211242F933F938F939F93AF93BF93D5
:1029B00080911B0290911C02A0911D02B0911E02F9
:1029C00030911A0223E0230F2D3758F50196A11DEF
:1029D000B11D20931A0280931B0290931C02A093B6
:1029E0001D02B0931E0280911F0290912002A091BF
:1029F0002102B09122020196A11DB11D80931F02F8
:102A000090932002A0932102B0932202BF91AF9134
:102A10009F918F913F912F910F900FBE0F901F901C
:102A2000189526E8230F0296A11DB11DD2CF1F9243
:102A30000F920FB60F9211242F933F934F935F93F2
:102A40006F937F938F939F93AF93BF93EF93FF9376
:102A50008091B900887F803609F44AC0F0F5883249
:102A600009F4A7C018F5803109F49BC0B8F4882395
:102A700009F4F9C0883009F494C0FF91EF91BF9137
:102A8000AF919F918F917F916F915F914F913F9106
:102A90002F910F900FBE0F901F901895883109F459
:102AA00088C0803251F78093F30114C0803409F458
:102AB0009DC040F48033B9F38833F9F68093F30175
:102AC00085ECB0C0803509F485C0883509F496C01E
:102AD000883499F60E943D14D0CF883909F48CC00F
:102AE00038F5883729F050F4883611F0803729F608
:102AF00083E08093F4011092F20157C0883809F402
:102B00007BC0803919F0803809F0B7CF8091F2018D
:102B1000803208F071C0E091F20181E08E0F809365
:102B2000F2018091BB00F0E0EE52FE4F80833DC089
:102B3000803B39F0E0F4803A09F479C0883A09F032
:102B40009CCF84E08093F4011092D1011092D001C7
:102B5000E0912602F091270209958091D001811120
:102B60000FC081E08093D0011092B00109C0803C79
:102B700009F4A6CF883C09F4A3CF883B09F07DCFA8
:102B8000E091D10181E08E0F8093D101F0E0E0551A
:102B9000FE4F80818093BB009091D1018091D00144
:102BA00029C0809119028093BB0085EC8093BC0002
:102BB00064CF9091180280911702981758F5E09110
:102BC000180281E08E0F80931802F0E0E950FE4F6A
:102BD0008081E9CFE091180281E08E0F8093180286
:102BE0008091BB00F0E0E950FE4F80839091180285
:102BF000809117029817C8F285E8D8CFE0911802A3
:102C000081E08E0F809318028091BB00F0E0E950C4
:102C1000FE4F80838091F60181115CCF81E080932B
:102C2000F50184EA8093BC001092F40126CF85EC74
:102C30008093BC001092F4018091F201803230F454
:102C4000E091F201F0E0EE52FE4F10826091F2014D
:102C500070E0E0912402F091250282ED91E0099567
:102C60001092F2010ACF1092F30134CFEEE2F2E0BB
:102C70001382128248EE53E060E070E04483558393
:102C8000668377838AE191E09183808385EC90E08D
:102C90009587848784EC90E09787868780EC90E026
:102CA000918B808B81EC90E0938B828B82EC90E017
:102CB000958B848B86EC90E0978B868B118E128E91
:102CC000138E148EABECB2E013961C921E921297E8
:102CD00014964D935D936D937C9317978CE291E0DE
:102CE00011969C938E93E7EDF2E01382128220E816
:102CF00030E03583248380E490E0978386833187B6
:102D0000208793878287168A1586148617861686EB
:102D100081E0858B848B2FEF3FEF338B228B318BC0
:102D2000208B878B108E128E118E8EE391E0918313
:102D30008083148E138EB68FA58F10A2178E8FEFFF
:102D400084A385A386A387A380A780E89AE1A6E051
:102D5000B0E085AB96ABA7ABB0AF80EA96E8A1E058
:102D6000B0E081AF92AFA3AFB4AF80E586AF17AE4E
:102D70000895CF93DF93CDB7DEB728970FB6F894B9
:102D8000DEBF0FBECDBF789484B5826084BD84B5AC
:102D9000816084BD85B5826085BD85B5816085BD56
:102DA00080916E00816080936E001092810080910E
:102DB0008100826080938100809181008160809396
:102DC0008100809180008160809380008091B100BB
:102DD00084608093B1008091B00081608093B000E6
:102DE00080917A00846080937A0080917A0082607A
:102DF00080937A0080917A00816080937A0080913C
:102E00007A00806880937A001092C100E0913E02BF
:102E1000F0913F0282E08083E0913A02F0913B0220
:102E20001082E0913C02F0913D028FEC8083109281
:102E30004602E0914202F091430286E08083E091F5
:102E40004002F0914102808180618083E0914002E4
:102E5000F0914102808188608083E0914002F0918E
:102E60004102808180688083E0914002F0914102BC
:102E700080818F7D80838091F6029091F702892B6B
:102E800011F10E941B142091DD023091DE0280912D
:102E9000DB029091DC02213231050CF054C0B90103
:102EA0006052710977FF02C06F5F7F4F759567951C
:102EB0008357910997FD019600E210E023E730E087
:102EC0004EE955E053C02091DD023091DE02C90188
:102ED000079697FD0796B3E095958795BA95E1F724
:102EE0002091DB023091DC02AC01429FC001439F84
:102EF000900D529F900D11240E946D1C9093F7022B
:102F00008093F602892B09F0BCCF2EE33AE03A8396
:102F10002983E981FA816491662361F08EE292E06F
:102F20000E94410629813A812F5F3F4F3A832983CE
:102F3000892B79F742E050E066E671E08EE292E09C
:102F40000E94A105FFCFB9016054710977FF02C04B
:102F50006F5F7F4F759567958255910997FD019633
:102F600000E410E022E530E04EE757E095958795C4
:102F70000E94091382E08093F9028091F4029091FB
:102F8000F502892B09F447C28CE38093F802109272
:102F900029021092280210922B0210922A020E94FB
:102FA000CE098FE995E0909327028093260280EA6C
:102FB00095E090932502809324028091FF0287FD83
:102FC0001DC00E947F0561E08091FF020E94AE0655
:102FD00061E070E080E090E00E941F0760E0809177
:102FE000FF020E94AE066AE070E080E090E00E947E
:102FF0001F0761E08091FF020E94AE068091F402FB
:103000009091F502892B09F4C0C220910C033091F4
:103010000D0340910E0350910F0360E074E284EFC2
:1030200090E00E94451C20513109410951095695F3
:103030004795379527952093B80064E08AE995E095
:103040000E94810B6091DD02615087ED92E00E9449
:10305000360C64E086E995E00E94810B8091F902CC
:1030600064E1813009F460E187ED92E00E94360C62
:1030700064E082E995E00E94810B8FE8809314035D
:103080008091DB029091DC028038910509F096C2B4
:103090008091DD029091DE028034910509F0A3C297
:1030A0008091F902813009F487C28FEC8093140378
:1030B00092E199836AED87ED92E00E94360C698176
:1030C00087ED92E00E94360C61E887ED92E00E9465
:1030D000360C6091140387ED92E00E94360C69ED86
:1030E00087ED92E00E94360C8091F90261EF813009
:1030F00009F462E287ED92E00E94360C66E08CE80B
:1031000095E00E94810B8091F4029091F502892B49
:1031100009F472C2209110033091110340911203FF
:103120005091130360E074E284EF90E00E94451C2C
:1031300020513109410951095695479537952795F1
:103140002093B8000E941B140E949B0C0E941B1429
:10315000409008015090090160900A0170900B01A5
:1031600020910C0130910D0140910E0150910F0101
:10317000C301B2010E94241B6B017C01C0920C01AF
:10318000D0920D01E0920E01F0920F0180910001AA
:1031900090910101A0910201B091030189839A836A
:1031A000AB83BC832091040130910501409106015D
:1031B00050910701BC01CD010E94241B4B015C0111
:1031C0008092040190920501A0920601B09207013D
:1031D00020E030E040EA50E4C701B6010E94231B22
:1031E00020E030E0A9010E94901B87FD10C020E084
:1031F00030E040EA50E4C701B6010E94241B20E001
:1032000030E040E053E40E94401C87FD0CC077FA98
:10321000709477F87094409208015092090160927E
:103220000A0170920B0120E030E040EA50E4C50151
:10323000B4010E94231B20E030E0A9010E94901BF2
:1032400087FD10C020E030E040EA50E4C501B40141
:103250000E94241B20E030E040E852E40E94401C21
:1032600087FD0DC089819A81AB81BC81B058809364
:10327000000190930101A0930201B0930301C501E5
:10328000B4010E94951B2B015B01C701B6010E948E
:10329000951B6B017A836983A2014B5F5F4F21E02D
:1032A00030E087ED92E00E940213A20145505109DF
:1032B00021E030E0B60187ED92E00E940213B601F2
:1032C0006B5F7F4F21E030E0A20187ED92E00E942A
:1032D0000213B6016550710921E030E0A20187EDCB
:1032E00092E00E940213F12CE12CA1E0B0E0BE8339
:1032F000AD83E5E0F0E0F887EF8386EF282E3324F6
:103300003A940CEF1FEF4FEFE41AF40A8D819E817F
:1033100002969E838D83080F191F69807A806E0C38
:103320007F1C21E030E08F8098848A0C9B1CA401D4
:10333000B30187ED92E00E94021349805A804E1833
:103340005F0821E030E0A401B20187ED92E00E9425
:10335000021321E030E04501AF81B8858A1A9B0A4B
:10336000A401B30187ED92E00E94021321E030E056
:10337000A401B20187ED92E00E94021347018A0C7A
:103380009B1C21E030E0A40169807A80EF81F88500
:103390006E0E7F1EB30187ED92E00E94021321E0C2
:1033A00030E0A40149805A808F819885481A590AD3
:1033B000B20187ED92E00E94021345018E189F082A
:1033C00021E030E0A401B30187ED92E00E940213F6
:1033D00021E030E0A401B20187ED92E00E940213E7
:1033E000AF81B885EA16FB060CF410C10E949B0C55
:1033F0006AE070E080E090E00E941F07E0E0F0E00B
:10340000EF2B09F4A3CE0E940B06882309F49ECE6D
:103410000E9400009BCE8091FD020E947F0580915A
:10342000FE020E947F058091FD02082E000C990B80
:10343000FC01E858F54FE491F0E0EE0FFF1FEC5966
:10344000F54F259134913093050320930403FC013B
:10345000E457F54FE491E0930A038091FE02082EB1
:10346000000C990BFC01E858F54FE491F0E0EE0FE9
:10347000FF1FEC59F54FA591B491B0930703A093AA
:103480000603FC01E457F54FE491E0930B038C91A4
:10349000E82BEC938091F2029091F302892B09F4CE
:1034A00033C05FB75983F89480912302811124C0FF
:1034B000E2E8FAE08491E6E9FAE09491E82FF0E09E
:1034C000EE0FFF1FE259F54FA591B491EC91E9235E
:1034D00021F461E08AE00E94AE068AE00E947F0546
:1034E0008CB580618CBD8CB580648CBD8DE00E94F4
:1034F0007F058BE00E947F05809123028F5F809380
:10350000230289818FBF59CD8091FB020E947F05E4
:103510008091FC020E947F058091FB02082E000C26
:10352000990BFC01E858F54FE491F0E0EE0FFF1F16
:10353000EC59F54F2591349130930103209300030A
:10354000FC01E457F54FE491E09308038091FC02FD
:10355000082E000C990BFC01E858F54FE491F0E0BF
:10356000EE0FFF1FEC59F54FA591B491B0930303F3
:10357000A0930203FC01E457F54FE491E0930903A3
:103580008C91E095E823EC9318CD8091F202909114
:10359000F302892B31F080911503909116030E945C
:1035A000980CE0910603F0910703908180910B0342
:1035B00080958923808341CD8FE978CD8036910530
:1035C000A9F48091DD029091DE02409791F4809100
:1035D000F902813031F08FEA80931403A2E0A983CD
:1035E00069CD80E1F9CFB2E0B98364CDE2E0E9834F
:1035F00061CDF2E0F9835ECDE0910603F09107031F
:10360000808190910B03892B80839CCD17FD7BCE0D
:103610002F8138852150310938872F8332E0230EDE
:10362000311C020D131D6FCE8EE391E09093D802F2
:103630008093D7028091F6029091F702009711F0E3
:103640000C94091D08955058BB27AA270E943B1BC4
:103650000C94061C0E94F81B38F00E94FF1B20F0FF
:1036600039F49F3F19F426F40C94F51B0EF4E09501
:10367000E7FB0C94EF1BE92F0E94171C58F3BA17B5
:10368000620773078407950720F079F4A6F50C9478
:10369000391C0EF4E0950B2EBA2FA02D0B01B901A9
:1036A00090010C01CA01A0011124FF27591B99F0B8
:1036B000593F50F4503E68F11A16F040A22F232FC4
:1036C000342F4427585FF3CF469537952795A79514
:1036D000F0405395C9F77EF41F16BA0B620B730BBB
:1036E000840BBAF09150A1F0FF0FBB1F661F771F2C
:1036F000881FC2F70EC0BA0F621F731F841F48F4E1
:10370000879577956795B795F7959E3F08F0B0CF69
:103710009395880F08F09927EE0F97958795089550
:103720000E94CB1B08F481E008950E949C1B6894C2
:10373000B1110C943A1C08950E941F1C88F09F57E9
:1037400098F0B92F9927B751B0F0E1F0660F771FC5
:10375000881F991F1AF0BA95C9F714C0B13091F0BB
:103760000E94391CB1E008950C94391C672F782F02
:103770008827B85F39F0B93FCCF386957795679580
:10378000B395D9F73EF490958095709561957F4FEC
:103790008F4F9F4F0895990F0008550FAA0BE0E82F
:1037A000FEEF16161706E807F907C0F01216130603
:1037B000E407F50798F0621B730B840B950B39F443
:1037C0000A2661F0232B242B252B21F408950A26A9
:1037D00009F4A140A6958FEF811D811D089597F9E9
:1037E0009F6780E870E060E008959FEF80EC0895A7
:1037F00000240A94161617061806090608950024D0
:103800000A9412161306140605060895092E039449
:10381000000C11F4882352F0BB0F40F4BF2B11F4BD
:1038200060FF04C06F5F7F4F8F4F9F4F089557FD1C
:103830009058440F551F59F05F3F71F04795880F1E
:1038400097FB991F61F09F3F79F0879508951216B5
:1038500013061406551FF2CF4695F1DF08C0161661
:1038600017061806991FF1CF869571056105089412
:103870000895E894BB2766277727CB0197F9089529
:103880000E94CB1B08F48FEF0895A1E21A2EAA1B09
:10389000BB1BFD010DC0AA1FBB1FEE1FFF1FA21700
:1038A000B307E407F50720F0A21BB30BE40BF50BFD
:1038B000661F771F881F991F1A9469F76095709586
:1038C000809590959B01AC01BD01CF010895EE0F4D
:1038D000FF1F0590F491E02D09940F931F93CF9350
:1038E000DF938230910510F482E090E0E0911903BB
:1038F000F0911A0330E020E0B0E0A0E0309799F4B6
:103900002115310509F44AC0281B390B2430310533
:10391000D8F58A819B816115710589F1FB0193833B
:103920008283FE0111C040815181028113814817B9
:103930005907E0F04817590799F4109761F012966B
:103940000C93129713961C933296CF01DF91CF916F
:103950001F910F9108950093190310931A03F4CF48
:103960002115310551F04217530738F0A901DB0149
:103970009A01BD01DF01F801C1CFEF01F9CF9093AA
:103980001A0380931903CDCFFE01E20FF31F819339
:1039900091932250310939832883D7CF209117037F
:1039A00030911803232B41F420911201309113011F
:1039B00030931803209317032091100130911101C7
:1039C0002115310541F42DB73EB7409114015091B6
:1039D0001501241B350BE0911703F0911803E21732
:1039E000F307A0F42E1B3F0B2817390778F0AC0122
:1039F0004E5F5F4F2417350748F04E0F5F1F5093FF
:103A0000180340931703819391939FCFF0E0E0E078
:103A10009CCFCF93DF930097E9F0FC01329713829C
:103A20001282A0911903B0911A03ED0130E020E059
:103A30001097A1F420813181820F931F20911703E9
:103A4000309118032817390709F061C0F093180363
:103A5000E0931703DF91CF910895EA01CE17DF07B6
:103A6000E8F54A815B819E0141155105B1F7E901F5
:103A7000FB83EA8349915991C40FD51FEC17FD07C9
:103A800061F4808191810296840F951FE9019983E9
:103A90008883828193819B838A83F0E0E0E01296A1
:103AA0008D919C9113970097B9F52D913C911197A9
:103AB000CD010296820F931F2091170330911803B6
:103AC0002817390739F6309751F510921A031092DA
:103AD0001903B0931803A0931703BCCFD383C283F9
:103AE00040815181840F951FC817D90761F44E5F3B
:103AF0005F4F88819981480F591F518340838A8184
:103B00009B81938382832115310509F0B0CFF09317
:103B10001A03E09319039ECFFD01DC01C0CF13828D
:103B20001282D7CF81E090E0F8940C949E1DDC01C6
:103B300001C06D9341505040E0F7089515E0C4E591
:103B4000D5E004C0FE010E94671C2196C535D1074F
:063B5000C9F7F894FFCF55
:103B56000000A040000000420000A040000080429B
:103B660000001B038000000000004106A105CE05F1
:103B76008E06FF05DD05F10500000000630A360A22
:103B860018149E052F0A1C0A0D0A000000005D107D
:103B9600A10518141714F8089E050213DA12F61276
:103BA600EA126A139E05230ECC0D6808B10823128B
:0A3BB60006128E112F110D0A0000F7
:00000001FF
