:100000000C945D000C9485000C9485000C94850084
:100010000C9485000C9485000C9485000C9485004C
:100020000C9485000C9485000C9485000C9485003C
:100030000C9485000C9485000C9485000C9485002C
:100040000C94AD020C9485000C947B020C94550228
:100050000C9485000C9485000C9485000C9485000C
:100060000C9485000C94850000000008000201003B
:100070000003040700000000000000000000000072
:10008000250028002B0000000000240027002A0083
:10009000040404040404040402020202020203032E
:1000A0000303030301020408102040800102040836
:1000B0001020010204081020EE0411241FBECFEF0F
:1000C000D8E0DEBFCDBF11E0A0E0B1E0E6E4FAE0A9
:1000D00002C005900D92A23FB107D9F722E0A2EF2E
:1000E000B1E001C01D92AA39B207E1F710E0CDE5F9
:1000F000D0E004C02197FE010E941B05CC35D1073A
:10010000C9F70E94F7020C9421050C940000AF92ED
:10011000BF92CF92DF92EF92FF920F931F93CF93F4
:10012000DF936C017B018B01040F151FEB015E0156
:10013000AE18BF08C017D10759F06991D601ED91EB
:10014000FC910190F081E02DC6010995892B79F78A
:10015000C501DF91CF911F910F91FF90EF90DF903C
:10016000CF90BF90AF900895FC01538D448D252F03
:1001700030E0842F90E0821B930B541710F0CF9641
:10018000089501970895FC01918D828D981761F073
:10019000A28DAE0FBF2FB11D5D968C91928D9F5F8A
:1001A0009F73928F90E008958FEF9FEF0895FC0169
:1001B000918D828D981731F0828DE80FF11D858D1C
:1001C00090E008958FEF9FEF0895FC01918D228DAF
:1001D000892F90E0805C9F4F821B91098F73992734
:1001E00008958DEF91E00E94E50021E0892B09F44C
:1001F00020E0822F089580E090E0892B29F00E9472
:10020000F10081110C9400000895FC01A48DA80F49
:10021000B92FB11DA35ABF4F2C91848D90E0019648
:100220008F739927848FA689B7892C93A089B18968
:100230008C91837080648C93938D848D981306C009
:100240000288F389E02D80818F7D80830895EF926D
:10025000FF920F931F93CF93DF93EC0181E0888F80
:100260009B8D8C8D98131AC0E889F989808185FF50
:1002700015C09FB7F894EE89FF896083E889F989F2
:1002800080818370806480839FBF81E090E0DF91F4
:10029000CF911F910F91FF90EF900895F62E0B8D47
:1002A00010E00F5F1F4F0F731127E02E8C8D8E1102
:1002B0000CC00FB607FCFACFE889F989808185FF69
:1002C000F5CFCE010E940501F1CFEB8DEC0FFD2F94
:1002D000F11DE35AFF4FF0829FB7F8940B8FEA8924
:1002E000FB8980818062CFCFCF93DF93EC01888D33
:1002F0008823B9F0AA89BB89E889F9898C9185FDA1
:1003000003C0808186FD0DC00FB607FCF7CF8C912E
:1003100085FFF2CF808185FFEDCFCE010E940501E0
:10032000E9CFDF91CF91089590E0FC01E859FF4FAC
:100330002491FC01EC55FF4F3491FC01E057FF4F35
:10034000E491EE23C9F0222339F0233001F1A8F41F
:10035000213019F1223029F1F0E0EE0FFF1FE458AF
:10036000FF4FA591B4918FB7F894EC91611126C01D
:1003700030953E233C938FBF08952730A9F0283055
:10038000C9F0243049F7809180008F7D03C08091AF
:1003900080008F7780938000DFCF84B58F7784BD16
:1003A000DBCF84B58F7DFBCF8091B0008F778093BA
:1003B000B000D2CF8091B0008F7DF9CF3E2BDACF45
:1003C0003FB7F8948091F7019091F801A091F9015D
:1003D000B091FA0126B5A89B05C02F3F19F00196F0
:1003E000A11DB11D3FBFBA2FA92F982F8827BC018F
:1003F000CD01620F711D811D911D42E0660F771FB7
:10040000881F991F4A95D1F708958F929F92AF92B6
:10041000BF92CF92DF92EF92FF926B017C010E941C
:10042000E0014B015C01C114D104E104F104B9F015
:100430000E94E001681979098A099B09683E7340A6
:100440008105910580F321E0C21AD108E108F10885
:1004500088EE880E83E0981EA11CB11CE4CFFF90AB
:10046000EF90DF90CF90BF90AF909F908F900895C6
:10047000CF93DF93FC0101900020E9F73197AF01A2
:10048000481B590BBC018DEF91E00E948700EC01E5
:1004900042E050E062E171E08DEF91E00E94870060
:1004A0008C0F9D1FDF91CF9108951F920F920FB671
:1004B0000F9211242F933F934F935F936F937F93EA
:1004C0008F939F93AF93BF93EF93FF938DEF91E043
:1004D0000E940501FF91EF91BF91AF919F918F9184
:1004E0007F916F915F914F913F912F910F900FBE30
:1004F0000F901F9018951F920F920FB60F92112414
:100500002F938F939F93EF93FF93E0910D02F091C0
:100510000E028081E0911302F091140282FD1BC053
:100520009081809116028F5F8F732091170282173E
:1005300041F0E0911602F0E0E350FE4F958F80937A
:100540001602FF91EF919F918F912F910F900FBE07
:100550000F901F9018958081F4CF1F920F920FB6C5
:100560000F9211242F933F938F939F93AF93BF9339
:100570008091F3019091F401A091F501B091F60101
:100580003091F20123E0230F2D3758F50196A11D7C
:10059000B11D2093F2018093F3019093F401A09395
:1005A000F501B093F6018091F7019091F801A091C7
:1005B000F901B091FA010196A11DB11D8093F701D7
:1005C0009093F801A093F901B093FA01BF91AF9114
:1005D0009F918F913F912F910F900FBE0F901F9081
:1005E000189526E8230F0296A11DB11DD2CF78944D
:1005F00084B5826084BD84B5816084BD85B5826028
:1006000085BD85B5816085BD80916E0081608093D8
:100610006E00109281008091810082608093810041
:100620008091810081608093810080918000816051
:10063000809380008091B10084608093B1008091AC
:10064000B00081608093B00080917A0084608093D4
:100650007A0080917A00826080937A0080917A009B
:10066000816080937A0080917A00806880937A001C
:100670001092C100E2EBF0E02491EEE9F0E0849109
:100680008823C1F090E0880F991FFC01EA57FF4FC3
:10069000C591D491FC01E458FF4FA591B4919FB747
:1006A000F8948881E22FE0958E2388838C91E8234B
:1006B000EC939FBFE0910D02F0910E0282E08083E7
:1006C000E0910902F0910A021082E0910B02F09190
:1006D0000C028FEC808310921502E0911102F091D0
:1006E000120286E08083E0910F02F0911002808177
:1006F00080618083E0910F02F09110028081886018
:100700008083E0910F02F0911002808180688083E5
:10071000E0910F02F091100280818F7D8083D0E400
:1007200008EC10E080E0E82E80E0F82ED0937C000A
:1007300080917A00806480937A0080917A0086FDAF
:10074000FCCF80917800909179001093FC01009388
:10075000FB019C01215031092636310530F561E05D
:1007600084E00E94940168EC70E080E090E00E94D8
:10077000050285E191E00E94380260E084E00E9479
:1007800094016091FB017091FC01072E000C880B15
:10079000990B0E940502E114F10441F20E94F1005C
:1007A000882321F20E940000C1CF9C012756310905
:1007B00026363105D8F461E084E00E94940161E0BE
:1007C00085E00E94940168EC70E080E090E00E9477
:1007D000050260E084E00E94940160E085E00E94F0
:1007E00094018BE291E00E943802D5CF9C012D5CF0
:1007F00031092636310508F561E084E00E94940154
:1008000061E085E00E94940161E086E00E9494012D
:1008100068EC70E080E090E00E94050260E084E017
:100820000E94940160E085E00E94940160E086E00F
:100830000E94940181E491E0D6CF9C012353314082
:1008400026363105C8F4C4E061E08C2F0E94940183
:10085000CF5FC830C9F768EC70E080E090E00E949C
:100860000502C4E060E08C2F0E949401CF5FC83085
:10087000C9F787E591E0B7CF9C0129593140263669
:100880003105C8F4C4E061E08C2F0E949401CF5F71
:10089000C930C9F768EC70E080E090E00E94050282
:1008A000C4E060E08C2F0E949401CF5FC930C9F78B
:1008B0008DE691E098CF9C012F5F314026363105BF
:1008C000C8F4C4E061E08C2F0E949401CF5FCA306D
:1008D000C9F768EC70E080E090E00E940502C4E097
:1008E00060E08C2F0E949401CF5FCA30C9F783E883
:1008F00091E079CF9C012556324026363105C8F467
:10090000C4E061E08C2F0E949401CF5FCB30C9F727
:1009100068EC70E080E090E00E940502C4E060E0D6
:100920008C2F0E949401CF5FCB30C9F789E991E009
:100930005ACF9C012B5C324026363105C8F4C4E006
:1009400061E08C2F0E949401CF5FCC30C9F768EC36
:1009500070E080E090E00E940502C4E060E08C2F2F
:100960000E949401CF5FCC30C9F78FEA91E03BCF72
:1009700081539340C4E086369105C0F461E08C2F2A
:100980000E949401CF5FCD30C9F768EC70E080E041
:1009900090E00E940502C4E060E08C2F0E94940168
:1009A000CF5FCD30C9F785EC91E01DCF61E08C2F92
:1009B0000E949401CF5FCE30C9F768EC70E080E010
:1009C00090E00E940502C4E060E08C2F0E94940138
:1009D000CF5FCE30C9F78BED91E005CFEDEFF1E0C1
:1009E0001382128288EE93E0A0E0B0E084839583C6
:1009F000A683B78384E091E09183808385EC90E0C7
:100A00009587848784EC90E09787868780EC90E0D8
:100A1000918B808B81EC90E0938B828B82EC90E0C9
:100A2000958B848B86EC90E0978B868B118E128E43
:100A3000138E148E0895EE0FFF1F0590F491E02D94
:060A40000994F894FFCFB9
:100A46000000000027018700B4007401E500C30020
:100A5600D7000D0A0048617920756E20746F7461A5
:100A66006C2064652031206C6564004861792075CE
:100A76006E20746F74616C2064652032206C65642E
:100A86000048617920756E20746F74616C2064650E
:100A96002033206C65640048617920756E20746F80
:100AA60074616C2064652034206C6564004861794B
:100AB60020756E20746F74616C2064652035206C1F
:100AC60065640048617920756E20746F74616C20CE
:100AD60064652036206C65640048617920756E2057
:100AE600746F74616C2064652037206C65640048FF
:100AF600617920756E20746F74616C20646520388E
:100B0600206C65640048617920756E20746F74618D
:100B16006C2064652039206C656400486179207515
:100B26006E20746F74616C206465203130206C65B2
:020B3600640059
:00000001FF
